S016000043616C63756C6174696E675F50692E737265638F
S11300000C949F010C94C8010C94C8010C94C80171
S11300100C94C8010C94C8010C94C8010C94C80138
S11300200C94C8010C94C8010C94C8010C94C80128
S11300300C94C8010C94C8010C9497060C94C80144
S11300400C94C8010C94C8010C94C8010C94C80108
S11300500C94C8010C94C8010C94C8010C94C801F8
S11300600C94C8010C94C8010C94C8010C94C801E8
S11300700C94C8010C94C8010C94C8010C94C801D8
S11300800C94C8010C94C8010C94C8010C94C801C8
S11300900C94C8010C94C8010C94C8010C94C801B8
S11300A00C94C8010C94C8010C94C8010C94C801A8
S11300B00C94C8010C94C8010C94C8010C94C80198
S11300C00C94C8010C94C8010C94C8010C94C80188
S11300D00C94C8010C94C8010C94C8010C94C80178
S11300E00C94C8010C94C8010C94C8010C94C80168
S11300F00C94C8010C94C8010C94C8010C94C80158
S11301000C94C8010C94C8010C94C8010C94C80147
S11301100C94C8010C94C8010C94C8010C94C80137
S11301200C94C8010C94C8010C94C8010C94C80127
S11301300C94C8010C94C8010C94C8010C94C80117
S11301400C94C8010C94C8010C94C8010C94C80107
S11301500C94C8010C94C8010C94C8010C94C801F7
S11301600C94C8010C94C8010C94C8010C94C801E7
S11301700C94C8010C94C8010C94C8010C94C801D7
S11301800C94C8010C94C8010C94C8010C94C801C7
S11301900C94C8010C94C8010C94C8010C94C801B7
S11301A00C94C8010C94C8010C94C8010C94C801A7
S11301B00C94BD160C94C8010C94C8010C94C8018D
S11301C00C94C8010C94C8010C94C8010C94C80187
S11301D00C94C8010C94C8010C94C8010C94C80177
S11301E00C94C8010C94C8010C94C8010C94C80167
S11301F00C94C8010C94C8010C94C8014114411416
S113020041148E1476148B14411441148E147614F4
S11302100C94E9150C945C180C948E140C948204C0
S11302200C9441140C9485130C948B140C94121597
S11302300C9476140C9469150C94AC0A6E616E00DF
S1130240696E660000407A10F35A00A0724E1809D5
S11302500010A5D4E80000E87648170000E40B5429
S1130260020000CA9A3B000000E1F50500008096F8
S11302709800000040420F000000A086010000002A
S1130280102700000000E8030000000064000000E4
S113029000000A00000000000100000000002C76AD
S11302A0D888DC674F0823DFC1DFAE59E1B1B796C8
S11302B0E5E3E453C63AE651997696E8E6C2842625
S11302C0EB898C9B62ED407C6FFCEFBC9C9F40F201
S11302D0BAA56FA5F490055A2AF75C936B6CF9677D
S11302E06DC11BFCE0E40D47FEF520E6B500D0ED42
S11302F0902E0300943577050080841E08000020AA
S11303004E0A000000C80C333333330F986E128347
S11303101141EF8D2114893BE65516CFFEE6DB181B
S1130320D1844B381BF77C1D901DA4BBE4242032E0
S113033084725E228100C9F124ECA1E53D271124D9
S11303401FBECFEFCDBFDFE3DEBF00E00CBFEBEDA0
S1130350FCE28AEA90E48193E030F907E0F310E2EA
S1130360A0E0B0E2E8EDF9E400E00BBF02C00790C2
S11303700D92A034B107D9F72CE2A0E4B0E201C099
S11303801D92AB3DB207E1F70E948B160C94EA2450
S11303900C940000E0EAF6E080E1828380E282834C
S11303A080E4828380E8828308958091A80684FD96
S11303B00EC0809146209091472080362AEE920705
S11303C0E8F40196809346209093472017C08091CB
S11303D04620909147208B30910548F0C39718F040
S11303E01092CC2C07C081E08093CC2C03C082E017
S11303F08093CC2C10924620109247208091A8061E
S113040085FD0EC0809144209091452080362AEECF
S11304109207E8F40196809344209093452017C0F6
S113042080914420909145208B30910548F0C397EA
S113043018F01092CD2C07C081E08093CD2C03C01E
S113044082E08093CD2C109244201092452080911C
S1130450A80686FD0EC080914220909143208036EC
S11304602AEE9207E8F40196809342209093432069
S113047017C080914220909143208B30910548F021
S1130480C39718F01092CE2C07C081E08093CE2C35
S113049003C082E08093CE2C10924220109243201D
S11304A08091A806882374F0809140209091412087
S11304B080362AEE9207E8F40196809340209093C8
S11304C04120089580914020909141208B309105E6
S11304D048F0C39718F01092CF2C07C081E08093A6
S11304E0CF2C03C082E08093CF2C10924020109236
S11304F041200895813049F028F0823049F083305A
S113050051F00CC08091CC2C08958091CD2C08958D
S11305108091CE2C08958091CF2C089582E0089587
S11305200F93CF93DF931F92CDB7DEB72FB72983F5
S1130530F8941BBEFC0108ED04BF608389818FBF62
S11305400F90DF91CF910F910895611102C090E057
S113055001C090E2842B892B8093520008956F711F
S1130560862B809355000895E0E5F0E09081282FD4
S1130570209592239083908189230895682B81E4A8
S113058090E00E94900208950F931F93CF93C82F79
S113059000E410E0F8016081687F682B80E490E05B
S11305A00E949002F80180818C23CF911F910F91BA
S11305B00895FC019081907F692B60830895FC016C
S11305C09181987F692B61830895FC0196819C7FBA
S11305D0692B66830895000088ED84BF81E08093D1
S11305E0790008950E94EB020895CF93DF9380E190
S11305F090E00E949204EC01009741F0FC011192FA
S1130600119211921192CF010E94B904CE01DF918F
S1130610CF9108952F923F924F925F926F927F9263
S11306208F929F92AF92BF92CF92DF92EF92FF92FE
S11306300F931F93CF93DF93EC014A015B01622E6A
S1130640702E0E94E50C288039804A805B8001115D
S11306500DC081E0B201A101482159216A217B2109
S1130660452B462B472B79F480E00DC081E0B20185
S1130670A101482159216A217B21481559056A05A0
S11306807B0509F080E0882381F0662009F470C0BE
S113069080949094A094B09482209320A420B520B8
S11306A088829982AA82BB8263C0C114D104E10406
S11306B0F10409F45DC0662029F040E050E060E0F8
S11306C071E003C040E050E0BA0171107460482941
S11306D059296A297B2997018601CE0104960E9433
S11306E06E0F0E94D00D811102C00E9417060E9455
S11306F0AB1091FD39C0F091A200FF93F87FF09305
S1130700A200688179818A819B8171100DC021E0EA
S113071075016401C622D722E822F922CD28CE2809
S1130720CF2879F420E00DC021E075016401C622D0
S1130730D722E822F922C814D904EA04FB0409F0F8
S113074020E0222371F0662061F080949094A094BC
S1130750B09486229722A822B92288829982AA82FA
S1130760BB82FF91F093A2001B012C01552402C00F
S11307700E94D00DC201B101DF91CF911F910F9161
S1130780FF90EF90DF90CF90BF90AF909F908F90AD
S11307907F906F905F904F903F902F9008950F93AC
S11307A01F93F091A200FF93F87FF093A200FC0145
S11307B00081118122813381409550956095709517
S11307C040235123622373234083518362837383C1
S11307D0FF91F093A200C901B8011F910F910895F0
S11307E04F925F926F927F92AF92BF92CF92DF92BD
S11307F0EF92FF920F931F93CF93DF93EC016A0163
S11308007B018C01095F1F4F0E94E50CEB85FC8581
S113081088819981AA81BB81C82AD92AEA2AFB2A1C
S1130820C882D982EA82FB820E171F0709F442C0EC
S1130830C12CD12C7601A480B58080819181A281C4
S1130840B381AC01BD017727B2FD0FC04880598048
S11308506A807B80442255226622772221E0452843
S11308604628472889F420E00FC0488059806A80D0
S11308707B80442255226622772221E044165506C5
S11308806606770609F020E0222371F0B0FF04C069
S1130890C42AD52AE62AF72A488159816A817B81AC
S11308A07260CF010E94F60FEA2DFB2D0E171F0771
S11308B011F603C0C12CD12C7601C094D094E094DD
S11308C0F09488819981AA81BB81C822D922EA2225
S11308D0FB22C882D982EA82FB820E94D00D688101
S11308E079818A819B81DF91CF911F910F91FF9034
S11308F0EF90DF90CF90BF90AF907F906F905F901C
S11309004F9008950E94F00308950F931F93890157
S11309109A01AB01BC0182E894E00E94B4141F91D7
S11309200F910895CF93DF93EC010E94E50C209181
S1130930482030914920C9018C0F9D1F883B4BE012
S1130940940758F42817390758F4E901C65BDF4DBA
S1130950809348209093492005C0C0E0D0E002C0B5
S1130960C0E0D0E00E94D00DCE01DF91CF91089578
S11309700895FC010396818392834FEF5FEFBA01E0
S113098043835483658376838783908781879287A3
S113099010820895FC01128613860895CF93DF9385
S11309A09C01FB01DC011196CD91DC911297C4836B
S11309B0D5838E819F81868397838E819F81DC017D
S11309C014966D937C9315976E837F832287338768
S11309D0F90180818F5F8083DF91CF9108950F9318
S11309E01F93CF93DF93EB01088119812A813B8107
S11309F00F3F4FEF14072407340721F4FC01A185AE
S1130A00B28511C0DC01139601C0DF011496ED918B
S1130A10FC911597408151816281738104171507F8
S1130A202607370790F71496ED91FC911597EC8300
S1130A30FD83C683D783AE83BF831496CD93DC93A3
S1130A4015978A879B87FC0120812F5F2083DF9184
S1130A50CF911F910F910895CF93DF93FC01A2854D
S1130A60B385C481D581868197818E839F83C68116
S1130A70D781848195818C839D8311968D919C91DE
S1130A801297E817F90731F48681978111968D93AF
S1130A909C931297128613868C9181508C938C911F
S1130AA0DF91CF910895E0EAF0E082819281987F0E
S1130AB092830895CF92DF92EF92FF9231E1FC018D
S1130AC03083319722E220833197A3E3A0836B0123
S1130AD0E12CF12C319760833197D0823197E082F9
S1130AE0319761E36083319760E86083319767E809
S1130AF060833197108231971082319762E060836E
S1130B00319763E06083319764E06083319765E0F7
S1130B106083319766E06083319767E06083319743
S1130B2068E06083319769E06083319760E16083B6
S1130B3031973083319732E13083319733E1308319
S1130B40319734E13083319735E13083319736E1A1
S1130B503083319737E13083319738E130833197EF
S1130B6039E13083319730E23083319731E2308399
S1130B7031972083319723E220836A0131974083A0
S1130B803197D082319726E22083319727E2208360
S1130B90319728E22083319729E22083319720E39B
S1130BA020838897FF90EF90DF90CF90089583EF94
S1130BB091E0809326089093270865E080E098E010
S1130BC00E94D90261E080E098E00E94E502A091D1
S1130BD07C2CB0917D2C0D900DBE0D900EBEEF912E
S1130BE0DF91CF91BF91AF919F918F917F916F9141
S1130BF05F914F913F912F911F910F91FF90EF9033
S1130C00DF90CF90BF90AF909F908F907F906F9028
S1130C105F904F903F902F901F900F90FF91F09313
S1130C20A200FF91FFBFFF91089581E00895FF9313
S1130C30FFB7FF93F091A200FF93F87FF093A20017
S1130C400F921F9211242F923F924F925F926F92B4
S1130C507F928F929F92AF92BF92CF92DF92EF9248
S1130C60FF920F931F932F933F934F935F936F9331
S1130C707F938F939F93AF93BF93CF93DF93EF9320
S1130C80A0917C2CB0917D2C0DB60D920EB60D92D8
S1130C900E946E0EA0917C2CB0917D2C0D900DBE07
S1130CA00D900EBEEF91DF91CF91BF91AF919F91C7
S1130CB08F917F916F915F914F913F912F911F91F0
S1130CC00F91FF90EF90DF90CF90BF90AF909F90E7
S1130CD08F907F906F905F904F903F902F901F90D8
S1130CE00F90FF91F093A200FF91FFBFFF91089531
S1130CF0CF939091D02C892B8093D02C9091A000ED
S1130D00913041F09091A000923021F09091A00098
S1130D10943059F4882349F00E945305C82F109247
S1130D20D02C0E946E0EC093A200CF910895FF9321
S1130D30FFB7FF93F091A200FF93F87FF093A20016
S1130D400F921F9211242F923F924F925F926F92B3
S1130D507F928F929F92AF92BF92CF92DF92EF9247
S1130D60FF920F931F932F933F934F935F936F9330
S1130D707F938F939F93AF93BF93CF93DF93EF931F
S1130D80A0917C2CB0917D2C0DB60D920EB60D92D7
S1130D900E945305C82F0E94FD0CC093A20081E05D
S1130DA00E947806A0917C2CB0917D2C0D900DBEF4
S1130DB00D900EBEEF91DF91CF91BF91AF919F91B6
S1130DC08F917F916F915F914F913F912F911F91DF
S1130DD00F91FF90EF90DF90CF90BF90AF909F90D6
S1130DE08F907F906F905F904F903F902F901F90C7
S1130DF00F90FF91F093A200FF91FFBFFF91189510
S1130E00F091A200FF93F87FF093A200FC01968D6D
S1130E10FF91F093A20081E0911180E00895DC013C
S1130E20F091A200FF93F87FF093A2005E969C914C
S1130E305E97FF91F093A20081E05F962C912913B5
S1130E4080E008950F931F93CF93DF93EC01042F59
S1130E501E8D48A14423B9F1011116C050E08C81C4
S1130E609D810E94D72328A18C819D81820F911D91
S1130E708C839D832A813B818217930720F188818B
S1130E8099818C839D831FC050E08E819F810E9435
S1130E90D72388A190E09195819591092E813F8176
S1130EA0280F391F2E833F83488159812417350722
S1130EB030F42A813B81820F931F8E839F830230FB
S1130EC011F4111111501F5F1E8F80E0DF91CF913B
S1130ED01F910F910895FC0140A14423A9F050E013
S1130EE026813781240F351F26833783828193819E
S1130EF02817390720F08081918186839783CB015D
S1130F00668177810E94D7230895EF92FF920F9311
S1130F101F93CF938C01F091A200FF93F87FF0937D
S1130F20A200FC01C2A11C16ACF48389811106C085
S1130F3011C0F8018389811105C00CC07801F3E167
S1130F40EF0EF11CC7010E94B40F81110E94991089
S1130F50C15079F78FEFF80182A3FF91F093A200BB
S1130F60F091A200FF93F87FF093A200F801C1A1D1
S1130F701C16ACF48085811106C011C0F80180856F
S1130F80811105C00CC07801F8E0EF0EF11CC70117
S1130F900E94B40F81110E949910C15079F78FEF0C
S1130FA0F80181A3FF91F093A200CF911F910F91BB
S1130FB0FF90EF900895CF93DF93EC01F091A2009E
S1130FC0FF93F87FF093A2004881598128A130E073
S1130FD07F8D729FC001739F900D1124FA01E80F59
S1130FE0F91FEA83FB831E8E4C835D83821B930B64
S1130FF0840F951F8E839F838FEF89A38AA361112A
S11310000CC08885882389F0CE0108960E94B40F0D
S1131010882359F00E94170608C0CE0108960E9442
S1131020B904CE0143960E94B904FF91F093A20043
S113103081E0DF91CF910895FF920F931F93CF9397
S1131040DF93082F162FF42E6623C9F0869FC00164
S1131050112485960E949204EC01009749F416C06D
S11310600F8F18A361E0CE010E94DB07FCA20EC023
S1131070859688839983F4CFC883D983F1CF85E299
S113108090E00E949204EC01892BB1F7CE01DF912C
S1131090CF911F910F91FF900895AF92BF92CF927D
S11310A0DF92EF92FF920F931F93CF93DF93CDB70D
S11310B0DEB72997CDBFDEBF7C015B012E833F8362
S11310C04887598710E06C0188E0C80ED11CF09164
S11310D0A200FF93F87FF093A200F701968D878D0D
S11310E0981710F00230D1F4402FB501C7010E94C7
S11310F02207F7019389992349F0C70143960E9477
S1131100B40F882331F00E94170603C081110E9496
S11311101706FF91F093A20081E057C08E819F8152
S1131120A885B985892B8A2B8B2B29F4FF91F09301
S1131130A20080E04AC0111105C0CE0101960E94B0
S11311402A1011E0FF91F093A2000E94E50CF091A7
S1131150A200FF93F87FF093A200F70181A18F3FD3
S113116009F411A2F70182A18F3F09F412A2FF91A1
S1131170F093A200BE016A5F7F4FCE0101960E94E8
S11311803B1081111CC0C7010E940F07882389F0FE
S11311904E815F8168857985C6010E94560FC7011B
S11311A00E9485070E94D00D811191CF0E941706DD
S11311B08ECFC7010E9485070E94D00D88CFC7013A
S11311C00E9485070E94D00D80E02996CDBFDEBF26
S11311D0DF91CF911F910F91FF90EF90DF90CF900F
S11311E0BF90AF900895AF92BF92CF92DF92FF92DB
S11311F00F931F93CF93DF93EC016B015A01022FDE
S11312000E945305F82E9E8D8F8D981710F0023092
S1131210E1F41AA1402FB601CE010E9422071F3F1C
S113122081F48B89882399F0CE0143960E94B40FF0
S1131230882379F0A114B10471F081E0F501808371
S11312400BC01F5F1AA381E007C080E005C081E0E6
S113125003C081E001C081E0F092A200DF91CF9150
S11312601F910F91FF90DF90CF90BF90AF900895A2
S1131270AF92BF92CF92DF92EF92FF920F931F93A0
S1131280CF93DF93CDB7DEB72997CDBFDEBF8C01F7
S11312905B012E833F8348875987E12C6C0183E1EE
S11312A0C80ED11CF091A200FF93F87FF093A20026
S11312B0F801F68CFF20B1F0B501C8010E946B075C
S11312C0FA94F801F68E8085882339F0C8010896CF
S11312D00E94B40F81110E941706FF91F093A2009F
S11312E081E05EC08E819F81A885B985892B8A2B78
S11312F08B2B29F4FF91F093A20080E051C0E11000
S113130006C0CE0101960E942A10EE24E394FF91B8
S1131310F093A2000E94E50CF091A200FF93F87FE5
S1131320F093A200F80181A18F3F09F411A2F80102
S113133082A18F3F09F412A2FF91F093A200BE0193
S11313406A5F7F4FCE0101960E943B1081111CC041
S1131350C8010E940007882389F04E815F81688557
S11313607985C6010E94560FC8010E9485070E9414
S1131370D00D811197CF0E94170694CFC8010E9407
S113138085070E94D00D8ECFC8010E9485070E9458
S1131390D00DC8010E940007882309F483CF80E0A0
S11313A02996CDBFDEBFDF91CF911F910F91FF90A2
S11313B0EF90DF90CF90BF90AF900895F091A2008E
S11313C0FF93F87FF093A200FC01868DFF91F093C8
S11313D0A2000895CF93DF93EC01F091A200FF9354
S11313E0F87FF093A20089A18F3F09F419A28AA182
S11313F08F3F09F41AA2FF91F093A2008E8D811100
S113140004C0CE0143960E94930FCE010E9485072B
S1131410DF91CF910895E091382CF091392C80819F
S113142081110CC08FEF9FEFDC018093052C90930A
S1131430062CA093072CB093082C0895E091382C27
S1131440F091392C0780F085E02D0084F185E02DA2
S113145082819381A481B5818093052C9093062C7D
S1131460A093072CB093082C08958F929F92AF926B
S1131470BF92CF92DF92EF92FF92CF936B017C01E8
S1131480C42F80900F2C9090102CA090112CB09011
S1131490122C80917C2C90917D2C02960E942C051C
S11314A08FEFC816D806E806F80669F4CC2359F07D
S11314B060917C2C70917D2C6E5F7F4F84E19CE267
S11314C00E94CE043FC0C80CD91CEA1CFB1CE0914E
S11314D07C2CF0917D2CC282D382E482F582C814E4
S11314E0D904EA04FB0468F460917C2C70917D2C8F
S11314F08091362C9091372C6E5F7F4F0E94EF04C1
S113150021C060917C2C70917D2C8091382C90911D
S1131510392C6E5F7F4F0E94EF048091052C9091CF
S1131520062CA091072CB091082CC816D906EA06FF
S1131530FB0640F4C092052CD092062CE092072CB6
S1131540F092082CCF91FF90EF90DF90CF90BF9056
S1131550AF909F908F90089500E21CE20F2EF0E56B
S1131560EF2EFCE2FF2EF02D80911F2C882349F1F1
S1131570F091A200FF93F87FF093A200D801179690
S1131580ED91FC911897C085D185CE0102960E94F9
S11315902C058091132C81508093132C80911F2C47
S11315A0815080931F2CFF91F093A2008B8D9C8D12
S11315B00E94B804CE010E94B80480911F2C8111AE
S11315C0D7CFF7018081823010F00E9417060E9465
S11315D08A16CACF4F925F926F927F928F929F9298
S11315E0AF92BF92CF92DF92EF92FF920F93CF937D
S11315F0DF934C016B015A012901CA010E94920434
S11316003C01892B09F4EFC08CE290E00E94920423
S1131610EC01892BB1F06B8E7C8EA50165EA70E03C
S1131620C3010E94E02321E0A21AB1088B8D9C8D96
S1131630A80EB91ED6018C918D8F8C91811105C095
S113164018C0C3010E94B804CEC0AE01425E5F4F11
S1131650F6013196B8E0CB0ED11CCF012191DA010D
S11316602D93AD01DC018C91882319F0EC15FD0557
S1131670A1F71CA2043008F003E00A8F6E01B2E067
S1131680CB0ED11CC6010E94CA04CE010E960E9444
S1131690CA04CA87DB8784E090E0A0E0B0E0801B46
S11316A09109A109B1098E879F87A88BB98BCE8B2D
S11316B0DF8B1FA218A619A61AA61BA6A201B401A5
S11316C0C5010E945A0588839983E114F10419F035
S11316D0F701C083D183F091A200FF93F87FF093C8
S11316E0A2008091132C8F5F8093132C80917C2C0B
S11316F090917D2C892BD1F5C0937C2CD0937D2C9B
S11317008091132C813009F041C080E59CE20E9455
S1131710B9048BE59CE20E94B90486E69CE20E942F
S1131720B90481E79CE20E94B90485E49CE20E942A
S1131730B9048AE39CE20E94B9048BE29CE20E9411
S1131740B90480E29CE20E94B90484E19CE20E9414
S1131750B90485E49CE28093382C9093392C8AE375
S11317609CE28093362C9093372C10C080910D2CE2
S113177081110CC0E0917C2CF0917D2C928D8A8D8E
S1131780891720F0C0937C2CD0937D2C8091092C58
S11317908F5F8093092C8DA38A8D90910E2C9817BE
S11317A010F480930E2CFBE08F9FC0011124B6012E
S11317B0805B934D0E94CE04FF91F093A200809130
S11317C00D2C882361F0E0917C2CF0917D2C928D7E
S11317D08A8D981730F40E94170681E005C081E0D5
S11317E003C081E001C08FEFDF91CF910F91FF9093
S11317F0EF90DF90CF90BF90AF909F908F907F90AD
S11318006F905F904F9008950F931F93CF93DF9342
S1131810EC01F091A200FF93F87FF093A200892BD2
S113182021F4C0917C2CD0917D2C8E010E5F1F4F32
S1131830C8010E942C05888D998D892B21F0CE0139
S11318400E960E942C058091092C8F5F8093092CA1
S113185080917C2C90917D2CC817D90759F4B8013C
S113186080E29CE20E94CE0480911F2C8F5F8093C3
S11318701F2C0EC08091132C81508093132C8B8DC0
S11318809C8D0E94B804CE010E94B8040E940B0AE9
S1131890FF91F093A20080910D2C882349F0809150
S11318A07C2C90917D2CC817D90711F40E9417063F
S11318B0DF91CF911F910F9108950F931F93CF93B1
S11318C0DF93009709F441C020917C2C30917D2C4A
S11318D08217930709F439C0F091A200FF93F87FAF
S11318E0F093A200FC012485358524513C4251F536
S11318F0FC01208D318DFCE22B323F0719F1232BA3
S113190009F5EC018C010E5F1F4FC8010E942C05E4
S11319108A8D90910E2C981710F480930E2C2BE046
S1131920829FC0011124B801805B934D0E94CE04B4
S1131930E0917C2CF0917D2C9A8D828D981710F07B
S11319400E941706FF91F093A200DF91CF911F919F
S11319500F910895EF92FF920F930F2EF3E0EF2E65
S1131960FCE2FF2EF02D00E020E030E048EC50E0F7
S113197060E070E28CEA9AE00E94EA0A813009F59C
S11319800E9472128130E9F4E0EAF0E08281887FFB
S113199082838FEF9FEFDC018093052C9093062CBC
S11319A0A093072CB093082C81E080930D2C109207
S11319B00F2C1092102C1092112C1092122C0E94A9
S11319C0D7050F91FF90EF9008958091022C8F5FBF
S11319D08093022C0895F091A200FF93F87FF09376
S11319E0A20060910F2C7091102C8091112C909179
S11319F0122CFF91F093A2000895AF92BF92CF9260
S1131A00DF92EF92FF920F931F93CF93DF93809116
S1131A10022C8111ADC0C0900F2CD090102CE090FE
S1131A20112CF090122C8FEFC81AD80AE80AF80A81
S1131A30C0920F2CD092102CE092112CF092122C08
S1131A40C114D104E104F104B9F48091382C9091CB
S1131A50392C2091362C3091372C2093382C30930C
S1131A60392C8093362C9093372C80910A2C8F5FDD
S1131A7080930A2C0E940B0A8091052C9091062CCD
S1131A80A091072CB091082CC816D906EA06FB06CB
S1131A9010F4B12C5CC0B12C0F2EFBE0AF2EF02D56
S1131AA0E091382CF091392C808181110CC08FEF9A
S1131AB09FEFDC018093052C9093062CA093072CB8
S1131AC0B093082C44C0E091382CF091392C078055
S1131AD0F085E02DC085D1858A819B81AC81BD8153
S1131AE0C816D906EA06FB0648F48093052C9093A1
S1131AF0062CA093072CB093082C29C08E010E5FEE
S1131B001F4FC8010E942C05888D998D892B21F0C7
S1131B10CE010E960E942C058A8D90910E2C98175A
S1131B2010F480930E2CA89EC0011124B801805B90
S1131B30934D0E94CE04E0917C2CF0917D2C9A8DE3
S1131B40828D981708F4ACCFBB24B394A9CFE0914D
S1131B507C2CF0917D2CE28D8BE0E89FF001112428
S1131B60E05BF34D8081823048F0BB24B39406C01F
S1131B7080910C2C8F5F80930C2CB12C80910B2CBA
S1131B80882311F0BB24B3948B2DDF91CF911F9147
S1131B900F91FF90EF90DF90CF90BF90AF9008959A
S1131BA0CF92DF92EF92FF920F931F93CF93DF9325
S1131BB0F091A200FF93F87FF093A2008091022C91
S1131BC081508093022C8091022C81115CC0809101
S1131BD0132C81112CC05AC0D7011796ED91FC919A
S1131BE01897C085D185CE010E960E942C058E01D2
S1131BF00E5F1F4FC8010E942C058A8D90910E2CF8
S1131C00981710F480930E2CD89EC0011124B801AB
S1131C10805B934D0E94CE04E0917C2CF0917D2C4E
S1131C209A8D828D981788F0C0920B2C0EC0C0E05C
S1131C30D0E00F2EFBE2EF2EFCE2FF2EF02D0F2E54
S1131C40FBE0DF2EF02DCC24C394F70180818111B9
S1131C50C3CFCD2B11F00E940B0AC0910C2CCC23C6
S1131C6051F0D1E00E94FD0C8111D0930B2CC15096
S1131C70C9F710920C2C80910B2C882331F00E9410
S1131C80170681E003C080E001C080E0FF91F0937B
S1131C90A200DF91CF911F910F91FF90EF90DF9001
S1131CA0CF900895CF92DF92EF92FF926B017C0167
S1131CB0672B682B692B59F00E94E50C40E0C701A3
S1131CC0B6010E94350A0E94D00D811102C00E9403
S1131CD01706FF90EF90DF90CF9008958091022C2B
S1131CE0882321F081E080930B2C089510920B2C13
S1131CF0E0917C2CF0917D2C038CF48DE02D80817F
S1131D009181A281B381853A954AA54AB54AD9F40D
S1131D1084819581A681B781853A954AA54AB54AB9
S1131D2091F480859185A285B385853A954AA54A23
S1131D30B54A49F484859585A685B785853A954A3B
S1131D40A54AB54A61F060917C2C70917D2C8091FC
S1131D507C2C90917D2C635E7F4F0E94F2028091D7
S1131D600E2C282F30E09BE0899FF0011124E05BCA
S1131D70F34D908191110EC04BE08150282F30E03B
S1131D80429FF001439FF00D1124E05BF34D9081DD
S1131D90992399F39BE0929FA001939F500D1124E6
S1131DA0DA01A05BB34D1196ED91FC91129704807A
S1131DB0F581E02D1196ED93FC9312974D5A534DF6
S1131DC0E417F50729F444815581FD0141835283C9
S1131DD09BE0929FF001939FF00D1124E05BF34D83
S1131DE00180F281E02D2085318520937C2C309375
S1131DF07D2C80930E2C08950F931F93CF93DF9324
S1131E00EC01F091A200FF93F87FF093A200892BDC
S1131E1021F4C0917C2CD0917D2C8E010E5F1F4F3C
S1131E20C8010E942C05888D998D892B21F0CE0143
S1131E300E960E942C05B80184E19CE20E94CE0417
S1131E408BA5813009F41BA6FF91F093A200809129
S1131E500D2C882359F0F091A200FF93F87FF093A2
S1131E60A2000E940B0AFF91F093A20080917C2CA7
S1131E7090917D2CC817D907A1F480910D2C88234B
S1131E8019F00E9417060DC09091142C8091132C08
S1131E90981305C010927C2C10927D2C02C00E94D5
S1131EA06E0EDF91CF911F910F910895CF92DF9223
S1131EB0EF92FF926A017B0160917C2C70917D2CE2
S1131EC0625F7F4F0E94EF0441E0C701B6010E94A8
S1131ED0350AFF90EF90DF90CF900895CF92DF9274
S1131EE0EF92FF920F931F9368017901E0917C2C8C
S1131EF0F0917D2C706846875787608B718B609159
S1131F007C2C70917D2C625F7F4F0E94CE0441E057
S1131F10C701B6010E94350A1F910F91FF90EF90FF
S1131F20DF90CF900895CF92DF92EF92FF92CF93FC
S1131F306A017B01C22F60917C2C70917D2C625FC1
S1131F407F4F0E94CE04CC2321F0CC24CA94DC2CF5
S1131F5076014C2FC701B6010E94350ACF91FF903C
S1131F60EF90DF90CF9008950F931F93CF93DF935B
S1131F70DC011796ED91FC911897C085D1858E01EF
S1131F80025F1F4FC8010E942C058091022C811111
S1131F9016C00C501109C8010E942C058A8D90911D
S1131FA00E2C981710F480930E2CBBE08B9FC0016D
S1131FB01124B801805B934D0E94CE0405C0B80182
S1131FC08BE29CE20E94CE04E0917C2CF0917D2C6B
S1131FD09A8D828D891720F481E080930B2C01C0A7
S1131FE080E0DF91CF911F910F9108950F931F937C
S1131FF0CF93DF937068FC014083518362837383C2
S1132000C085D1850E942C058E010E5F1F4FC8012B
S11320100E942C058A8D90910E2C981710F48093B1
S11320200E2CFBE08F9FC0011124B801805B934DFF
S11320300E94CE04E0917C2CF0917D2C9A8D828DAF
S1132040891718F481E080930B2CDF91CF911F91B5
S11320500F91089520910A2CFC01208340910F2CAC
S11320605091102C6091112C7091122C4183528349
S1132070638374830895CF92DF92EF92FF920F935C
S11320801F93CF93DF93DB01F091A200FF93F87FBE
S1132090F093A20040910F2C5091102C6091112CC0
S11320A07091122C0D911D912D913C9113970F3F1E
S11320B0CFEF1C072C073C0769F1FC01C180D280DB
S11320C0E380F480E0910A2CEC01F881FE1729F0FA
S11320D04C155D056E057F05F8F44C195D096E0914
S11320E07F09401751076207730768F4FD01041B59
S11320F0150B260B370B00831183228333830E9435
S11321002A1080E00AC01D921D921D921C92139702
S113211081E003C080E001C081E0FF91F093A20060
S1132120DF91CF911F910F91FF90EF90DF90CF90AF
S1132130089581E080930B2C089580910D2C8823C1
S113214031F08091022C882321F080E0089581E011
S1132150089582E00895CF92DF92EF92FF92E0918A
S11321607C2CF0917D2C6685778580899189E0911E
S11321707C2CF0917D2CA0917C2CB0917D2C5A96D6
S11321802C91C12CD12C76016894C2F8C21AD108C2
S1132190E108F108C686D786E08AF18AFF90EF90BD
S11321A0DF90CF9008954F925F926F927F928F92BB
S11321B09F92AF92BF92CF92DF92EF92FF920F93D2
S11321C01F9349015A01F091A200FF93F87FF09305
S11321D0A200E0917C2CF0917D2C23A5223041F1CA
S11321E0E0917C2CF0917D2C47A050A461A472A4B2
S11321F0DC01CB0180959095A095B0958421952123
S1132200A621B72187A390A7A1A7B2A7E0917C2C10
S1132210F0917D2C81E083A7C114D104E104F10481
S113222039F041E0C701B6010E94350A0E94170641
S1132230FF91F093A200F091A200FF93F87FF09336
S1132240A2000115110569F0E0917C2CF0917D2C20
S113225087A190A5A1A5B2A5F80180839183A2834B
S1132260B383E0917C2CF0917D2C83A58230B1F472
S1132270E0917C2CF0917D2C87A190A5A1A5B2A51D
S113228080949094A094B09488229922AA22BB228C
S113229087A290A6A1A6B2A681E001C080E0E09149
S11322A07C2CF0917D2C13A6FF91F093A2001F913A
S11322B00F91FF90EF90DF90CF90BF90AF909F90E1
S11322C08F907F906F905F904F900895CF92DF92A0
S11322D0EF92FF920F931F93CF93DF93DC01F09162
S11322E0A200FF93F87FF093A2000115110559F0A5
S11322F09796CD90DD90ED90FC909A97F801C0826E
S1132300D182E282F3829B968C919B9792E09B967A
S11323109C939B972230D1F018F4213031F036C0D1
S1132320233029F1243051F131C097960D911D913C
S11323302D913C919A97402B512B622B732B97969E
S11323404D935D936D937C939A9720C097964D918E
S11323505D916D917C919A974F5F5F4F6F4F7F4F67
S113236097964D935D936D937C939A970FC0979630
S11323704D935D936D937C939A9708C0823059F185
S113238097964D935D936D937C939A97813029F53D
S1132390ED018D010E5F1F4FC8010E942C058A8D2F
S11323A090910E2C981710F480930E2CFBE08F9FC5
S11323B0C0011124B801805B934D0E94CE04E091CA
S11323C07C2CF0917D2C9A8D828D891740F40E948B
S11323D0170681E005C080E003C081E001C081E010
S11323E0FF91F093A200DF91CF911F910F91FF9085
S11323F0EF90DF90CF900895CF92DF92EF92FF920B
S11324000F931F93FC0142835383648375838287F4
S113241093870417150726073707C0F00C191D0901
S11324202E093F0986859785A089B1890817190760
S11324302A073B0700F5BF016E5F7F4F8091862C12
S11324409091872C0E94EF0480E018C00C151D05A4
S11324502E053F0528F44C155D056E057F0568F4CF
S1132460BF016E5F7F4F8091882C9091892C0E94D0
S1132470EF0480E003C081E001C081E01F910F916F
S1132480FF90EF90DF90CF900895F091A200FF931A
S1132490F87FF093A2008091842C9091852C892B55
S11324A0E9F485E99CE20E94B9048AE89CE20E946E
S11324B0B90485E99CE28093882C9093892C8AE85E
S11324C09CE28093862C9093872C40E069E085E021
S11324D00E941C088093842C9093852CFF91F09388
S11324E0A2000895EF92FF920F930E9445128091EB
S11324F0842C9091852C892B91F00F2EF2E8EF2EED
S1132500FCE2FF2EF02D03E020E030E048EC50E048
S113251065E070E285E893E10E94EA0A01C080E088
S11325200F91FF90EF9008958F929F92AF92BF9278
S1132530CF92DF92EF92FF920F931F93CF93DF938B
S1132540CDB7DEB72997CDBFDEBFE091842CF091E3
S1132550852C309789F169832A833B834C835D837F
S11325608E839F836630FCF40E949D10823069F450
S113257000E0A7019601BE016F5F7F4F8091842C1C
S11325809091852C0E944D0818C000E020E030E0B6
S1132590A901BE016F5F7F4F8091842C9091852C9F
S11325A00E944D080AC020E0A801BE016F5F7F4F62
S11325B0CF010E94F30801C080E02996CDBFDEBFA1
S11325C0DF91CF911F910F91FF90EF90DF90CF900B
S11325D0BF90AF909F908F9008952F923F924F920B
S11325E05F926F927F928F929F92AF92BF92CF929F
S11325F0DF92EF92FF920F931F93CF93DF931C010F
S11326000E94EB0C2B013C0180917E2C90917F2C3D
S1132610A091802CB091812C481659066A067B063D
S113262008F054C03CC00780F085E02D8080918084
S1132630A280B380C085D1858E010E5F1F4FC80173
S11326400E942C05ED89FE89CE0119958A89813075
S113265031F58E859F85A889B989880D991DAA1D94
S1132660BB1D88169906AA06BB0670F48A839B8351
S1132670AC83BD83CA87DB87B8018091882C909195
S1132680892C0E94EF040BC0C12CD12C760100E0F0
S113269010E0A501940160E0CE010E949412E09143
S11326A0882CF091892C80818111BDCF8091862C5A
S11326B09091872C8093882C9093892CE093862C7E
S11326C0F093872C81E0F101808302C0F101108234
S11326D040927E2C50927F2C6092802C7092812CA0
S11326E0C301B201DF91CF911F910F91FF90EF9041
S11326F0DF90CF90BF90AF909F908F907F906F901E
S11327005F904F903F902F900895CF93DF93CDB774
S1132710DEB72E97CDBFDEBFCE0101961C01A82ED9
S1132720B32CE091882CF091892C8081882309F4C2
S113273003C10780F085E02D408051806280738062
S11327400E94E50CC1010E94ED126B877C878D8786
S11327509E87898181115EC08B859C85AD85BE85F0
S113276084159505A605B705E8F10E94D00DE09102
S1132770882CF091892C0780F085E02D8084918449
S1132780C40102960E942C05D40152968C91529752
S1132790813001F51E964D915D916D917C9151971B
S11327A0440D551D661D771D730162010B851C8543
S11327B02D853E85C4010E94FC11882359F0C12C4B
S11327C0D12C760100E010E0A301920160E0C40185
S11327D00E949412D4015596ED91FC915697C40130
S11327E019959CC020E0B301A2018B859C85AD8521
S11327F0BE85481B590B6A0B7B0B8091842C9091EE
S1132800852C0E94EA090E94D00D811187C00E9484
S1132810170684C00E94D00D81C0898188236CF47E
S11328204E815F8168857985EA81FB818C819D81F8
S11328301995898188230CF471C08E809F80D401FE
S11328401C968D919C911D97892B21F0C4010296B1
S11328500E942C05CE010A960E94ED128B019C0168
S11328608981082E000C990BAA0BBB0B8A309105A9
S113287008F054C0FC018827E250FF4F8F4F0C949E
S1132880EC22CA80DB80EC80FD80F401468557850C
S1132890608971894C0D5D1D6E1D7F1DC4010E94F0
S11328A0FC118823D9F1D4015596ED91FC915697EA
S11328B0C4011995F4018289813081F54A815B81D3
S11328C06C817D8186859785A089B1899A01AB0148
S11328D0280F391F4A1F5B1FC12CD12C760100E041
S11328E010E060E0C4010E94941218C04A815B8128
S11328F06C817D81D4011E964D935D936D937C9381
S11329005197400F511F621F731F68017901C40161
S11329100E94FC1103C0C4010E94B80420E030E00E
S1132920A9016A2D7B2D8091842C9091852C0E9485
S11329303809811172CFF5CE0E94E50CC1010E94C5
S1132940ED126B877C878D879E878981811162CF89
S1132950E091862CF091872C808121E0811120E088
S1132960412C512C32013FCF0F931F93CF93DF9310
S1132970CDB7DEB72997CDBFDEBFEEEFE9838A83FB
S11329809B836C837D832E833F834887598720E014
S1132990A801BE016F5F7F4F8091842C9091852C9C
S11329A00E94F3082996CDBFDEBFDF91CF911F911E
S11329B00F910895E0E5F0E080818160808381815A
S11329C080FFFDCF80E00E94C4028EE10E94B40229
S11329D060E080E00E94BE0243E060E080E40E9488
S11329E0A502E0E5F0E0808188608083818183FF37
S11329F0FDCF64E080EC0E94AF02E0E5F0E080816E
S1132A008061808360E080E00E94BE02E0E5F0E047
S1132A10818184FFFDCF84E00E94C40287E00E948C
S1132A20B4020895812C912C6894AA24A6F8BA2C97
S1132A300F2EC12CD12CF0E8EF2EFFE3FF2EF02D4A
S1132A40A501940160E070E080E89FE30E94801D8E
S1132A509B01AC01C701B6010E940E1D6B017C01F4
S1132A6020E030E040E050E4C501B4010E940F1DB5
S1132A704B015C019B01AC0160E070E080E89FE3E6
S1132A800E94801DA70196010E940F1D6B017C010D
S1132A9020E030E040E050E4C501B4010E940F1D85
S1132AA04B015C0120E030E040E850E4C701B6018E
S1132AB00E94DF1E6093A02C7093A12C8093A22C03
S1132AC09093A32C65E070E080E090E00E94520EA9
S1132AD0B7CFCF93DF93CDB7DEB72E97CDBFDEBF91
S1132AE00F2EFDE06F2EF0E27F2EF02D5E0125E02B
S1132AF0A20EB11C0F2EF0E18F2EF0E29F2EF02DCE
S1132B000E943A198091A32C8F938091A22C8F93C9
S1132B108091A12C8F938091A02C8F937F926F92A0
S1132B20BF92AF920E945324BF92AF929F928F9212
S1132B301F921F921F921F920E944519C12CD12CE3
S1132B4076018E010F5F1F4F2FEF3FEF4FEF5FE0D6
S1132B5060E070E0CB010E94D3108981CDBFDEBF5D
S1132B6080FF1AC08091D52C9091D62C009791F4B7
S1132B700F2EF5EDEF2EFCE2FF2EF02D01E020E00C
S1132B8030E042ED50E066E170E282E195E10E94BE
S1132B90EA0A02C00E945D0C898181FF06C080910F
S1132BA0D52C9091D62C0E94FC0E898182FF0AC0FC
S1132BB08091D52C9091D62C0E94040C1092D52C87
S1132BC01092D62C64EF71E080E090E00E94520EE7
S1132BD097CF0E94CA0168EB7BE080E090E00E94FE
S1132BE0520E0E94D50180E00E947A02813069F47D
S1132BF000E010E023E041E050E060E070E080910C
S1132C00D12C9091D22C0E94661181E00E947A020C
S1132C10813069F400E010E023E042E050E060E03D
S1132C2070E08091D12C9091D22C0E94661182E0A8
S1132C300E947A02813069F400E010E023E044E06D
S1132C4050E060E070E08091D12C9091D22C0E94F1
S1132C50661183E00E947A02813069F400E010E09A
S1132C6023E048E050E060E070E08091D12C909146
S1132C70D22C0E94661180E00E947A0281110DC05C
S1132C8000E010E023E040E150E060E070E080917B
S1132C90D12C9091D22C0E94661181E00E947A027C
S1132CA081110DC000E010E023E040E250E060E05C
S1132CB070E08091D12C9091D22C0E94661182E018
S1132CC00E947A0281110DC000E010E023E040E48C
S1132CD050E060E070E08091D12C9091D22C0E9461
S1132CE0661183E00E947A0281110DC000E010E0B9
S1132CF023E040E850E060E070E08091D12C9091B6
S1132D00D22C0E9466116AE070E080E090E00E949C
S1132D10520E67CF0895EF92FF920F930E94E81C22
S1132D200E94DA140E94BE170F2EF3EDEF2EFCE280
S1132D30FF2EF02D02E020E030E048EC50E06EE1A0
S1132D4070E289EE95E10E94EA0A0F2EF1EDEF2E72
S1132D50FCE2FF2EF02D20E030E042ED50E069E28D
S1132D6070E289E695E10E94EA0A0E94AA0C80E0DA
S1132D7090E00F91FF90EF9008951F920F920FB67D
S1132D800F9211240BB60F922F933F934F935F939F
S1132D906F937F938F939F93AF93BF93EF93FF931F
S1132DA0CF93DF931F92CDB7DEB719829E012F5FB9
S1132DB03F4F41E050E060E070E08091D92C909169
S1132DC0DA2C0E94850460E080E09BE00E94D90236
S1132DD01092060B0F90DF91CF91FF91EF91BF916D
S1132DE0AF919F918F917F916F915F914F913F919F
S1132DF02F910F900BBE0F900FBE0F901F90189540
S1132E00CF92DF92EF92FF920F936B017C0182E0ED
S1132E10C816D104E104F10408F44EC0E0E0FBE07C
S1132E2081E0868310A211A260E080E09BE00E9412
S1132E30DF028EEFC8168FEFD806E104F10470F4B8
S1132E40F694E794D794C794C092260BD092270B9C
S1132E5065E080E09BE00E94D90219C080E4C816B6
S1132E6082E4D8068FE0E806F10488F4689414F844
S1132E70F694E794D794C7941694D1F7C092260B8E
S1132E80D092270B67E080E09BE00E94D9020F2ECE
S1132E90F4EFCF2EDD24D394E12CF12CF02D00E0BF
S1132EA021E041E050E060E070E08091D92C909105
S1132EB0DA2C0E940A0311C0E0E0FBE081E0868383
S1132EC010A211A260E080E09BE00E94DF02C12C0E
S1132ED0D12C76016894C1F8B3CF0F91FF90EF9095
S1132EE0DF90CF9008958295807FE0E0F6E09481B2
S1132EF0282F2F60922394839481892B84830895AF
S1132F001F93CF93DF93C0E6D6E014E01D8361E006
S1132F1070E080E090E00E9400171E83DF91CF9163
S1132F201F910895CF93C82F82958F700E947317B5
S1132F30E0E6F6E081E0868382E086830E948017E3
S1132F408C2F8F700E9473170E948017CF91089561
S1132F50CF93C82F82958F700E947317E0E6F6E036
S1132F6081E0858382E086830E9480178C2F8F7096
S1132F700E9473170E948017CF910895EF92FF92D9
S1132F800F93E0E0F6E080E1818380E2818380E4D6
S1132F90818380E88183A0E6B6E081E011968C937A
S1132FA0119782E011968C93119784E011968C937B
S1132FB0119784818F70848314968C911497887FE1
S1132FC014968C9340E066E188E00E941C0880938C
S1132FD0D72C9093D82C0E94F5028093D92C9093EF
S1132FE0DA2CE12CF12C01E020E030E04EE551E058
S1132FF064E370E28CE598E10E94EA0A0F91FF9085
S1133000EF9008958130910579F01CF4892B39F003
S113301019C08230910569F0039781F013C080E8EC
S1133020860F0E9492170EC080EC860F0E949217A2
S113303009C084E9860F0E94921704C084ED860FAC
S11330400E94921767E270E080E090E00E9400170F
S113305008950E94A8176BE270E080E090E00E945F
S1133060001708950F931F93CF93DF93FC01808182
S113307081110AC011C08991882371F00E94291816
S11330800C171D07C1F708C08F010E942918E80119
S113309021960C5E1F4FEFCFDF91CF911F910F91BF
S11330A00895CF93DF93EA010E940218CE010E9493
S11330B03218DF91CF910895CF93DF93CDB7DEB768
S11330C0C656D109CDBFDEBF5E0141E5A40EB11CD9
S11330D0FE01319620E208C02193E817F907E1F7D1
S11330E0FC01A816B90619F0CF014496F5CF60E4A7
S11330F07CE980E090E00E94001783E00E9473174F
S113310068E873E180E090E00E9400170E94801755
S113311060EA70E080E090E00E9400170E9480174F
S113312060EA70E080E090E00E9400170E9480173F
S113313060EA70E080E090E00E94001782E00E9464
S113314073170E94801788E20E94921780E10E9400
S113315092178CE00E94921786E00E94921710E268
S11331606E0151E5C50ED11C0F2EF4E14F2EF02D4A
S11331700F2EF6E18F2E912CF02D5C2C0D2D68EC8A
S113318070E080E090E00E94520E40E050E0BA010E
S11331908091D92C9091DA2C0E94CF03672B682B55
S11331A0692B09F449C042E050E060E070E080918E
S11331B0D92C9091DA2C0E94CF03FE01319608C0DD
S11331C01193E817F907E1F7FC018A159B05A1F1B2
S11331D0CF014496F5CF2FEF3FEFA901652D702F56
S11331E08091D72C9091D82C0E943809882321F102
S11331F0F6012181822F90E04497F4F482818823A0
S1133200D9F0908130E0D901499EA00DB11D11245F
S113321041E050E04C0F5D1FA40FB51F3396A4018D
S1133220421B530B9A012C0D3D1D8D93E217F3079E
S113323019F081918111F9CF8091D72C9091D82CDC
S11332400E94DE098111C7CFCE0101967C01612C59
S1133250712CA70160E070E0C3010E9451189FEF38
S1133260691A790AE4E1EE0EF11CF4E06F167104B8
S113327081F785CF42E050E060E070E08091D92C86
S11332809091DA2C0E94F00308952F923F924F926E
S11332905F926F927F928F929F92AF92BF92CF92E2
S11332A0DF92EF92FF920F931F93CF93DF93CDB7EB
S11332B0DEB76D97CDBFDEBF2BA92B8FAFA9B8ADFD
S11332C07E0139E3E30EF11C2CEC3CE2E8EBFCE27A
S11332D01192E217F307E1F70F2EF4EAAF2EFCE2A6
S11332E0BF2EF02D28EB3CE2F5011192E217F30713
S11332F0E1F7812C912C0F2EF8EBCF2EFCE2DF2E80
S1133300F02DFCC2853209F0E8C22D0182E0480E9E
S1133310511C11968C91853609F4DBC138F483363F
S1133320C1F008F048C0853251F0E7C28337F9F0A4
S1133330883709F468C0863609F0DFC28CC0F4010E
S1133340EC55F34D95E29083AFEF8A1A9A0AD201B5
S1133350D5C2F401EC55F34DD7018C918083BFEFB6
S11333608B1A9B0AF70132967F01D201C7C2A701CB
S11333704E5F5F4FD7018D919C919C01B401F40184
S1133380EC55F34D00E010E006C0D901FD909D011D
S1133390F1920F5F1F4FDC010D900020E9F71197A8
S11333A0A81BB90B0A171B0780F34D01860E971E45
S11333B07A01D201A3C287010E5F1F4F4AE0B60112
S11333C0F701808191810E94F2239401D401AC55CC
S11333D0B34D48EB5CE280E090E005C0FA016191F6
S11333E0AF016D930196F60101900020E9F7319742
S11333F0E85BFC428E179F0788F34F01820E931EF1
S11334007801D2017BC287010E5F1F4F40E1B601F4
S1133410D7018D919C910E94F2239401F401EC5503
S1133420F34D48EB5CE280E090E005C0DA016D9179
S1133430AD0161930196D6010D900020E9F7119733
S1133440A85BBC428A179B0788F34D01820E931E2A
S11334507801D20153C21701B4E02B0E311CD701FD
S11334608D919D910D90BC91A02D8F8B988FA98FDC
S1133470BA8F20E030E0A901BC01CD010E947B1D80
S1133480811105C020E3F6012083118204C120E0EC
S113349030E0A9016F89788D898D9A8D0E947B1DFA
S11334A088239CF4EDE2D601EC938F89988DA98D45
S11334B0BA8DB0588F8B988FA98FBA8F0F2EF9EBD6
S11334C06F2EFCE27F2EF02D01C0360120E030E0AB
S11334D040E85FE36F89788D898D9A8D0E94DA1EAA
S11334E088230CF444C200E010E020E030E040E225
S11334F051E46F89788D898D9A8D0E94801D6F8B20
S1133500788F898F9A8F0F5F1F4F20E030E040E85B
S11335105FE30E94DA1E882344F72DEC3CEC4CEC6C
S11335205DE36F89788D898D9A8D0E947B1D882338
S11335301CF01AC000E010E020E030E040E251E46A
S11335406F89788D898D9A8D0E94DF1E6F8B788F9D
S1133550898F9A8F015011092DEC3CEC4CEC5DE302
S11335600E947B1D882344F310161106ACF57301E9
S1133570D301A00FB11FAC8FBD8F3D016F89788D32
S1133580898D9A8D20E030E040E251E40E94DF1EF4
S11335906F8B788F898F9A8F0E94F21D20E3260FFC
S11335A0F70121937F01072E000C880B990B0E94D1
S11335B02A1E9B01AC016F89788D898D9A8D0E949A
S11335C00E1DE614F704F1F66F8B788F898F9A8FAE
S11335D00115110589F4DBC1C801E0E3D301EC93C3
S11335E07301F2E0EF0EF11C2EE211962C93992355
S11335F06CF000E010E01FC0EC8CFD8C3FEFE31A90
S1133600F30AEEE2AC8DBD8DEC9312C000E010E045
S1133610FFEFEF1AFF0AF701319720E320830197A8
S11336200F5F1F4F992324F4043011058CF331C02C
S11336300430110574F5370184E090E0801B910B90
S1133640E80EF91E87016F89788D898D9A8D20E0A7
S113365030E040E251E40E94DF1E6F8B788F898F47
S11336609A8F0E94F21D20E3260FD3012D933D0172
S1133670072E000C880B990B0E942A1E9B01AC019B
S11336806F89788D898D9A8D0E940E1D6016710642
S1133690F1F6F70110829401F401EC55F34D48EB77
S11336A05CE280E090E005C0DA016D91AD016193C8
S11336B00196D6010D900020E9F71197A85BBC4252
S11336C08A179B0788F34D01820E931E7101D20164
S11336D015C11701B4E02B0E311CD7018D919D91BA
S11336E00D90BC91A02D8F8B988FA98FBA8F20E05D
S11336F030E0A901BC01CD010E947B1D811105C0F0
S113370020E3F60120831182CAC020E030E0A90141
S11337106F89788D898D9A8D0E947B1D88239CF4F6
S1133720EDE2D601EC938F89988DA98DBA8DB058AE
S11337308F8B988FA98FBA8F0F2EF9EB6F2EFCE227
S11337407F2EF02D01C0360120E030E040E85FE339
S11337506F89788D898D9A8D0E94DA1E8823DCF01A
S113376000E010E020E030E040E251E46F89788D21
S1133770898D9A8D0E94801D6F8B788F898F9A8F87
S11337800F5F1F4F20E030E040E85FE30E94DA1E45
S1133790882344F702C000E010E02DEC3CEC4CEC34
S11337A05DE36F89788D898D9A8D0E947B1D8823B6
S11337B0C4F420E030E040E251E46F89788D898DD3
S11337C09A8D0E94DF1E6F8B788F898F9A8F01509C
S11337D011092DEC3CEC4CEC5DE30E947B1D88232D
S11337E044F320E030E040E251E46F89788D898D24
S11337F09A8D0E94DF1E6F8B788F898F9A8F0E941B
S1133800F21D20E3260FD3012C93072E000C880B06
S1133810990B0E942A1E9B01AC016F89788D898DBA
S11338209A8D0E940E1DF8013197EC8FFD8FEEE208
S1133830D3011196EC9383010E5F1F4F7301F6E0E1
S1133840EF0EF11C20E030E040E251E40E94DF1E64
S11338506F8B788F898F9A8F0E94F21D20E3260F39
S1133860D8012D938D01072E000C880B990B0E9413
S11338702A1E9B01AC016F89788D898D9A8D0E94D7
S11338800E1D0E151F05F1F625E6F3012683B3017F
S1133890695F7F4F4AE08C8D9D8D0E94F2239401D5
S11338A0F401EC55F34D48EB5CE280E090E005C098
S11338B0DA016D91AD0161930196D6010D9000205E
S11338C0E9F71197A85BBC428A179B0788F34D015F
S11338D0820E931E7101D20111C08A3029F0F401C5
S11338E0EC55F34D808304C0F401EC55F34D108284
S11338F01196EFEF8E1A9E0A01C0D2018C918111AC
S113390001CD8DA99EA9880D991D44973CF084E1B1
S113391090E04C012DA93EA9821A930AFE01339628
S1133920CE014796DF011D92A817B907E1F73B8D39
S113393039838DA98A83181419045CF4CE01880D87
S1133940991D0396D5012D915D0121938E179F0733
S1133950C9F700E02FEF3FEFA901BE016F5F7F4F72
S11339608091D72C9091D82C0E944D081BC02DEC2F
S11339703CEC4CEC5DE36F89788D898D9A8D0E94C7
S11339807B1D88230CF4D6CD80E090E026CE20E386
S1133990EC8DFD8D20837F0132E0E30EF11C8EE27D
S11339A0818346CE6D96CDBFDEBFDF91CF911F914F
S11339B00F91FF90EF90DF90CF90BF90AF909F90CA
S11339C08F907F906F905F904F903F902F900895CD
S11339D08091780085FF05C080E28093780081E0C3
S11339E008958091780080FF05C081E0809378007D
S11339F082E008958091780084FF05C080E180937F
S1133A00780083E008958091780081FF05C082E00A
S1133A108093780084E0089582E008955058BB278D
S1133A20AA270E94261D0C94A01E0E94921E38F004
S1133A300E94991E20F039F49F3F19F426F40C9447
S1133A408F1E0EF4E095E7FB0C94891EE92F0E946B
S1133A50B11E58F3BA17620773078407950720F05D
S1133A6079F4A6F50C94D31E0EF4E0950B2EBA2F20
S1133A70A02D0B01B90190010C01CA01A001112470
S1133A80FF27591B99F0593F50F4503E68F11A161C
S1133A90F040A22F232F342F4427585FF3CF4695AD
S1133AA037952795A795F0405395C9F77EF41F16CF
S1133AB0BA0B620B730B840BBAF09150A1F0FF0F99
S1133AC0BB1F661F771F881FC2F70EC0BA0F621F85
S1133AD0731F841F48F4879577956795B795F79575
S1133AE09E3F08F0B0CF9395880F08F09927EE0F0A
S1133AF09795879508950E94651E08F481E00895BE
S1133B000E94941D0C94A01E0E94991E58F00E94BD
S1133B10921E40F029F45F3F29F00C94891E511144
S1133B200C94D41E0C948F1E0E94B11E68F399232A
S1133B30B1F3552391F3951B550BBB27AA276217A5
S1133B407307840738F09F5F5F4F220F331F441FB2
S1133B50AA1FA9F335D00E2E3AF0E0E832D09150E6
S1133B605040E695001CCAF72BD0FE2F29D0660FD3
S1133B70771F881FBB1F261737074807AB07B0E816
S1133B8009F0BB0B802DBF01FF2793585F4F3AF01C
S1133B909E3F510578F00C94891E0C94D41E5F3F0F
S1133BA0E4F3983ED4F3869577956795B795F795A2
S1133BB09F5FC9F7880F911D9695879597F908958A
S1133BC0E1E0660F771F881FBB1F62177307840726
S1133BD0BA0720F0621B730B840BBA0BEE1F88F735
S1133BE0E09508950E94F91D6894B1110C94D41EB7
S1133BF008950E94B91E88F09F5798F0B92F99270D
S1133C00B751B0F0E1F0660F771F881F991F1AF0C3
S1133C10BA95C9F714C0B13091F00E94D31EB1E037
S1133C2008950C94D31E672F782F8827B85F39F036
S1133C30B93FCCF3869577956795B395D9F73EF45C
S1133C4090958095709561957F4F8F4F9F4F089504
S1133C50E89409C097FB3EF4909580957095619522
S1133C607F4F8F4F9F4F9923A9F0F92F96E9BB27D8
S1133C709395F695879577956795B795F111F8CF54
S1133C80FAF4BB0F11F460FF1BC06F5F7F4F8F4FBF
S1133C909F4F16C0882311F096E911C0772321F0B5
S1133CA09EE8872F762F05C0662371F096E8862F4D
S1133CB070E060E02AF09A95660F771F881FDAF7A4
S1133CC0880F9695879597F90895990F0008550FD1
S1133CD0AA0BE0E8FEEF16161706E807F907C0F08E
S1133CE012161306E407F50798F0621B730B840B96
S1133CF0950B39F40A2661F0232B242B252B21F470
S1133D0008950A2609F4A140A6958FEF811D811D0F
S1133D10089597F99F6780E870E060E008959FEF49
S1133D2080EC089500240A9416161706180609064E
S1133D30089500240A94121613061406050608951D
S1133D40092E0394000C11F4882352F0BB0F40F4A5
S1133D50BF2B11F460FF04C06F5F7F4F8F4F9F4FE5
S1133D60089557FD9058440F551F59F05F3F71F067
S1133D704795880F97FB991F61F09F3F79F08795CE
S1133D800895121613061406551FF2CF4695F1DF57
S1133D9008C0161617061806991FF1CF86957105E7
S1133DA0610508940895E894BB2766277727CB011B
S1133DB097F908950E94651E08F48FEF08950E94F4
S1133DC0F21E0C94A01E0E94921E38F00E94991EAE
S1133DD020F0952311F00C94891E0C948F1E11244D
S1133DE00C94D41E0E94B11E70F3959FC1F3950FDD
S1133DF050E0551F629FF001729FBB27F00DB11D6B
S1133E00639FAA27F00DB11DAA1F649F6627B00DFA
S1133E10A11D661F829F2227B00DA11D621F739FE3
S1133E20B00DA11D621F839FA00D611D221F749FF1
S1133E303327A00D611D231F849F600D211D822F38
S1133E40762F6A2F11249F5750409AF0F1F088235F
S1133E504AF0EE0FFF1FBB1F661F771F881F91508C
S1133E605040A9F79E3F510580F00C94891E0C9494
S1133E70D41E5F3FE4F3983ED4F386957795679517
S1133E80B795F795E7959F5FC1F7FE2B880F911DB6
S1133E909695879597F908952F923F924F925F9246
S1133EA06F927F928F929F92AF92BF92CF92DF9246
S1133EB0EF92FF920F931F93CF93DF93CDB7DEB7AB
S1133EC06097CDBFDEBF7C011B016A01FC01168235
S1133ED01782838181FF44C39E012F5F3F4F3901C5
S1133EE0F7019381F10193FD859193FF81911F0166
S1133EF0882309F431C3853239F493FD859193FF06
S1133F0081911F01853239F4B70190E00E94172492
S1133F1056016501E5CF10E0512C912CFFE1F91514
S1133F20D8F08B3279F038F4803279F08332A1F40E
S1133F30F92DF0612EC08D3261F0803369F4292DA2
S1133F4021602DC0392D3260932E892D8460982EE6
S1133F502AC0E92DE86015C097FC2DC020ED280F7C
S1133F602A3088F496FE06C03AE0139F200D1124EF
S1133F70122F19C08AE0589E200D1124522EE92DCB
S1133F80E0629E2E10C08E3231F496FCE5C2F92D0B
S1133F90F0649F2E08C08C3621F4292D2068922EBF
S1133FA002C0883641F4F10193FD859193FF81911C
S1133FB01F018111B3CF9BEB980F933020F4992DFF
S1133FC09061805E07C09BE9980F933008F066C14A
S1133FD0992D9F7E96FF16E09F73992E853619F4CE
S1133FE09064992E08C0863621F4392F3068932EB8
S1133FF002C01111115097FE07C01C3350F4442421
S11340004394410E27E00BC0183038F027E017E046
S113401005C027E09CE3492E02C0212F412C560104
S113402084E0A80EB11CF6016081718182819381C4
S1134030042DA3010E94F4226C01F981FC87F0FF96
S113404002C0F3FF06C091FC06C092FE06C000E267
S113405005C00DE203C00BE201C000E08C858C704A
S113406019F001115AC29BC297FE10C04C0CFC857A
S1134070F4FF04C08A81813309F44A94141474F55A
S113408028E0241578F588E0482E2CC096FC2AC038
S1134090812F90E08C159D059CF03CEFC3163FEFFB
S11340A0D30674F0892D8068982E0AC0E2E0F0E00F
S11340B0EC0FFD1FE10FF11D8081803319F41150C5
S11340C01111F4CF97FE0EC044244394410E812F66
S11340D090E0C816D9062CF41C1904C04424439457
S11340E001C010E097FE06C01C141D0434F4C60180
S11340F0019605C085E090E002C081E090E00111E6
S11341000196112331F0212F30E02F5F3F4F820FB2
S1134110931F252D30E08217930714F4581A01C019
S1134120512C892D897049F4552039F0B70180E26A
S113413090E00E9417245A94F7CF002329F0B70186
S1134140802F90E00E94172493FC09C0552039F079
S1134150B70180E390E00E9417245A94F7CF97FEAA
S11341604CC04601D7FE02C0812C912CC60188198F
S11341709909F301E80FF91FED87FE8796012419C9
S113418031092F87388B012F10E011950195110902
S11341903FEF8316930629F4B7018EE290E00E9464
S11341A01724C814D9044CF08F859889881599056B
S11341B024F4ED85FE85818101C080E3F1E08F1A4E
S11341C091082D853E852F5F3F4F2D873E878016B2
S11341D091062CF0B70190E00E941724D9CFC8149F
S11341E0D90441F49A81963320F4953319F43C852B
S11341F034FF81E3B70190E04EC08A81813319F026
S11342009C859F7E9C87B70190E00E941724111122
S113421005C094FC18C085E690E017C0B7018EE293
S113422090E00E9417241E5F82E001E0080FF30172
S1134230E80FF11D8081B70190E00E941724802FC0
S11342400113F3CFE6CF85E490E0B7010E94172471
S1134250D7FC06C0C114D10441F4EC85E4FF05C0C9
S1134260D194C194D1088DE201C08BE2B70190E0F2
S11342700E94172480E32AE0C216D1042CF08F5F39
S1134280FAE0CF1AD108F7CFB70190E00E941724C3
S1134290B701C601C0960E94172454C1833631F079
S11342A0833779F0833509F056C020C0560132E0D7
S11342B0A30EB11CF6018081898301E010E0630143
S11342C012C05601F2E0AF0EB11CF601C080D180DD
S11342D096FE03C0612F70E002C06FEF7FEFC6014E
S11342E00E94E7238C01F92DFF7714C0560122E0C8
S11342F0A20EB11CF601C080D18096FE03C0612FCE
S113430070E002C06FEF7FEFC6010E94CC238C01E6
S1134310F92DF0689F2EF3FD1AC0852D90E0081743
S11343201907A8F4B70180E290E00E9417245A9478
S1134330F4CFF60197FC859197FE81916F01B70147
S113434090E00E94172451105A940150110901154C
S1134350110579F7F7C0843611F0893661F55601F5
S113436097FE09C024E0A20EB11CF60160817181A0
S1134370828193810AC0F2E0AF0EB11CF601608124
S11343807181072E000C880B990BF92DFF769F2E57
S113439097FF09C090958095709561957F4F8F4FD9
S11343A09F4FF0689F2E2AE030E0A3010E947C24F6
S11343B0C82EC6183FC0092D853721F40F7E2AE088
S11343C030E01DC0097F8F3691F018F4883559F01C
S11343D0C3C0803719F0883711F0BEC0006104FFF4
S11343E009C0046007C094FE08C0066006C028E047
S11343F030E005C020E130E002C020E132E05601A7
S113440007FF09C084E0A80EB11CF6016081718128
S11344108281938108C0F2E0AF0EB11CF601608185
S1134420718180E090E0A3010E947C24C82EC6180C
S11344300F77902E96FE0BC0092D0E7FC11650F4F7
S113444094FE0AC092FC08C0092D0E7E05C0DC2C27
S1134450092D03C0DC2C01C0D12E04FF0DC0FE01C8
S1134460EC0DF11D8081803311F4097E09C002FF37
S113447006C0D394D39404C0802F867809F0D394D3
S113448003FD11C000FF06C01C2DD51480F4150DCA
S11344901D190DC0D51458F4B70180E290E00E94B4
S11344A01724D394F7CFD51410F45D1801C0512C00
S11344B004FF10C0B70180E390E00E94172402FFBC
S11344C017C001FD03C088E790E002C088E590E0D2
S11344D0B7010CC0802F867859F001FF02C08BE22F
S11344E001C080E207FD8DE2B70190E00E9417242D
S11344F0C11638F4B70180E390E00E9417241150EC
S1134500F7CFCA94F301EC0DF11D8081B70190E05F
S11345100E941724C110F5CF15C0F4E0F51560F51D
S113452084E0581A93FE1FC0011127C02C8523FF75
S11345302AC00CE312E0392D3071932EF8018491D6
S1134540811124C0552009F4E4CCB70180E290E045
S11345500E9417245A94F6CFF7018681978126C0CA
S11345608FEF9FEF23C0B70180E290E00E941724F1
S11345705A945110F8CFD8CF512CB701802F90E026
S11345800E941724D3CF00E412E0D5CF91108052BB
S1134590B70190E00E9417240F5F1F4FCFCF23E095
S11345A0251510F483E0BDCF512CC0CF6096CDBF4C
S11345B0DEBFDF91CF911F910F91FF90EF90DF90BD
S11345C0CF90BF90AF909F908F907F906F905F90AF
S11345D04F903F902F900895EE0FFF1F881F8BBFC1
S11345E00790F691E02D1994283008F027E033273E
S11345F0DA01990F311D87FD9160009661057105FF
S113460039F432602E5F3D9330E32A95E1F7089543
S11346109F3F30F080387105610509F03C5F3C5FD5
S11346203D93913008F08068911DDF93CF931F93E1
S11346300F93FF92EF92192F987F9695E92F9695F5
S11346409695E90FFF27E256FD4F99273327EE246D
S1134650FF24A701E70105900894079428F4360F76
S1134660E71EF81E491F511D660F771F881F991FEB
S11346700694A1F70590079428F4E70EF81E491F45
S1134680561FC11D770F881F991F661F0694A1F737
S11346900590079428F4F80E491F561FC71FD11D13
S11346A0880F991F661F771F0694A1F7059007943A
S11346B020F4490F561FC71FD81F990F661F771F75
S11346C0881F0694A9F784911095177041F0D69528
S11346D0C79557954795F794E7941A95C1F7E4E47D
S11346E0F2E0689415901591359165919591059036
S11346F07FE27395E118F10A430B560BC90BD009FD
S1134700C0F7E10CF11E431F561FC91FD01D7EF4D4
S1134710703311F48A95E6CFE894015030F0080F15
S11347200AF40027021708F4202F2395022F7A3366
S113473028F079E37D932A95E9F710C07D932A95B3
S113474089F6069497956795379517951794E11808
S1134750F10A430B560BC90BD00998F023957E91AF
S113476073957A3308F070E37C932013B8F77E9145
S113477070617D9330F0839571E37D9370E32A95A6
S1134780E1F71124EF90FF900F911F91CF91DF91EA
S1134790992787FD90950895FC010590615070401C
S11347A00110D8F7809590958E0F9F1F0895FB01F7
S11347B0DC0102C001900D9241505040D8F7089599
S11347C0DC0101C06D9341505040E0F70895FC01B5
S11347D06150704001900110D8F7809590958E0F2C
S11347E09F1F0895BB274A3031F4992322F4BDE278
S11347F0909581959F4F0C94FE23BB27FB01552771
S1134800AA27880F991FAA1FA41710F0A41B839529
S11348105051B9F7A05DAA3308F0A95DA1930097A0
S113482079F7B111B1931192CB010C94DA240F935F
S11348301F93CF93DF93FB01238121FD03C08FEFEF
S11348409FEF2CC022FF16C04681578124813581F9
S11348504217530744F4A081B1819D012F5F3F4F5C
S1134860208331838C93268137812F5F3F4F2683AA
S1134870378314C08B01EC01FB010084F185E02D2A
S11348801995892BE1F6D80116968D919C9117976D
S1134890019616968D939C931797CE01DF91CF9135
S11348A01F910F9108950F931F93CF93DF93CDB76B
S11348B0DEB72E97CDBFDEBF0E891F8986E08C83BD
S11348C009831A838FEF9FE78D839E83AE01465E33
S11348D05F4F688D798DCE0101960E944C1FEF8148
S11348E0F885E00FF11F10822E96CDBFDEBFDF9159
S11348F0CF911F910F910895FA01AA27283051F101
S1134900203181F1E8946F936E7F6E5F7F4F8F4FFC
S11349109F4FAF4FB1E03ED0B4E03CD0670F781F5B
S1134920891F9A1FA11D680F791F8A1F911DA11D40
S11349306A0F711D811D911DA11D20D009F4689479
S11349403F912AE0269F11243019305D3193DEF621
S1134950CF010895462F4770405D4193B3E00FD0D7
S1134960C9F7F6CF462F4F70405D4A3318F0495DC2
S113497031FD4052419302D0A9F7EACFB4E0A695A5
S11349809795879577956795BA95C9F700976105C7
S1134990710508959B01AC010A2E0694579547951D
S11349A037952795BA95C9F7620F731F841F951F12
S11349B0A01D0895DC01FC01672F71917723E1F7B5
S11349C0329704C07C916D9370836291AE17BF07D8
S10B49D0C8F30895F894FFCF29
S11349D849444C4500546D722053766300256600A3
S11349E850693D2573004C6569626E697A004275A9
S11349F874746F6E5461736B005374657565725487
S1134A0861736B0064697370557064617465000048
S9030000FC
