S016000043616C63756C6174696E675F50692E737265638F
S11300000C94E2010C940C020C940C020C940C025F
S11300100C940C020C940C020C940C020C940C0224
S11300200C940C020C940C020C940C020C940C0214
S11300300C940C020C940C020C946D0C0C940C0299
S11300400C940C020C940C020C940C020C940C02F4
S11300500C94A1280C940C020C940C020C940C0229
S11300600C940C020C940C020C940C020C940C02D4
S11300700C940C020C940C020C940C020C940C02C4
S11300800C940C020C940C020C940C020C940C02B4
S11300900C940C020C940C020C940C020C940C02A4
S11300A00C940C020C940C020C940C020C940C0294
S11300B00C940C020C940C020C940C020C940C0284
S11300C00C940C020C940C020C940C020C940C0274
S11300D00C940C020C940C020C940C020C940C0264
S11300E00C940C020C940C020C940C020C940C0254
S11300F00C940C020C940C020C940C020C940C0244
S11301000C940C020C940C020C940C020C940C0233
S11301100C940C020C940C020C940C020C940C0223
S11301200C940C020C940C020C940C020C940C0213
S11301300C940C020C940C020C940C020C940C0203
S11301400C940C020C940C020C940C020C940C02F3
S11301500C940C020C940C020C940C020C940C02E3
S11301600C940C020C940C020C940C020C940C02D3
S11301700C940C020C940C020C940C020C940C02C3
S11301800C940C020C940C020C940C020C940C02B3
S11301900C940C020C940C020C940C020C940C02A3
S11301A00C940C020C940C020C940C020C940C0293
S11301B00C949A290C940C020C940C020C940C02CE
S11301C00C940C020C940C020C940C020C940C0273
S11301D00C940C020C940C020C940C020C940C0263
S11301E00C940C020C940C020C940C020C940C0253
S11301F00C940C020C940C020C940C02FA20FA20BD
S1130200FA2081214D217B21FA20FA2081214D21E0
S113021007634236B79BD8A71A39685618AEBAABEB
S1130220558C1D3CB7CC5763BD6DEDFD753EF6177F
S11302307231BF000000803F08000000BE922449D4
S1130240123EABAAAA2ABECDCCCC4C3E0000008004
S1130250BEABAAAAAA3E00000000BF000000803F77
S11302600000000000084178D3BB4387D1133D1937
S11302700E3CC3BD4282AD2B3E68EC8276BED98F64
S1130280E1A93E4C80EFFFBE01C4FF7F3F000000A8
S113029000000C942D2C0C9439260C9481210C9480
S11302A0DC1E0C94A5230C94FA200C94DD240C94ED
S11302B05E190C94F5280C947B210C944D210C941C
S11302C04B076E616E00696E660000407A10F35A47
S11302D000A0724E18090010A5D4E80000E8764882
S11302E0170000E40B54020000CA9A3B000000E12E
S11302F0F505000080969800000040420F000000C1
S1130300A08601000000102700000000E8030000A0
S113031000006400000000000A000000000001006A
S1130320000000002C76D888DC674F0823DFC1DF8B
S1130330AE59E1B1B796E5E3E453C63AE65199768E
S113034096E8E6C28426EB898C9B62ED407C6FFCC8
S1130350EFBC9C9F40F2BAA56FA5F490055A2AF70A
S11303605C936B6CF9676DC11BFCE0E40D47FEF513
S113037020E6B500D0ED902E03009435770500807B
S1130380841E080000204E0A000000C80C333333DA
S1130390330F986E12831141EF8D2114893BE6557A
S11303A016CFFEE6DB18D1844B381BF77C1D901D5D
S11303B0A4BBE424203284725E228100C9F124ECBF
S11303C0A1E53D2711241FBECFEFCDBFDFE3DEBF84
S11303D000E00CBFE3E0FDE28AEA90E48193E030C0
S11303E0F907E0F3000010E2A0E0B0E2E8EBF8E780
S11303F000E00BBF02C007900D92A835B107D9F7F2
S11304002DE2A8E5B0E201C01D92A330B207E1F7E6
S11304100E942C230C945A3C0C940000CF93DF933D
S1130420CDB7DEB780EA96E020E1FC01228380EAC2
S113043096E020E2FC01228380EA96E020E4FC01BD
S1130440228380EA96E020E8FC0122830000DF9109
S1130450CF910895CF93DF93CDB7DEB780EA96E0CE
S1130460FC018085882F90E0807199279595879568
S1130470959587959595879595958795892B89F475
S1130480809158209091592080369A4E20F5809181
S11304905820909159200196809358209093592088
S11304A01AC080915820909159200B9768F0809140
S11304B0582090915920C39718F01092EC2C07C043
S11304C081E08093EC2C03C082E08093EC2C1092AA
S11304D058201092592080EA96E0FC018085882FEC
S11304E090E0807299279595879595958795959530
S11304F087959595879595958795892B89F480910E
S11305005A2090915B2080369A4E20F580915A2093
S113051090915B20019680935A2090935B201AC09F
S113052080915A2090915B200B9768F080915A201B
S113053090915B20C39718F01092ED2C07C081E0D6
S11305408093ED2C03C082E08093ED2C10925A200E
S113055010925B2080EA96E0FC018085882F90E071
S113056080749927082E892F000C881F990B000C82
S1130570881F991F892B89F480915C2090915D20BC
S113058080369A4E20F580915C2090915D200196F2
S113059080935C2090935D201AC080915C209091A0
S11305A05D200B9768F080915C2090915D20C3974B
S11305B018F01092EE2C07C081E08093EE2C03C05B
S11305C082E08093EE2C10925C2010925D2080EAF1
S11305D096E0FC01808588238CF080915E209091C8
S11305E05F2080369A4E20F580915E2090915F20A6
S11305F0019680935E2090935F201AC080915E20C4
S113060090915F200B9768F080915E2090915F201D
S1130610C39718F01092EF2C07C081E08093EF2C61
S113062003C082E08093EF2C10925E2010925F2032
S11306300000DF91CF910895CF93DF931F92CDB740
S1130640DEB789838981882F90E08130910579F024
S1130650823091051CF4892B39F012C08230910547
S113066049F0039751F00CC08091EC2C0AC08091A2
S1130670ED2C07C08091EE2C04C08091EF2C01C0BA
S113068082E00F90DF91CF9108950F93CF93DF9382
S113069000D000D0CDB7DEB78C839D836E838FE30B
S11306A090E0FC0180818B83F8948C819D81898307
S11306B09A838BE390E0FC01108289819A812E81D8
S11306C0FC0108ED04BF20838FE390E02B81FC0143
S11306D0208300002696CDBFDEBFDF91CF910F911E
S11306E00895CF93DF9300D0CDB7DEB789836A83B3
S11306F04B8380E590E02A81222311F020E201C09F
S113070020E03981322B2B81232BFC012283000032
S11307102396CDBFDEBFDF91CF910895CF93DF93B2
S11307201F921F92CDB7DEB789836A838A818F7146
S11307308A8380E590E039812A81232BFC0125837B
S113074000000F900F90DF91CF910895CF93DF9326
S11307501F921F92CDB7DEB78A8380E590E020E533
S113076030E0F9012081322F2A8120952323FC01D6
S1130770208380E590E0FC0190818A81892389832C
S113078089810F900F90DF91CF910895CF93DF93DC
S113079000D0CDB7DEB78A836B839A818B81892B96
S11307A08983698181E490E00E94450300002396D7
S11307B0CDBFDEBFDF91CF910895CF93DF931F921A
S11307C01F92CDB7DEB78A8380E490E0FC0180817C
S11307D0982F987F8A81892B8983698180E490E0AE
S11307E00E94450380E490E0FC0190818A81892382
S11307F0898389810F900F90DF91CF910895CF93D2
S1130800DF9300D0CDB7DEB789839A836B83898168
S11308109A81FC018081982F907F8B81892B282FCE
S113082089819A81FC01208300002396CDBFDEBF1D
S1130830DF91CF910895CF93DF9300D0CDB7DEB78A
S113084089839A836B8389819A81FC018181982FA2
S1130850987F8B81892B282F89819A81FC012183A0
S113086000002396CDBFDEBFDF91CF910895CF93D3
S1130870DF9300D0CDB7DEB789839A836B838981F8
S11308809A81FC018681982F9C7F8B81892B282F4C
S113089089819A81FC01268300002396CDBFDEBFA7
S11308A0DF91CF910895CF93DF9300D01F92CDB7FE
S11308B0DEB789839A836B837C838BE20E9467040F
S11308C000002496CDBFDEBFDF91CF910895CF9372
S11308D0DF931F921F92CDB7DEB78A838A818B3252
S11308E019F481E089830EC08A818C3219F482E084
S11308F0898308C08A818F3219F483E0898302C016
S113090084E089830E948A0400000F900F90DF9195
S1130910CF910895CF93DF93CDB7DEB7000084E382
S113092090E028EDFC01208388E790E021E0FC01C1
S113093021830000DF91CF910895CF93DF931F921D
S11309401F92CDB7DEB780E190E00E94DA07898379
S11309509A8389819A81892B61F089819A81FC012A
S1130960108211821282138289819A8104960E94D4
S11309702C0889819A810F900F90DF91CF9108956F
S1130980CF92DF92EF92FF920F931F93CF93DF9357
S1130990CDB7DEB76D97CDBFDEBF8A8B9B8B4C8BFB
S11309A05D8B6E8B7F8B288F098FCA8EDB8EEC8ECE
S11309B0FD8E8A899B8989879A871D821E821F8260
S11309C018861B860E94771489859A85FC0180818C
S11309D09181A281B3818C879D87AE87BF872C8943
S11309E03D894E895F898C859D85AE85BF85098D3E
S11309F0BC01CD010E946907888B8889882359F13D
S1130A008C859D85AE85BF8589839A83AB83BC83A2
S1130A101A8E1B8E1C8E1D8E888D882309F465C04A
S1130A2089859A85FC0120813181428153818C8999
S1130A309D89AE89BF8980959095A095B0958223B4
S1130A409323A423B52329853A85F90180839183CF
S1130A50A283B3834AC08A8D9B8DAC8DBD8D892BB7
S1130A608A2B8B2B59F48C859D85AE85BF85898314
S1130A709A83AB83BC8381E08B8737C0888D8823BE
S1130A8049F08D819E81AF81B885B1608D839E834D
S1130A90AF83B887898D882349F08D819E81AF818A
S1130AA0B885B4608D839E83AF83B8872C893D89D4
S1130AB04E895F898D819E81AF81B885822B932B6E
S1130AC0A42BB52B29853A85F90134962A8D3B8DC3
S1130AD04C8D5D8D89019A01AC01BD01CF010E944D
S1130AE04A1719821A821B821C820E948414898BE1
S1130AF08A8D9B8DAC8DBD8D892B8A2B8B2B09F414
S1130B0065C08989882311F40E94C30B0E94531A7B
S1130B10DC01CB0189839A83AB83BC8389819A816D
S1130B20AB81BC8188279927AA27B270892B8A2B8D
S1130B308B2B09F042C0F091A200FF93F87FF09351
S1130B40A20089859A85FC0180819181A281B3816B
S1130B5089839A83AB83BC832C893D894E895F89C1
S1130B6089819A81AB81BC81098DBC01CD010E9430
S1130B7069078823E9F0888D8823D1F089859A85CF
S1130B80FC0120813181428153818C899D89AE8908
S1130B90BF8980959095A095B09582239323A42333
S1130BA0B52329853A85F90180839183A283B38390
S1130BB081E08B87FF91F093A20089819A81AB81B8
S1130BC0BC81BB2789839A83AB83BC8389819A8147
S1130BD0AB81BC81BC01CD016D96CDBFDEBFDF9181
S1130BE0CF911F910F91FF90EF90DF90CF900895D8
S1130BF0CF93DF93CDB7DEB72C97CDBFDEBF8F8306
S1130C00988749875A876B877C878F8198858983E2
S1130C109A83F091A200FF93F87FF093A200898158
S1130C209A81FC0180819181A281B3818B839C8311
S1130C30AD83BE8389819A81FC0120813181428107
S1130C40538189859A85AB85BC8580959095A095BF
S1130C50B09582239323A423B52329813A81F901F2
S1130C6080839183A283B383FF91F093A2008B814D
S1130C709C81AD81BE81BC01CD012C96CDBFDEBF70
S1130C80DF91CF910895CF93DF93CDB7DEB76D9702
S1130C90CDBFDEBF888F998F4A8F5B8F6C8F7D8F1E
S1130CA01B821C821D821E82888D998D888799875C
S1130CB01F828885998504968A879B878A859B8568
S1130CC003968C879D870E9477148A859B85FC01F7
S1130CD08781908589839A8388859985FC01208101
S1130CE03181428153818A8D9B8DAC8DBD8D822B48
S1130CF0932BA42BB52B28853985F9018083918307
S1130D00A283B38395C089819A81FC0184819581F2
S1130D108E879F8789819A81FC0180819181A2813C
S1130D20B381888B998BAA8BBB8B1F828889998905
S1130D30AA89BB8988279927AA278C8B9D8BAE8B80
S1130D40BF8B88899989AA89BB89BB27888B998B92
S1130D50AA8BBB8B8C899D89AE89BF8988279927EB
S1130D60AA27B470892B8A2B8B2BB1F4888599859B
S1130D70FC01208131814281538188899989AA8922
S1130D80BB8982239323A423B523892B8A2B8B2B02
S1130D90E9F081E08F831AC088859985FC01208160
S1130DA031814281538188899989AA89BB89282301
S1130DB039234A235B2388899989AA89BB892817FF
S1130DC039074A075B0711F481E08F838F818823F9
S1130DD059F18C899D89AE89BF8988279927AA27CB
S1130DE0B170892B8A2B8B2B81F02B813C814D8117
S1130DF05E8188899989AA89BB89822B932BA42B2C
S1130E00B52B8B839C83AD83BE8388859985FC0138
S1130E1080819181A281B381B26029813A81AC0140
S1130E20BD01C9010E9425188E859F8589839A83F7
S1130E3029813A818C859D852817390709F063CF6C
S1130E4088859985FC0120813181428153818B8180
S1130E509C81AD81BE8180959095A095B0958223AB
S1130E609323A423B52328853985F90180839183AD
S1130E70A283B3830E94841488859985FC018081B0
S1130E809181A281B381BC01CD016D96CDBFDEBF3E
S1130E90DF91CF910895CF93DF9300D000D0CDB7E9
S1130EA0DEB789839A834B835C836D837E838B81D6
S1130EB09C81AD81BE8129813A81AC01BD01C9010A
S1130EC00E94430600002696CDBFDEBFDF91CF917E
S1130ED008950F93CF93DF93CDB7DEB72A97CDBF95
S1130EE0DEBF6A837B838C839D832E833F83488705
S1130EF059870A8719828A85882399F42A813B8134
S1130F004C815D818E819F81A885B985822393233D
S1130F10A423B523892B8A2B8B2BD1F081E08983E1
S1130F2017C02A813B814C815D818E819F81A88578
S1130F30B985282339234A235B238E819F81A88581
S1130F40B985281739074A075B0711F481E08983BB
S1130F5089812A96CDBFDEBFDF91CF910F9108958D
S1130F600F931F93CF93DF93CDB7DEB72997CDBFF0
S1130F70DEBF8A839B834C835D836E837F83288754
S1130F803987288539858C819D81AE81BF816A81AD
S1130F907B8189019C01AD018BE497E00E948B2247
S1130FA0898389812996CDBFDEBFDF91CF911F91BF
S1130FB00F910895CF93DF9300D01F92CDB7DEB782
S1130FC08B839C8319821A820E9477142091182C97
S1130FD03091192C8B819C81820F931F883B9B40FD
S1130FE018F52091182C3091192C8B819C81280F95
S1130FF0391F8091182C9091192C82179307A0F413
S11310008091182C9091192C805A9F4D89839A8332
S11310102091182C3091192C8B819C81820F931F65
S11310208093182C9093192C0E94841489819A819E
S11310302496CDBFDEBFDF91CF910895CF93DF9388
S11310401F921F92CDB7DEB789839A8300000F9059
S11310500F90DF91CF910895CF93DF931F921F924A
S1131060CDB7DEB789839A8389819A819C012D5FEC
S11310703F4F89819A81FC012183328329813A81FE
S11310808FEF9FEFDC01F90183839483A583B683FB
S113109089819A819C012D5F3F4F89819A81FC014E
S11310A02783308789819A819C012D5F3F4F8981F5
S11310B09A81FC012187328789819A81FC011082FF
S11310C000000F900F90DF91CF910895CF93DF939D
S11310D01F921F92CDB7DEB789839A8389819A8143
S11310E0FC011286138600000F900F90DF91CF91C0
S11310F00895CF93DF9300D000D0CDB7DEB78B83B4
S11311009C836D837E838B819C81FC018181928190
S113111089839A838D819E8129813A81FC0124836C
S1131120358389819A81FC01268137818D819E8155
S1131130FC012683378389819A81FC01868197810A
S11311402D813E81FC012483358389819A812D81FF
S11311503E81FC01268337838D819E812B813C81D6
S1131160FC01228733878B819C81FC01808121E0F3
S1131170280F8B819C81FC01208300002696CDBF23
S1131180DEBFDF91CF910895CF93DF93CDB7DEB764
S11311902A97CDBFDEBF8F83988769877A87898531
S11311A09A85FC0180819181A281B3818B839C8388
S11311B0AD83BE838B819C81AD81BE818F3F9F4F68
S11311C0AF4FBF4F41F48F819885FC018185928593
S11311D089839A8320C08F819885039689839A8313
S11311E007C089819A81FC018481958189839A83CE
S11311F089819A81FC0184819581FC01208131815E
S1131200428153818B819C81AD81BE81821793077A
S1131210A407B50730F789819A81FC0124813581BF
S113122089859A85FC012483358389859A85FC0107
S11312308481958129853A85FC01268337838985B4
S11312409A8529813A81FC012683378389819A8191
S113125029853A85FC012483358389859A852F81E4
S11312603885FC01228733878F819885FC01808132
S113127021E0280F8F819885FC01208300002A96A5
S1131280CDBFDEBFDF91CF910895CF93DF9300D020
S11312901F92CDB7DEB78B839C838B819C81FC012D
S11312A08285938589839A838B819C81FC018481C7
S11312B095812B813C81F90126813781FC012683AC
S11312C037838B819C81FC01868197812B813C81B2
S11312D0F90124813581FC012483358389819A8134
S11312E0FC01218132818B819C812817390751F4BB
S11312F08B819C81FC012681378189819A81FC0143
S1131300218332838B819C81FC011286138689811F
S11313109A81FC0180812FEF280F89819A81FC0139
S1131320208389819A81FC0180812496CDBFDEBF10
S1131330DF91CF9108951F93CF93DF93CDB7DEB79D
S113134080EA90E0FC01128180EA90E020EA30E03B
S1131350F9012281287FFC012283812FDF91CF9123
S11313601F910895CF93DF93CDB7DEB72A97CDBFF2
S1131370DEBF8D839E836F83788749875A878D81EB
S11313809E8121E1FC0120838D819E8101978D83C3
S11313909E838D819E8122E2FC0120838D819E812A
S11313A001978D839E838D819E8123E3FC0120839D
S11313B08D819E8101978D839E838F819885CC0139
S11313C0A0E0B0E089839A83AB83BC8329818D81BB
S11313D09E81FC0120838D819E8101978D839E8354
S11313E089819A81AB81BC81892F9A2FAB2FBB272E
S11313F089839A83AB83BC8329818D819E81FC017F
S113140020838D819E8101978D839E8389819A811A
S1131410AB81BC81892F9A2FAB2FBB2789839A83F9
S1131420AB83BC8329818D819E81FC0120838D81C6
S11314309E8101978D839E838D819E8121E3FC0192
S113144020838D819E8101978D839E838D819E81D2
S113145020E8FC0120838D819E8101978D839E83EA
S11314608D819E8127E8FC0120838D819E810197D7
S11314708D839E838D819E81FC0110828D819E814E
S113148001978D839E838D819E81FC0110828D81C5
S11314909E8101978D839E838D819E8122E0FC0134
S11314A020838D819E8101978D839E838D819E8172
S11314B023E0FC0120838D819E8101978D839E838F
S11314C08D819E8124E0FC0120838D819E81019782
S11314D08D839E838D819E8125E0FC0120838D81F7
S11314E09E8101978D839E838D819E8126E0FC01E0
S11314F020838D819E8101978D839E838D819E8122
S113150027E0FC0120838D819E8101978D839E833A
S11315108D819E8128E0FC0120838D819E8101972D
S11315208D839E838D819E8129E0FC0120838D81A2
S11315309E8101978D839E838D819E8120E1FC0194
S113154020838D819E8101978D839E838D819E81D1
S113155021E1FC0120838D819E8101978D839E83EF
S11315608D819E8122E1FC0120838D819E810197E2
S11315708D839E838D819E8123E1FC0120838D8157
S11315809E8101978D839E838D819E8124E1FC0140
S113159020838D819E8101978D839E838D819E8181
S11315A025E1FC0120838D819E8101978D839E839B
S11315B08D819E8126E1FC0120838D819E8101978E
S11315C08D839E838D819E8127E1FC0120838D8103
S11315D09E8101978D839E838D819E8128E1FC01EC
S11315E020838D819E8101978D839E838D819E8131
S11315F029E1FC0120838D819E8101978D839E8347
S11316008D819E8120E2FC0120838D819E81019742
S11316108D839E838D819E8121E2FC0120838D81B7
S11316209E8101978D839E838D819E8122E2FC01A0
S113163020838D819E8101978D839E838D819E81E0
S113164023E2FC0120838D819E8101978D839E83FB
S113165089859A85CC01A0E0B0E089839A83AB8325
S1131660BC8329818D819E81FC0120838D819E8193
S113167001978D839E8389819A81AB81BC81892F57
S11316809A2FAB2FBB2789839A83AB83BC83298191
S11316908D819E81FC0120838D819E8101978D83A4
S11316A09E838D819E8126E2FC0120838D819E8113
S11316B001978D839E838D819E8127E2FC01208387
S11316C08D819E8101978D839E838D819E8128E2E9
S11316D0FC0120838D819E8101978D839E838D8162
S11316E09E8129E2FC0120838D819E8101978D8357
S11316F09E838D819E8120E3FC0120838D819E81C8
S113170001978D839E838D819E812A96CDBFDEBFF6
S1131710DF91CF910895CF93DF93CDB7DEB70E94C9
S1131720D20CA0911A2CB0911B2C0D900DBE0D90D3
S11317300EBEEF91DF91CF91BF91AF919F918F91A9
S11317407F916F915F914F913F912F911F910F91D5
S1131750FF90EF90DF90CF90BF90AF909F908F90CD
S11317607F906F905F904F903F902F901F900F90BD
S1131770FF91F093A200FF91FFBFFF91089581E0D4
S1131780DF91CF910895FF93FFB7FF93F091A200EB
S1131790FF93F87FF093A2000F921F9211242F92CF
S11317A03F924F925F926F927F928F929F92AF92ED
S11317B0BF92CF92DF92EF92FF920F931F932F93DA
S11317C03F934F935F936F937F938F939F93AF93C5
S11317D0BF93CF93DF93EF93A0911A2CB0911B2C5E
S11317E00DB60D920EB60D920E945216A0911A2CAF
S11317F0B0911B2C0D900DBE0D900EBEEF91DF919C
S1131800CF91BF91AF919F918F917F916F915F9194
S11318104F913F912F911F910F91FF90EF90DF9087
S1131820CF90BF90AF909F908F907F906F905F907C
S11318304F903F902F901F900F90FF91F093A20034
S1131840FF91FFBFFF91089500001F93CF93DF9393
S11318501F92CDB7DEB789838091F02C982F8981B0
S1131860892B8093F02C80EA90E0FC018081813008
S113187061F080EA90E0FC018081823031F080EAFE
S113188090E0FC018081843079F48091F02C8823ED
S113189059F00E949B09182F1092F02C0E945216A6
S11318A080EA90E0FC01128300000F90DF91CF9159
S11318B01F9108951F93CF93DF93CDB7DEB70E9496
S11318C09B09182F0E94421580EA90E0FC011283C4
S11318D00000DF91CF911F910895FF93FFB7FF930D
S11318E0F091A200FF93F87FF093A2000F921F9251
S11318F011242F923F924F925F926F927F928F9218
S11319009F92AF92BF92CF92DF92EF92FF920F938A
S11319101F932F933F934F935F936F937F938F9373
S11319209F93AF93BF93CF93DF93EF93A0911A2C20
S1131930B0911B2C0DB60D920EB60D920E945A0C4E
S113194081E00E94250CA0911A2CB0911B2C0D90C3
S11319500DBE0D900EBEEF91DF91CF91BF91AF916F
S11319609F918F917F916F915F914F913F912F91B3
S11319701F910F91FF90EF90DF90CF90BF90AF90A9
S11319809F908F907F906F905F904F903F902F909B
S11319901F900F90FF91F093A200FF91FFBFFF9162
S11319A018950000CF93DF9300D01F92CDB7DEB718
S11319B080E09DE7A0E0B0E089839A83AB83BC8399
S11319C089819A81AB81BC81689415F8B695A795F5
S11319D0979587951694D1F789839A83AB83BC83B3
S11319E089819A81AB81BC810197A109B10989835D
S11319F09A83AB83BC8380E098E029813A81FC011F
S1131A0026A337A365E080E098E00E94FF0361E02D
S1131A1080E098E00E94370400002496CDBFDEBF2A
S1131A20DF91CF910895CF93DF93CDB7DEB725979C
S1131A30CDBFDEBF8B839C836D838B819C81898327
S1131A409A83F091A200FF93F87FF093A20089811A
S1131A509A81FC018081918129813A81F901278D44
S1131A60422F50E029813A81F90120A1222F30E050
S1131A70429FB001439F700D529F700D11249B0132
S1131A80280F391F89819A81FC012283338389813C
S1131A909A81FC01168E89819A81FC012081318111
S1131AA089819A81FC012483358389819A81FC018F
S1131AB08081918129813A81F901278D222F30E09B
S1131AC0A9014150510929813A81F90120A1222F0C
S1131AD030E0429FB001439F700D529F700D11245E
S1131AE09B01280F391F89819A81FC012683378342
S1131AF089819A812FEFFC0121A389819A812FEF9B
S1131B00FC0122A38D81882381F489819A81FC01BF
S1131B1080858823A1F089819A8108960E94BD1747
S1131B20882369F00E94C30B0AC089819A810896B0
S1131B300E942C0889819A8143960E942C08FF9167
S1131B40F093A20081E02596CDBFDEBFDF91CF9157
S1131B5008950F931F93CF93DF93CDB7DEB72997E3
S1131B60CDBFDEBF8F83688749878885882319F4B2
S1131B7019821A820FC08F81482F50E08885282F40
S1131B8030E0429FC001439F900D529F900D11245D
S1131B9089839A8389819A8185960E94DA078B8347
S1131BA09C838B819C81892B81F08B819C81859680
S1131BB08D839E832B813C818D819E818901298522
S1131BC0AC0168858F810E94EF0D8B819C812996E1
S1131BD0CDBFDEBFDF91CF911F910F9108950F9379
S1131BE01F93CF93DF93CDB7DEB72797CDBFDEBF6B
S1131BF089836A834B835C832D830E831F838A814D
S1131C00882341F48E819F812E813F81FC012083B2
S1131C10318307C08E819F812B813C81FC0120830D
S1131C2031838E819F812981FC01278F8E819F8141
S1131C302A81FC0120A38E819F8161E00E94130D03
S1131C408E819F812D81FC0124A300002796CDBFA6
S1131C50DEBFDF91CF911F910F9108950F93CF9322
S1131C60DF93CDB7DEB76297CDBFDEBF8A879B8790
S1131C706C877D872E873F87488B598B0A8B198207
S1131C808A859B858A839B83F091A200FF93F87FCA
S1131C90F093A2008A819B81FC01268D8A819B811D
S1131CA0FC01878D281718F08A89823019F52C8554
S1131CB03D858A819B814A89B9010E942C108C83BD
S1131CC08A819B81FC018389882351F08A819B81CD
S1131CD043960E94BD17882341F00E94C30B05C0A0
S1131CE08C81882311F00E94C30BFF91F093A20012
S1131CF081E06FC08E859F85A889B989892B8A2B3D
S1131D008B2B29F4FF91F093A20080E062C08981BB
S1131D10882331F4CE0105960E94881881E08983D6
S1131D20FF91F093A2000E947714F091A200FF9318
S1131D30F87FF093A2008A819B81FC0181A18F3FEF
S1131D4021F48A819B81FC0111A28A819B81FC017F
S1131D5082A18F3F21F48A819B81FC0112A2FF9111
S1131D60F093A2009E01225F3F4FCE010596B90178
S1131D700E94AB18882331F58A819B810E94B71198
S1131D808823C9F08E859F85A889B9892A813B81DA
S1131D90285F3F4FAC01BD01C9010E9422178A810F
S1131DA09B810E9431110E948414882309F06CCF16
S1131DB00E94C30B69CF8A819B810E9431110E94CA
S1131DC0841462CF8A819B810E9431110E94841401
S1131DD080E06296CDBFDEBFDF91CF910F91089571
S1131DE0CF93DF93CDB7DEB72C97CDBFDEBF8E8305
S1131DF09F83688779874A875B872C878E819F8139
S1131E008A839B830E949B098C838A819B81FC012A
S1131E10268D8A819B81FC01878D281718F08C857B
S1131E20823089F58A819B81FC0182A18D8328857A
S1131E3039858A819B814C85B9010E942C108D8142
S1131E408F3FB9F48A819B81FC0183898823C1F087
S1131E508A819B8143960E94BD17882389F08A85D5
S1131E609B85892B69F08A859B8521E0FC01208371
S1131E7007C08D818F5F282F8A819B81FC0122A35B
S1131E8081E0898301C0198280EA90E02C81FC0101
S1131E90228389812C96CDBFDEBFDF91CF91089537
S1131EA0CF93DF93CDB7DEB76197CDBFDEBF8A870F
S1131EB09B876C877D872E873F87488B598B198238
S1131EC08A859B858A839B83F091A200FF93F87F88
S1131ED0F093A2008A819B81FC01868D8C838C8186
S1131EE0882311F12C853D858A819B81B9010E944B
S1131EF0E1108C812FEF280F8A819B81FC01268FB2
S1131F008A819B81FC018085882349F08A819B8199
S1131F1008960E94BD17882311F00E94C30BFF91FD
S1131F20F093A20081E076C08E859F85A889B98947
S1131F30892B8A2B8B2B29F4FF91F093A20080E04C
S1131F4069C08981882331F4CE0105960E948818DE
S1131F5081E08983FF91F093A2000E947714F091AD
S1131F60A200FF93F87FF093A2008A819B81FC0179
S1131F7081A18F3F21F48A819B81FC0111A28A8176
S1131F809B81FC0182A18F3F21F48A819B81FC010A
S1131F9012A2FF91F093A2009E01225F3F4FCE0157
S1131FA00596B9010E94AB18882331F58A819B817B
S1131FB00E9496118823C9F08E859F85A889B989C6
S1131FC02A813B812D5E3F4FAC01BD01C9010E94B6
S1131FD022178A819B810E9431110E9484148823D4
S1131FE009F072CF0E94C30B6FCF8A819B810E943C
S1131FF031110E94841468CF8A819B810E9431111F
S11320000E9484148A819B810E949611882309F47A
S11320105BCF80E06196CDBFDEBFDF91CF910895A5
S1132020CF93DF9300D0CDB7DEB78A839B83F09143
S1132030A200FF93F87FF093A2008A819B81FC01A8
S1132040868D8983FF91F093A20089812396CDBF69
S1132050DEBFDF91CF910895CF93DF93CDB7DEB785
S11320602797CDBFDEBF8B839C836D837E834F8395
S11320701A828B819C81FC01868D89838B819C8152
S1132080FC0180A1882309F48EC08F818823D9F5AF
S11320908B819C81FC0180A1482F50E08B819C8125
S11320A0FC01848195812D813E81B9010E94333BDD
S11320B08B819C81FC01248135818B819C81FC0175
S11320C080A1882F90E0280F391F8B819C81FC010F
S11320D0248335838B819C81FC01248135818B8110
S11320E09C81FC01828193812817390708F45BC025
S11320F08B819C81FC01208131818B819C81FC013D
S11321002483358350C08B819C81FC0180A1482F9E
S113211050E08B819C81FC01868197812D813E81D9
S1132120B9010E94333B8B819C81FC01268137815C
S11321308B819C81FC0180A1882F90E091958195F1
S11321409109280F391F8B819C81FC0126833783D9
S11321508B819C81FC01268137818B819C81FC01D0
S11321608081918128173907A8F48B819C81FC0117
S1132170228133818B819C81FC0180A1882F90E096
S1132180919581959109280F391F8B819C81FC01C0
S1132190268337838F81823031F48981882319F033
S11321A0898181508983898121E0280F8B819C81D9
S11321B0FC01268F8A812796CDBFDEBFDF91CF91A8
S11321C00895CF93DF9300D01F92CDB7DEB78983F4
S11321D09A836B837C8389819A81FC0180A1882303
S11321E0C9F189819A81FC012681378189819A818B
S11321F0FC0180A1882F90E0280F391F89819A81E2
S1132200FC012683378389819A81FC0126813781E9
S113221089819A81FC01828193812817390750F0C2
S113222089819A81FC012081318189819A81FC0113
S11322302683378389819A81FC0180A1482F50E04D
S113224089819A81FC01268137818B819C81B90126
S11322500E94333B00002496CDBFDEBFDF91CF91B7
S11322600895CF93DF9300D01F92CDB7DEB78B8351
S11322709C83F091A200FF93F87FF093A2008B81DE
S11322809C81FC0182A1898312C08B819C81FC0109
S11322908389882381F08B819C8143960E94BD179A
S11322A0882311F00E94531989818150898389817F
S11322B018165CF301C000008B819C812FEFFC0198
S11322C022A3FF91F093A200F091A200FF93F87F64
S11322D0F093A2008B819C81FC0181A18A8312C0AE
S11322E08B819C81FC018085882381F08B819C817A
S11322F008960E94BD17882311F00E9453198A8101
S113230081508A838A8118165CF301C000008B8196
S11323109C812FEFFC0121A3FF91F093A200000008
S11323202496CDBFDEBFDF91CF910895CF93DF9385
S113233000D0CDB7DEB78A839B83F091A200FF93D0
S1132340F87FF093A2008A819B81FC01868D88230B
S113235019F481E0898301C01982FF91F093A200EE
S113236089812396CDBFDEBFDF91CF910895CF93AE
S1132370DF9300D0CDB7DEB78A839B83F091A200B0
S1132380FF93F87FF093A2008A819B81FC01268D44
S11323908A819B81FC01878D281719F481E0898348
S11323A001C01982FF91F093A20089812396CDBFC9
S11323B0DEBFDF91CF910895CF93DF93CDB7DEB722
S11323C02997CDBFDEBF8B839C834D835E836F8350
S11323D0788729878B819C8189839A83F091A200D5
S11323E0FF93F87FF093A20089819A81FC0181A177
S11323F08F3F21F489819A81FC0111A289819A81FC
S1132400FC0182A18F3F21F489819A81FC0112A2EF
S1132410FF91F093A20089819A81FC01868D882323
S113242071F489819A81FC0173968D819E81AF81BB
S1132430B8852985AC01BD01CF010E948917898126
S11324409A810E94311100002996CDBFDEBFDF9131
S1132450CF9108958F929F92AF92BF92CF92DF92C5
S1132460EF92FF920F931F93CF93DF93CDB7DEB715
S11324706097CDBFDEBF8E839F83688779874A8745
S11324805B872C873D870E87EF86F88A8A859B8534
S11324900E94DA078C839D838C819D81892BB9F0FE
S11324A08CE290E00E94DA0789839A8389819A8179
S11324B0892B41F089819A812C813D81FC01238FF4
S11324C0348F07C08C819D810E941E0802C019822E
S11324D01A8289819A81892B09F18A859B85CC018D
S11324E0A0E0B0E009811A814F8558892C853D858B
S11324F068857985EE81FF81812C912C58016A01D0
S1132500EE8489019C01AD01CF010E94A112898151
S11325109A810E94771381E08B8302C08FEF8B83B3
S11325208B816096CDBFDEBFDF91CF911F910F915C
S1132530FF90EF90DF90CF90BF90AF909F908F90DF
S113254008958F929F92AF92BF92CF92DF92EF92B3
S1132550FF920F931F93CF93DF93CDB7DEB76497AA
S1132560CDBFDEBF8C839D836E837F8328873987AD
S11325704A875B870C871D87EE86CF86D88AA98A0F
S1132580BA8A8B8A9C8A2885398589899A89FC012B
S1132590838D948DA90165EA70E00E943C3B898992
S11325A09A89FC01238D348D888599850197820F42
S11325B0931F8A839B83198221C08981882F90E08D
S11325C02981222F30E04E815F81240F351FF901CC
S11325D0408129893A89820F931F4D96FC014083DB
S11325E08981882F90E02E813F81820F931FFC0107
S11325F08081882339F089818F5F8983898188303C
S1132600E0F201C0000089899A89FC0114A28E8538
S1132610843010F083E08E8789899A892E85FC01A5
S1132620228F89899A8902960E94660889899A89E3
S11326300E960E94660889899A8929893A89FC013B
S1132640228733878E85882F90E0A0E0B0E024E0D5
S113265030E040E050E079018A01E81AF90A0A0BF7
S11326601B0BD801C70129893A89F9018687978705
S1132670A08BB18B89899A8929893A89FC01268B97
S1132680378B89899A89FC0117A210A611A612A674
S113269089899A89FC0113A64C855D852C813D812D
S11326A08A819B81B9010E94B2099C0189899A8916
S11326B0FC01208331838F859889892B39F08F859C
S11326C0988929893A89FC01208331830000649622
S11326D0CDBFDEBFDF91CF911F910F91FF90EF909F
S11326E0DF90CF90BF90AF909F908F900895CF933D
S11326F0DF931F921F92CDB7DEB789839A83F0913F
S1132700A200FF93F87FF093A2008091842C8F5F46
S11327108093842C80911A2C90911B2C892B69F422
S113272089819A8180931A2C90931B2C8091842CFC
S11327308130C9F40E94711916C080918A2C8823B3
S113274091F480911A2C90911B2CFC01228D89818B
S11327509A81FC01828D821730F089819A8180935D
S11327601A2C90931B2C80918E2C8F5F80938E2C2F
S113277020918E2C89819A81FC0125A389819A81DB
S1132780FC01928D8091892C891730F489819A817A
S1132790FC01828D8093892C89819A81AC014E5FE2
S11327A05F4F89819A81FC01828D282F30E06BE094
S11327B0629FC001639F900D1124845E934DBA0102
S11327C00E947908FF91F093A20080918A2C8823BB
S11327D071F080911A2C90911B2CFC01228D89811F
S11327E09A81FC01828D281710F40E94C30B00000B
S11327F00F900F90DF91CF910895CF93DF93CDB7D2
S1132800DEB72597CDBFDEBF6A837B838C839D8330
S113281019828A819B81AC81BD81892B8A2B8B2B68
S113282071F00E9477148A819B81AC81BD8140E064
S1132830BC01CD010E94251D0E94841489838981D5
S1132840882311F40E94C30B00002596CDBFDEBF80
S1132850DF91CF910895EF92FF920F93CF93DF937F
S11328601F92CDB7DEB70F2EF3E9EF2EFCE2FF2E59
S1132870F02D00E020E030E048EC50E060E070E251
S11328808EE599E10E942A1289838981813019F4A5
S11328900E94C61D89838981813009F580EA90E010
S11328A020EA30E0F9012281287FFC0122838FEFA6
S11328B09FEFDC0180938F2C9093902CA093912C0C
S11328C0B093922C81E080938A2C1092852C1092E4
S11328D0862C1092872C1092882C0E948B0B00005F
S11328E00F90DF91CF910F91FF90EF900895CF93C8
S11328F0DF93CDB7DEB78091952C8F5F8093952CB5
S11329000000DF91CF910895CF93DF9300D01F9201
S1132910CDB7DEB719821A821B82F091A200FF9311
S1132920F87FF093A2008091952C81508093952C90
S11329308091952C882309F074C08091842C88237D
S113294009F46FC046C08091692C90916A2CFC01F7
S11329508085918589839A8389819A810E960E94C4
S1132960450989819A8102960E94450989819A8143
S1132970FC01928D8091892C891730F489819A8188
S1132980FC01828D8093892C89819A81AC014E5FF0
S11329905F4F89819A81FC01828D282F30E06BE0A2
S11329A0629FC001639F900D1124845E934DBA0110
S11329B00E94790889819A81FC01228D80911A2CC8
S11329C090911B2CFC01828D281718F081E08093D4
S11329D08C2C8091622C882309F0B5CF89819A814F
S11329E0892B11F00E94FF1980918B2C8C838C8190
S11329F0882379F00E944215882319F081E080939E
S1132A008C2C8C8181508C838C81882399F7109233
S1132A108B2C80918C2C882321F081E08B830E9465
S1132A20C30BFF91F093A2008B812496CDBFDEBF30
S1132A30DF91CF910895CF93DF9300D01F92CDB74C
S1132A40DEB7F091A200FF93F87FF093A20080918B
S1132A50852C9091862CA091872CB091882C898309
S1132A609A83AB83BC83FF91F093A20089819A81FE
S1132A70AB81BC81BC01CD012496CDBFDEBFDF910B
S1132A80CF910895CF93DF93CDB7DEB72D97CDBF08
S1132A90DEBF19828091952C882309F0F1C08091C2
S1132AA0852C9091862CA091872CB091882C01962E
S1132AB0A11DB11D8A839B83AC83BD838A819B81C5
S1132AC0AC81BD818093852C9093862CA093872C18
S1132AD0B093882C8A819B81AC81BD81892B8A2B00
S1132AE08B2BD9F480915E2C90915F2C8E839F83E5
S1132AF08091602C9091612C80935E2C90935F2C3C
S1132B008E819F818093602C9093612C80918D2C79
S1132B108F5F80938D2C0E94FF1980918F2C909150
S1132B20902CA091912CB091922C2A813B814C81C4
S1132B305D81281739074A075B0708F48AC080912A
S1132B405E2C90915F2CFC018081882361F48FEFCF
S1132B509FEFDC0180938F2C9093902CA093912C69
S1132B60B093922C76C080915E2C90915F2CFC01E6
S1132B7087819085FC0180859185888799878885E0
S1132B809985FC0182819381A481B5818A879B8781
S1132B90AC87BD872A813B814C815D818A859B8579
S1132BA0AC85BD85281739074A075B0768F48A8511
S1132BB09B85AC85BD8580938F2C9093902CA0939E
S1132BC0912CB093922C45C08885998502960E94D9
S1132BD0450988859985FC01808D918D892B29F083
S1132BE0888599850E960E94450988859985FC01FA
S1132BF0928D8091892C891730F488859985FC0100
S1132C00828D8093892C88859985AC014E5F5F4FB6
S1132C1088859985FC01828D282F30E06BE0629FC6
S1132C20C001639F900D1124845E934DBA010E94EC
S1132C30790888859985FC01228D80911A2C9091C0
S1132C401B2CFC01828D281708F479CF81E089833D
S1132C5076CF80911A2C90911B2CFC01828D282F09
S1132C6030E04BE0429FC001439F900D1124845EED
S1132C70934DFC018081823040F081E0898305C05E
S1132C8080918B2C8F5F80938B2C80918C2C88234C
S1132C9011F081E0898389812D96CDBFDEBFDF915C
S1132CA0CF910895CF93DF93CDB7DEB72997CDBFEA
S1132CB0DEBF8091952C882321F081E080938C2CB9
S1132CC0BAC010928C2C80911A2C90911B2CFC0170
S1132CD0838D948D8A839B8385EA95EADC018C83BA
S1132CE09D83AE83BF838A819B81FC0120813181D6
S1132CF0428153818C819D81AE81BF812817390720
S1132D004A075B0799F58A819B810496FC0120811F
S1132D103181428153818C819D81AE81BF8128178D
S1132D2039074A075B0711F58A819B810896FC01E4
S1132D3020813181428153818C819D81AE81BF810B
S1132D40281739074A075B0789F48A819B810C9607
S1132D50FC0120813181428153818C819D81AE812E
S1132D60BF81281739074A075B0771F080911A2C35
S1132D7090911B2C9C01235E3F4F80911A2C9091C3
S1132D801B2CB9010E9453048091892C898303C0B0
S1132D908981815089838981282F30E04BE0429FCB
S1132DA0C001439F900D1124845E934DFC018081EA
S1132DB0882371F38981282F30E04BE0429FC001C2
S1132DC0439F900D1124845E934D8887998788854D
S1132DD09985FC0181819281FC012481358188855A
S1132DE09985FC012183328388859985FC012181A1
S1132DF032818885998503962817390769F488856F
S1132E009985FC0181819281FC0124813581888529
S1132E109985FC012183328388859985FC01818110
S1132E209281FC018085918580931A2C90931B2CB0
S1132E3089818093892C00002996CDBFDEBFDF9164
S1132E40CF910895CF93DF9300D000D0CDB7DEB7F4
S1132E5089839A834B835C836D837E8380911A2C50
S1132E6090911B2C9C01225F3F4F89819A81B9016B
S1132E700E94C4088B819C81AD81BE8141E0BC016C
S1132E80CD010E94251D00002696CDBFDEBFDF9137
S1132E90CF9108950F931F93CF93DF93CDB7DEB7F0
S1132EA02A97CDBFDEBF89839A834B835C836D836E
S1132EB07E830F83188729873A8720911A2C3091B3
S1132EC01B2C8B819C81AD81BE81B068F901868702
S1132ED09787A08BB18B80911A2C90911B2C9C010D
S1132EE0225F3F4F89819A81B9010E9479088F81BD
S1132EF09885A985BA8541E0BC01CD010E94251DB4
S1132F0000002A96CDBFDEBFDF91CF911F910F91B4
S1132F100895CF93DF93CDB7DEB72797CDBFDEBF3C
S1132F2089839A834B835C836D837E832F83809113
S1132F301A2C90911B2C9C01225F3F4F89819A810E
S1132F40B9010E9479088F81882339F08FEF9FEFB0
S1132F50DC018B839C83AD83BE838B819C81AD819B
S1132F60BE814F81BC01CD010E94251D0000279622
S1132F70CDBFDEBFDF91CF910895CF93DF93CDB75F
S1132F80DEB72597CDBFDEBF8C839D838C819D8169
S1132F90FC0187819085FC01808591858A839B83D0
S1132FA08A819B810E960E9445098091952C8823E5
S1132FB051F58A819B8102960E9445098A819B81F1
S1132FC0FC01928D8091892C891730F48A819B8130
S1132FD0FC01828D8093892C8A819B81AC014E5F98
S1132FE05F4F8A819B81FC01828D282F30E06BE04A
S1132FF0629FC001639F900D1124845E934DBA01BA
S11330000E94790808C08A819B810E96BC0182E6E1
S11330109CE20E9479088A819B81FC01228D809127
S11330201A2C90911B2CFC01828D821730F481E0C4
S1133030898381E080938C2C01C019828981259633
S1133040CDBFDEBFDF91CF910895CF93DF93CDB78E
S1133050DEB72897CDBFDEBF8B839C834D835E8311
S11330606F8378878D819E81AF81B885B0682B810D
S11330703C81F90180839183A283B3838B819C81FA
S1133080FC018085918589839A838B819C810E9430
S1133090450989819A8102960E94450989819A810C
S11330A0FC01928D8091892C891730F489819A8151
S11330B0FC01828D8093892C89819A81AC014E5FB9
S11330C05F4F89819A81FC01828D282F30E06BE06B
S11330D0629FC001639F900D1124845E934DBA01D9
S11330E00E94790889819A81FC01228D80911A2C91
S11330F090911B2CFC01828D821718F481E080933F
S11331008C2C00002896CDBFDEBFDF91CF910895AF
S1133110CF93DF931F921F92CDB7DEB789839A8333
S113312020918D2C89819A81FC0120838091852CAA
S11331309091862CA091872CB091882C29813A817A
S1133140F90181839283A383B48300000F900F90CD
S1133150DF91CF910895EF92FF920F931F93CF9336
S1133160DF93CDB7DEB72D97CDBFDEBF8A879B87B0
S11331706C877D87F091A200FF93F87FF093A20003
S11331808091852C9091862CA091872CB091882CCD
S11331908A839B83AC83BD838A859B85FC01818163
S11331A09281A381B4812A813B814C815D81790123
S11331B08A01E81AF90A0A0B1B0BD801C7018E838E
S11331C09F83A887B9878C859D85FC018081918127
S11331D0A281B3818F3F9F4FAF4FBF4F11F419822C
S11331E054C08A859B85FC01908180918D2C981711
S11331F099F08A859B85FC01218132814381548128
S11332008A819B81AC81BD8182179307A407B5078E
S113321018F081E0898339C08C859D85FC0120816B
S11332203181428153818E819F81A885B98582171E
S11332309307A407B50700F58C859D85FC012081C3
S11332403181428153818E819F81A885B98579011D
S11332508A01E81AF90A0A0B1B0BD801C7012C854D
S11332603D85F90180839183A283B3838A859B85FD
S11332700E948818198209C08C859D85FC011082E2
S113328011821282138281E08983FF91F093A2005C
S113329089812D96CDBFDEBFDF91CF911F910F9114
S11332A0FF90EF900895CF93DF93CDB7DEB781E021
S11332B080938C2C0000DF91CF910895CF93DF93FE
S11332C01F921F92CDB7DEB789839A830E94B019EB
S11332D080911C2C823010F00E94C30B0E94242386
S11332E0F5CFCF93DF931F92CDB7DEB7198210C00D
S11332F08981282F30E04BE0429FC001439F900D0D
S11333001124845E934D0E942C0889818F5F8983E8
S11333108981843068F388E49CE20E942C0883E568
S11333209CE20E942C0882E69CE20E942C088DE616
S11333309CE20E942C0889E79CE20E942C0888E405
S11333409CE280935E2C90935F2C83E59CE28093B7
S1133350602C9093612C00000F90DF91CF91089521
S1133360CF93DF931F921F92CDB7DEB725C0F091A4
S1133370A200FF93F87FF093A2008091742C9091A7
S1133380752CFC018085918589839A8389819A8132
S113339002960E9445098091842C81508093842C4C
S11333A08091782C81508093782CFF91F093A20027
S11333B089819A810E94E6198091782C8823B9F634
S11333C000000F900F90DF91CF910895CF93DF937A
S11333D01F921F92CDB7DEB789839A8389819A8120
S11333E0FC01838D948D0E941E0889819A810E941C
S11333F01E0800000F900F90DF91CF910895CF9396
S1133400DF931F921F92CDB7DEB780915E2C90910F
S11334105F2CFC018081882361F48FEF9FEFDC0136
S113342080938F2C9093902CA093912CB093922CFA
S11334301BC080915E2C90915F2CFC01878190854C
S1133440FC018085918589839A8389819A81FC0115
S113345082819381A481B58180938F2C9093902C49
S1133460A093912CB093922C00000F900F90DF91B9
S1133470CF910895CF93DF931F92CDB7DEB780919C
S11334808A2C882319F481E0898308C08091952CC3
S1133490882319F482E0898301C0198289810F90FD
S11334A0DF91CF910895EF92FF920F931F93CF93E3
S11334B0DF9300D01F92CDB7DEB780911A2C909184
S11334C01B2CFC0186859785A089B18989839A8301
S11334D0AB83BC8360911A2C70911B2C80911A2CA5
S11334E090911B2CFC01828D882F90E0A0E0B0E02D
S11334F024E030E040E050E079018A01E81AF90A5A
S11335000A0B1B0BD801C701FB0186879787A08B89
S1133510B18B89819A81AB81BC81BC01CD01249698
S1133520CDBFDEBFDF91CF911F910F91FF90EF9040
S11335300895CF92DF92EF92FF920F931F93CF9350
S1133540DF93CDB7DEB72F97CDBFDEBF6A837B8312
S11335508C839D832E833F83488759870A871B87E3
S1133560CC86DD86EE86FF86F091A200FF93F87F7D
S1133570F093A20080911A2C90911B2CFC0183A53E
S11335808230A1F160911A2C70911B2CFB0127A1B0
S113359030A541A552A58A819B81AC81BD818095CE
S11335A09095A095B09582239323A423B523FB0182
S11335B087A390A7A1A7B2A780911A2C90911B2C46
S11335C021E0FC0123A78C859D85AE85BF85892BD1
S11335D08A2B8B2B59F08C859D85AE85BF8541E068
S11335E0BC01CD010E94251D0E94C30BFF91F093E5
S11335F0A200F091A200FF93F87FF093A2008A85C5
S11336009B85892B81F080911A2C90911B2CFC01B5
S113361087A190A5A1A5B2A52A853B85F901808340
S11336209183A283B38380911A2C90911B2CFC016B
S113363083A5823011F019821CC060911A2C7091FC
S11336401B2CFB0127A130A541A552A58E819F818A
S1133650A885B98580959095A095B09582239323EC
S1133660A423B523FB0187A390A7A1A7B2A781E058
S1133670898380911A2C90911B2CFC0113A6FF9135
S1133680F093A20089812F96CDBFDEBFDF91CF9149
S11336901F910F91FF90EF90DF90CF9008950F93BB
S11336A01F93CF93DF93CDB7DEB72D97CDBFDEBF8A
S11336B08D839E834F83588769877A872B870C87EE
S11336C01D8781E089838D819E818A839B83F0910C
S11336D0A200FF93F87FF093A2008C859D85892B2F
S11336E071F08A819B81FC0187A190A5A1A5B2A557
S11336F02C853D85F90180839183A283B3838A81DC
S11337009B81FC0183A58C838A819B8122E0FC013F
S113371023A78B85882F90E08230910531F1833087
S1133720910534F4009709F44FC0019739F04DC066
S11337308330910561F10497B1F147C08A819B817F
S1133740FC0127A130A541A552A58F819885A985A3
S1133750BA85822B932BA42BB52B2A813B81F901AB
S113376087A390A7A1A7B2A730C08A819B81FC013F
S113377087A190A5A1A5B2A50196A11DB11D2A817D
S11337803B81F90187A390A7A1A7B2A71EC02A81F4
S11337903B818F819885A985BA85F90187A390A774
S11337A0A1A7B2A712C08C81823061F02A813B812B
S11337B08F819885A985BA85F90187A390A7A1A7C8
S11337C0B2A703C0198201C000008C818130B9F511
S11337D08A819B8102960E9445098A819B81FC0112
S11337E0928D8091892C891730F48A819B81FC0108
S11337F0828D8093892C8A819B81AC014E5F5F4FBF
S11338008A819B81FC01828D282F30E06BE0629FCE
S1133810C001639F900D1124845E934DBA010E94F0
S113382079088A819B81FC01228D80911A2C9091C8
S11338301B2CFC01828D821710F40E94C30BFF9194
S1133840F093A20089812D96CDBFDEBFDF91CF9189
S11338501F910F910895EF92FF920F931F93CF93AF
S1133860DF93CDB7DEB76097CDBFDEBF8E839F8376
S1133870488759876A877B872C870D871E87EF8641
S1133880F88A81E089838E819F818A839B830E9449
S11338909B098C838D859E85892B71F08A819B8100
S11338A0FC0187A190A5A1A5B2A52D853E85F901AE
S11338B080839183A283B3838A819B81FC0183A546
S11338C08D838A819B8122E0FC0123A78C85882F2C
S11338D090E08230910531F18330910534F4009702
S11338E009F44FC0019739F04DC08330910561F15F
S11338F00497B1F147C08A819B81FC0127A130A5BF
S113390041A552A588859985AA85BB85822B932BD1
S1133910A42BB52B2A813B81F90187A390A7A1A7EA
S1133920B2A730C08A819B81FC0187A190A5A1A583
S1133930B2A50196A11DB11D2A813B81F90187A37E
S113394090A7A1A7B2A71EC02A813B81888599852B
S1133950AA85BB85F90187A390A7A1A7B2A712C026
S11339608D81823061F02A813B8188859985AA8581
S1133970BB85F90187A390A7A1A7B2A703C01982A9
S113398001C000008D81813009F04FC08091952CD9
S1133990882351F58A819B8102960E9445098A8178
S11339A09B81FC01928D8091892C891730F48A8146
S11339B09B81FC01828D8093892C8A819B81AC013F
S11339C04E5F5F4F8A819B81FC01828D282F30E0FE
S11339D06BE0629FC001639F900D1124845E934D40
S11339E0BA010E94790808C08A819B810E96BC01A5
S11339F082E69CE20E9479088A819B81FC01228DE7
S1133A0080911A2C90911B2CFC01828D821768F4F2
S1133A108F859889892B31F08F85988921E0FC0165
S1133A20208303C081E080938C2C80EA90E02C8179
S1133A30FC01228389816096CDBFDEBFDF91CF91E7
S1133A401F910F91FF90EF900895CF93DF93CDB71F
S1133A50DEB72D97CDBFDEBF69877A878B879C87BA
S1133A604D878091852C9091862CA091872CB091C4
S1133A70882C89839A83AB83BC8380911A2C909180
S1133A801B2C02960E94450989859A85AB85BC85C5
S1133A908F3F9F4FAF4FBF4F71F48D85882359F0EF
S1133AA080911A2C90911B2C0296BC0189E79CE210
S1133AB00E94790864C029813A814B815C8189859F
S1133AC09A85AB85BC85820F931FA41FB51F8D8378
S1133AD09E83AF83B88720911A2C30911B2C8D8143
S1133AE09E81AF81B885F90182839383A483B583D2
S1133AF02D813E814F81588589819A81AB81BC811A
S1133B00281739074A075B0778F480911A2C90919B
S1133B101B2C9C012E5F3F4F8091602C9091612C57
S1133B20B9010E94C4082BC080911A2C90911B2CBF
S1133B309C012E5F3F4F80915E2C90915F2CB901C8
S1133B400E94C40880918F2C9091902CA091912C6C
S1133B50B091922C2D813E814F81588528173907C9
S1133B604A075B0760F48D819E81AF81B88580939D
S1133B708F2C9093902CA093912CB093922C0000B6
S1133B802D96CDBFDEBFDF91CF910895EF92FF92C6
S1133B900F93CF93DF931F92CDB7DEB719820E94A4
S1133BA057228091B02C9091B12C892B91F00F2E3B
S1133BB0F2EBEF2EFCE2FF2EF02D03E020E030E0EC
S1133BC048EC50E065E070E28CED9EE10E942A1220
S1133BD0898389810F90DF91CF910F91FF90EF90AE
S1133BE00895CF92DF92EF92FF920F931F93CF939A
S1133BF0DF93CDB7DEB76797CDBFDEBF8B879C87DA
S1133C006D872E873F87488B598B0A8B1B8BCC8AF9
S1133C10DD8AEE8AFF8A19828091B02C9091B12CB2
S1133C20892B09F444C08D858A838E859F85A88954
S1133C30B9898B839C83AD83BE838B859C858F835D
S1133C4098878D85863034F50E943A1A823099F42B
S1133C50E091B02CF091B12C8C899D89AE89BF89FB
S1133C60BE016E5F7F4F00E09C01AD01CF010E9459
S1133C702E0E89831CC08091B02C9091B12CBE0172
S1133C806E5F7F4F00E020E030E0A9010E942E0E1D
S1133C9089830DC08091B02C9091B12C4A895B89A5
S1133CA0BE016E5F7F4F20E00E94F00E8983898100
S1133CB06796CDBFDEBFDF91CF911F910F91FF902B
S1133CC0EF90DF90CF900895CF92DF92EF92FF9222
S1133CD00F931F93CF93DF93CDB7DEB72B97CDBF51
S1133CE0DEBF6C837D838E839F83288739874A87D1
S1133CF05B878091AC2C9091AD2CFC0187819085E1
S1133D00FC018085918589839A8389819A810296B1
S1133D100E94450989819A81FC0182898130B1F52B
S1133D2089819A81FC0126853785408951898C8156
S1133D309D81AE81BF81820F931FA41FB51FEC80AC
S1133D40FD800E811F81288539854A855B85E9813F
S1133D50FA816701780189019A01AC01BD01CF01A3
S1133D600E94FA1F882391F08C819D81AE81BF81CE
S1133D70E981FA81C12CD12C760100E010E09C018C
S1133D80AD0160E0CF010E94F11D8B8389819A818E
S1133D90FC012589368989819A81F90119950000E8
S1133DA02B96CDBFDEBFDF91CF911F910F91FF9076
S1133DB0EF90DF90CF900895CF93DF93CDB7DEB728
S1133DC02797CDBFDEBF8E839F83CE0105960E94C9
S1133DD0771FDC01CB0189839A83AB83BC832D815C
S1133DE089819A81AB81BC81422FBC01CD010E94A3
S1133DF0FC1E0E949320E9CFEF92FF920F931F9332
S1133E00CF93DF93CDB7DEB72A97CDBFDEBF6E83E6
S1133E107F83888799874A870E947714CE01059605
S1133E200E94B51FDC01CB0189839A83AB83BC83D9
S1133E308D81882309F04EC08A858823E1F42E8180
S1133E403F814885598589819A81AB81BC818217DC
S1133E509307A407B50778F00E94841429813A8156
S1133E604B815C818E819F81A885B985BC01CD0180
S1133E700E94641E31C08A85882359F08091AE2C3B
S1133E809091AF2CFC01908181E0992309F080E0AE
S1133E908A872E813F814885598589819A81AB81A2
S1133EA0BC8179018A01E81AF90A0A0B1B0BD801B3
S1133EB0C701E091B02CF091B12C2A85AC01BD0171
S1133EC0CF010E94DC110E948414882329F40E94EB
S1133ED0C30B02C00E94841400002A96CDBFDEBF2B
S1133EE0DF91CF911F910F91FF90EF900895CF93A1
S1133EF0DF9300D000D0CDB7DEB78D839E83809151
S1133F00AC2C9091AD2CFC01908181E0992309F0B7
S1133F1080E0282F8D819E81FC0120838D819E81EC
S1133F20FC018081882389F48091AC2C9091AD2C84
S1133F30FC0187819085FC0180819181A281B381FC
S1133F4089839A83AB83BC8304C019821A821B823F
S1133F501C8289819A81AB81BC81BC01CD012696EA
S1133F60CDBFDEBFDF91CF910895CF93DF9300D013
S1133F7000D0CDB7DEB78D839E830E941B15DC0174
S1133F80CB0189839A83AB83BC838091B42C9091B9
S1133F90B52CA091B62CB091B72C29813A814B81D4
S1133FA05C81281739074A075B0740F40E949D216A
S1133FB08D819E8121E0FC01208304C08D819E813E
S1133FC0FC01108289819A81AB81BC818093B42CDD
S1133FD09093B52CA093B62CB093B72C89819A8179
S1133FE0AB81BC81BC01CD012696CDBFDEBFDF9184
S1133FF0CF910895CF92DF92EF92FF920F931F9388
S1134000CF93DF93CDB7DEB72F97CDBFDEBF8A83C3
S11340109B834C835D836E837F83088719872A87FC
S11340203B87CC86DD86EE86FF8619822A813B811A
S11340308C819D81AE81BF81F90182839383A483A6
S1134040B5838A819B812A813B81FC012287338746
S11340502C813D814E815F8188859985AA85BB85A8
S113406082179307A407B50740F1288539854A8547
S11340705B858C859D85AE85BF85281B390B4A0BD6
S11340805B0B8A819B81FC0186859785A089B18918
S1134090281739074A075B0718F081E0898336C07F
S11340A08A819B819C012E5F3F4F8091AE2C909121
S11340B0AF2CB9010E94C40829C0288539854A85D6
S11340C05B858C859D85AE85BF85281739074A0792
S11340D05B0780F42C813D814E815F818C859D85B9
S11340E0AE85BF85281739074A075B0718F081E0BA
S11340F089830CC08A819B819C012E5F3F4F8091F4
S1134100AC2C9091AD2CB9010E94C40889812F96E2
S1134110CDBFDEBFDF91CF911F910F91FF90EF9044
S1134120DF90CF900895CF92DF92EF92FF920F939A
S11341301F93CF93DF93CDB7DEB76597CDBFDEBFB7
S1134140E0C08A858823FCF4CE010A96019689830F
S11341509A8389819A81FC012081318189819A81A4
S1134160FC0184819581A681B78149815A81FA0134
S11341700280F381E02DEC8BFD8BAC01BD018C89B9
S11341809D89F90119958A8588230CF4BAC08F8515
S113419098898B839C838B819C81FC018485958584
S11341A0892B29F08B819C8102960E944509CE01BE
S11341B043960E94B51FDC01CB018D839E83AF83A0
S11341C0B8878A85082E000C990B092E000CAA0BBF
S11341D0BB0B40E050E029E030E0841B950B28172E
S11341E0390708F48DC0FC018827E250FF4F8F4F38
S11341F00C94483AEB84FC840D851E852B853C8504
S11342004D855E858B819C81FC0186859785A0897F
S1134210B189820F931FA41FB51F2D813E814F8149
S11342205885EB81FC816701780189019A01AC0111
S1134230BD01CF010E94FA1F882309F462C08B815B
S11342409C81FC01258936898B819C81F901199512
S11342508B819C81FC018289813009F052C02B85BD
S11342603C854D855E858B819C81FC018685978587
S1134270A089B189820F931FA41FB51FEB81FC8114
S1134280C12CD12C760100E010E09C01AD0160E06E
S1134290CF010E94F11D898734C08B859C85AD8533
S11342A0BE852B813C81F90186879787A08BB18BD2
S11342B08B819C81FC0126853785408951898D81BC
S11342C09E81AF81B885820F931FA41FB51FED8017
S11342D0FE800F8118852D813E814F815885EB81A9
S11342E0FC816701780189019A01AC01BD01CF010C
S11342F00E94FA1F06C08B819C810E941E0801C087
S113430000008091B02C9091B12CBE01665F7F4F6C
S113431020E030E0A9010E94500F882309F011CF5A
S113432000006596CDBFDEBFDF91CF911F910F9145
S1134330FF90EF90DF90CF900895CF92DF92EF92AD
S1134340FF920F931F93CF93DF93CDB7DEB72D97D3
S1134350CDBFDEBF82C08091AC2C9091AD2CFC010E
S113436087819085FC0180819181A281B3818983B9
S11343709A83AB83BC838091AC2C9091AD2CFC01CF
S113438087819085FC01808591858D839E838D81B5
S11343909E8102960E9445098D819E81FC0125899A
S11343A036898D819E81F90119958D819E81FC014B
S11343B08289813009F051C08D819E81FC0126855E
S11343C037854089518989819A81AB81BC81820F6B
S11343D0931FA41FB51F8F839887A987BA872F813E
S11343E0388549855A8589819A81AB81BC81821738
S11343F09307A407B507F8F42D813E818F81988532
S1134400A985BA85F90182839383A483B5838D81B9
S11344109E812D813E81FC01228733878D819E817F
S11344209C012E5F3F4F8091AC2C9091AD2CB90133
S11344300E94C40812C089819A81AB81BC81ED813C
S1134440FE81C12CD12C760100E010E09C01AD016D
S113445060E0CF010E94F11D8B878091AC2C90917C
S1134460AD2CFC018081882309F075CF8091AC2CA0
S11344709091AD2C8C879D878091AE2C9091AF2C20
S11344808093AC2C9093AD2C8C859D858093AE2C21
S11344909093AF2C00002D96CDBFDEBFDF91CF915E
S11344A01F910F91FF90EF90DF90CF900895CF93DD
S11344B0DF93CDB7DEB7F091A200FF93F87FF093BE
S11344C0A2008091B02C9091B12C892BE9F486E95B
S11344D09CE20E942C0881EA9CE20E942C0886E956
S11344E09CE28093AC2C9093AD2C81EA9CE2809367
S11344F0AE2C9093AF2C40E069E085E00E94A90DBA
S11345008093B02C9093B12CFF91F093A200000003
S1134510DF91CF9108950F931F93CF93DF93CDB77E
S1134520DEB76497CDBFDEBF8B879C876D877E87A0
S11345302F87388B498B5A8B0B8B1C8B8EEF8A837E
S11345408B859C858B839C838D859E858D839E83A3
S11345508F859889A989BA898F839887A987BA870B
S11345608091B02C9091B12C4B895C89BE016E5F17
S11345707F4F20E00E94F00E898389816496CDBF2D
S1134580DEBFDF91CF911F910F910895CF93DF93F9
S1134590CDB7DEB780E590E020E530E0F901208179
S11345A02160FC01208380E590E0FC018181882F5B
S11345B090E081709927892BB1F380E00E94DD039C
S11345C08EE10E94A60360E080E00E94C60343E0FF
S11345D060E080E40E94710380E590E020E530E033
S11345E0F90120812860FC01208380E590E0FC0132
S11345F08181882F90E088709927892BB1F364E03A
S113460080EC0E948E0380E590E020E530E0F90123
S113461020812061FC01208360E080E00E94C603C9
S113462080E590E0FC018181882F90E080719927DA
S1134630892BB1F384E00E94DD0387E00E94A60386
S11346400000DF91CF910895CF93DF93CDB7DEB70C
S11346500000DF91CF910895EF92FF920F93CF93D3
S1134660DF93CDB7DEB70E94C6220E942F2B0F2EF8
S1134670F7EFEF2EFCE2FF2EF02D02E020E030E019
S113468048EC50E06DE070E285EF98E20E942A1257
S11346900F2EF1EFEF2EFCE2FF2EF02D02E020E0D2
S11346A030E042ED50E068E170E289E396E20E9476
S11346B02A120F2EFBEFEF2EFCE2FF2EF02D01E06D
S11346C020E030E042ED50E063E270E285EA93E2FC
S11346D00E942A120F2EF9EFEF2EFCE2FF2EF02D8E
S11346E001E020E030E048EC50E06BE270E28DED58
S11346F094E20E942A120E949D048093F32C9093CA
S1134700F42C0E949D048093F52C9093F62C8091B8
S1134710F32C9091F42C40E051E060E070E00E94B2
S113472043068091F32C9091F42C40E058E060E033
S113473070E00E9443060E942B1480E090E0DF9119
S1134740CF910F91FF90EF900895CF92DF92EF9267
S1134750FF920F93CF93DF93CDB7DEB72A97CDBFE8
S1134760DEBF89879A8780E090E0A0E8BFE3898371
S11347709A83AB83BC8380E090E0A0E4B0E48D83B3
S11347809E83AF83B8878091F32C9091F42C40E002
S113479050E0BA010E94F805DC01CB018827927031
S11347A0AA27BB27892B8A2B8B2B09F455C02D8173
S11347B03E814F81588560E070E080E89FE30E946D
S11347C05733DC01CB019C01AD0169817A818B8176
S11347D09C810E94E532DC01CB0189839A83AB83FF
S11347E0BC8320E030E040E050E46D817E818F8125
S11347F098850E94E632DC01CB018D839E83AF83D2
S1134800B8872D813E814F81588560E070E080E853
S11348109FE30E945733DC01CB019C01AD01698108
S11348207A818B819C810E94E632DC01CB018983F1
S11348309A83AB83BC8320E030E040E050E46D8198
S11348407E818F8198850E94E632DC01CB018D83C5
S11348509E83AF83B88746C08091F32C9091F42C4B
S113486040E050E0BA010E94F805DC01CB01882742
S11348709170AA27BB27892B8A2B8B2B99F18091C6
S1134880F32C9091F42C40E050E0BA010E94F8051A
S1134890DC01CB0188279470AA27BB27892B8A2B9C
S11348A08B2BD1F080E090E0A0E8BFE389839A836A
S11348B0AB83BC8380E090E0A0E4B0E48D839E836E
S11348C0AF83B8878091F32C9091F42C40E054E0AE
S11348D060E070E00E94F80564E170E080E090E040
S11348E00E94FD1320E030E543EC57E469817A81AE
S11348F08B819C810E94B634DC01CB01BC01CD01CB
S11349000E94D033DC01CB018B3C9243A140B10522
S113491021F480E498E0FC0110828091F32C9091C2
S1134920F42C40E050E0BA010E94F805DC01CB0110
S113493081709927AA27BB27892B8A2B8B2B09F4F3
S113494022CF20E030E040E850E469817A818B8115
S11349509C810E94B634DC01CB018093B82C9093E7
S1134960B92CA093BA2CB093BB2C8091F32C9091CA
S1134970F42C42E050E060E070E00E944306809135
S1134980F32C9091F42C0F2EF5E0CF2ED12CE12CAA
S1134990F12CF02D01E021E044E050E060E070E013
S11349A00E94C0048091F32C9091F42C42E050E0DA
S11349B060E070E00E94F805E6CECF92DF92EF92BD
S11349C0FF920F93CF93DF93CDB7DEB72A97CDBF76
S11349D0DEBF89879A8780E090E0A0E4B0E4898311
S11349E09A83AB83BC8380E090E0A0E4B0E48D8341
S11349F09E83AF83B8878091F32C9091F42C40E090
S1134A0050E0BA010E94F805DC01CB0188279071BF
S1134A10AA27BB27892B8A2B8B2B09F481C08D8174
S1134A209E81AF81B88520E030E040E450E4BC01D1
S1134A30CD010E942335DC01CB012D813E814F81C4
S1134A405885BC01CD010E94E532DC01CB019C01FB
S1134A50AD0160E070E080E890E40E945733DC012F
S1134A60CB019C01AD0169817A818B819C810E947B
S1134A70E632DC01CB0189839A83AB83BC8320E0DB
S1134A8030E040E050E46D817E818F8198850E9402
S1134A90E632DC01CB018D839E83AF83B8878D81A1
S1134AA09E81AF81B88520E030E040E450E4BC0151
S1134AB0CD010E942335DC01CB012D813E814F8144
S1134AC05885BC01CD010E94E532DC01CB019C017B
S1134AD0AD0160E070E080E890E40E945733DC01AF
S1134AE0CB019C01AD0169817A818B819C810E94FB
S1134AF0E532DC01CB0189839A83AB83BC8320E05C
S1134B0030E040E050E46D817E818F8198850E9481
S1134B10E632DC01CB018D839E83AF83B88746C028
S1134B208091F32C9091F42C40E050E0BA010E9463
S1134B30F805DC01CB0188279870AA27BB27892BAD
S1134B408A2B8B2B99F18091F32C9091F42C40E0DB
S1134B5050E0BA010E94F805DC01CB01882790726D
S1134B60AA27BB27892B8A2B8B2BD1F080E090E0DE
S1134B70A0E4B0E489839A83AB83BC8380E090E0B3
S1134B80A0E4B0E48D839E83AF83B8878091F32C37
S1134B909091F42C40E050E260E070E00E94F8054F
S1134BA064E170E080E090E00E94FD1320E030E5D5
S1134BB043EC57E469817A818B819C810E94B634ED
S1134BC0DC01CB01BC01CD010E94D033DC01CB015F
S1134BD08F329B4CA440B10521F480E498E0FC01A1
S1134BE010828091F32C9091F42C40E050E0BA01B3
S1134BF00E94F805DC01CB0188709927AA27BB27FE
S1134C00892B8A2B8B2B09F4F6CE89819A81AB816F
S1134C10BC818093BC2C9093BD2CA093BE2CB093EC
S1134C20BF2C8091F32C9091F42C40E150E060E093
S1134C3070E00E9443068091F32C9091F42C0F2E87
S1134C40F5E0CF2ED12CE12CF12CF02D01E021E068
S1134C5040E250E060E070E00E94C0048091F32CD8
S1134C609091F42C40E150E060E070E00E94F8057F
S1134C70C2CECF92DF92EF92FF920F931F93CF9306
S1134C80DF93CDB7DEB7E297CDBFDEBF89AB9AAB7A
S1134C9081E089831B821C821D821E821A820E94EB
S1134CA07A2D8981813009F070C08091F32C909124
S1134CB0F42C41E050E060E070E00E9443068091F3
S1134CC0F32C9091F42C0F2EF5E0CF2ED12CE12C67
S1134CD0F12CF02D01E021E042E050E060E070E0D2
S1134CE00E94C0048091B82C9091B92CA091BA2C48
S1134CF0B091BB2C8F839887A987BA878091F32CB6
S1134D009091F42C44E050E060E070E00E9443068F
S1134D108091F32C9091F42C41E050E060E070E03D
S1134D200E94F8058A858F9389858F9388858F9350
S1134D308F818F9388E390E2892F8F9388E390E2A9
S1134D408F93CE014396292F2F938F930E94C33BB9
S1134D508DB79EB70896CDBFDEBFCE014396292FEF
S1134D602F938F938BE390E2892F8F938BE390E2C1
S1134D708F931F921F921F921F920E948C2DEDB74A
S1134D80FEB73896CDBFDEBF74C08981823009F08A
S1134D9070C08091F32C9091F42C48E050E060E0D6
S1134DA070E00E9443068091F32C9091F42C0F2E16
S1134DB0F5E0CF2ED12CE12CF12CF02D01E021E0F7
S1134DC040E150E060E070E00E94C0048091BC2C9F
S1134DD09091BD2CA091BE2CB091BF2C8B879C8749
S1134DE0AD87BE878091F32C9091F42C40E250E083
S1134DF060E070E00E9443068091F32C9091F42CC3
S1134E0048E050E060E070E00E94F8058E858F93E2
S1134E108D858F938C858F938B858F9388E390E218
S1134E20892F8F9388E390E28F93CE014D96292F9B
S1134E302F938F930E94C33B8DB79EB70896CDBF27
S1134E40DEBFCE014D96292F2F938F9381E490E2FC
S1134E50892F8F9381E490E28F931F921F921F9268
S1134E6081E08F930E948C2DEDB7FEB73896CDBFAD
S1134E70DEBFCE010F96C12CD12C76018C012FEF11
S1134E803FEF4FEF5FE060E070E0CB010E94991AC2
S1134E908A81882F90E08130910509F488C082309E
S1134EA091051CF4892B49F045C18230910509F420
S1134EB0B3C0039709F4FDC03DC18F859889A989C2
S1134EC0BA8982709927AA27BB27892B8A2B8B2B17
S1134ED011F081E08A838F859889A989BA898470C1
S1134EE09927AA27BB27892B8A2B8B2B11F082E0C9
S1134EF08A838F859889A989BA8988709927AA276E
S1134F00BB27892B8A2B8B2B11F083E08A838F8517
S1134F109889A989BA8981709927AA27BB27892BDF
S1134F208A2B8B2B09F405C189818130F1F480919E
S1134F30F32C9091F42C40E051E060E070E00E948A
S1134F40F8058091F32C9091F42C40E052E060E05D
S1134F5070E00E94430680E498E020E438E0F90120
S1134F6020812460FC012083E4C08981823009F01F
S1134F70E0C08091F32C9091F42C40E058E060E084
S1134F8070E00E94F8058091F32C9091F42C40E09D
S1134F9050E160E070E00E94430680E498E020E481
S1134FA038E0F90120812460FC012083C2C080E440
S1134FB098E0FC01108289818130A9F48091F32C5E
S1134FC09091F42C40E051E060E070E00E944306D0
S1134FD08091F32C9091F42C40E052E060E070E07A
S1134FE00E94F80517C089818230A1F48091F32CC6
S1134FF09091F42C40E058E060E070E00E94430699
S11350008091F32C9091F42C40E050E160E070E04A
S11350100E94F8051A828EC08091F52C9091F62C8E
S113502048E050E060E070E00E94430689818130EE
S1135030F1F48091F32C9091F42C40E050E0BA010B
S11350400E94F805DC01CB0188279170AA27BB27B1
S1135050892B8A2B8B2B59F18091F32C9091F42C72
S113506040E054E060E070E00E94430620C0898183
S11350708230E9F48091F32C9091F42C40E050E0DC
S1135080BA010E94F805DC01CB0188279870AA2791
S1135090BB27892B8A2B8B2B51F08091F32C909179
S11350A0F42C40E050E260E070E00E9443061A8273
S11350B041C080E498E0FC0110828091F52C90912D
S11350C0F62C48E050E060E070E00E9443068981DD
S11350D08130B9F48091F32C9091F42C40E051E0AC
S11350E060E070E00E9443068091F32C9091F42CD0
S11350F040E052E060E070E00E94F80582E08983BD
S113510016C08091F32C9091F42C40E058E060E0BC
S113511070E00E9443068091F32C9091F42C40E0BF
S113512050E160E070E00E94F80581E089831A8212
S113513001C0000064EF71E080E090E00E94FD1384
S1135140AECD1F920F9200903F000F921124009059
S11351503B000F92EF92FF920F931F932F933F9375
S11351604F935F936F937F938F939F93AF93BF936B
S1135170EF93FF93CF93DF931F92CDB7DEB71982DE
S11351808091C02C9091C12CA091C22CB091C32CC1
S1135190E091FD2CF091FE2C9E012F5F3F4F790191
S11351A000E010E022E0AC01BD01CF010E942B1C05
S11351B000000F90DF91CF91FF91EF91BF91AF91DC
S11351C09F918F917F916F915F914F913F912F911B
S11351D01F910F91FF90EF900F9000923B000F9062
S11351E000923F000F901F9018950F931F93CF9339
S11351F0DF931F921F92CDB7DEB789839A830E94F3
S11352000E020E942A0280E00E941C03813069F48D
S11352108091F12C9091F22C00E010E023E041E029
S113522050E060E070E00E944F1B81E00E941C038C
S1135230813069F48091F12C9091F22C00E010E01F
S113524023E042E050E060E070E00E944F1B82E007
S11352500E941C03813069F48091F12C9091F22C0E
S113526000E010E023E044E050E060E070E00E94E1
S11352704F1B83E00E941C03813069F48091F12C60
S11352809091F22C00E010E023E048E050E060E070
S113529070E00E944F1B80E00E941C03882369F485
S11352A08091F12C9091F22C00E010E023E040E199
S11352B050E060E070E00E944F1B81E00E941C03FC
S11352C0882369F48091F12C9091F22C00E010E095
S11352D023E040E250E060E070E00E944F1B82E077
S11352E00E941C03882369F48091F12C9091F22C84
S11352F000E010E023E040E450E060E070E00E9451
S11353004F1B83E00E941C03882369F48091F12CD5
S11353109091F22C00E010E023E040E850E060E0DF
S113532070E00E944F1B6AE070E080E090E00E9411
S1135330FD1367CF1F920F9200903F000F9211242C
S113534000903B000F922F933F934F935F936F9383
S11353507F938F939F93AF93BF93EF93FF93CF93D9
S1135360DF931F92CDB7DEB719828091012D909102
S1135370022D9E012F5F3F4F41E050E060E070E05E
S11353800E94B00760E080E09BE00E94FF0380E0A1
S11353909BE0FC01168200000F90DF91CF91FF91FA
S11353A0EF91BF91AF919F918F917F916F915F9199
S11353B04F913F912F910F9000923B000F900092DC
S11353C03F000F901F901895CF92DF92EF92FF92BB
S11353D00F93CF93DF9300D01F92CDB7DEB76983CD
S11353E07A838B839C8389819A81AB81BC81029768
S11353F0A105B10540F482E090E0A0E0B0E089832B
S11354009A83AB83BC8380E09BE021E0FC0126838C
S113541080E09BE0FC0110A211A260E080E09BE030
S11354200E941B0489819A81AB81BC818E3F9F4F6E
S1135430A105B10598F420E03BE089819A81AB8114
S1135440BC81B695A79597958795F90186A397A3EF
S113545065E080E09BE00E94FF031FC089819A8180
S1135460AB81BC8180349244AF40B105B0F420E0FC
S11354703BE089819A81AB81BC81689414F8B6952C
S1135480A795979587951694D1F7F90186A397A3C5
S113549067E080E09BE00E94FF038091012D9091E2
S11354A0022D0F2EF4EFCF2EDD24D394E12CF12C1A
S11354B0F02D00E021E041E050E060E070E00E9467
S11354C0C00400002496CDBFDEBFDF91CF910F91C1
S11354D0FF90EF90DF90CF900895CF93DF931F92CA
S11354E0CDB7DEB7898389818F708983898182955D
S11354F0807F898380E096E020E036E0F901348102
S113550029812F602323FC01248380E096E020E09E
S113551036E0F90134812981232BFC012483000026
S11355200F90DF91CF910895CF93DF931F92CDB762
S1135530DEB789838981882331F080E696E021E013
S1135540FC01258305C080E696E021E0FC0126836A
S113555000000F90DF91CF910895CF93DF931F92B6
S1135560CDB7DEB789838981882331F080E696E060
S113557022E0FC01258305C080E696E022E0FC01E0
S1135580268300000F90DF91CF910895CF93DF938E
S11355901F92CDB7DEB789838981882331F080E6F5
S11355A096E024E0FC01258305C080E696E024E033
S11355B0FC01268300000F90DF91CF910895CF93D3
S11355C0DF93CDB7DEB781E00E94C62A61E070E0C8
S11355D080E090E00E94E42980E00E94C62A000056
S11355E0DF91CF910895CF93DF931F92CDB7DEB7AC
S11355F08983898182958F700E946D2A80E00E9440
S1135600942A80E00E94AD2A0E94DF2A89818F704B
S11356100E946D2A0E94DF2A00000F90DF91CF9133
S11356200895CF93DF931F92CDB7DEB78983898125
S113563082958F700E946D2A81E00E94942A80E0F6
S11356400E94AD2A0E94DF2A89818F700E946D2AF0
S11356500E94DF2A00000F90DF91CF910895EF920E
S1135660FF920F93CF93DF93CDB7DEB780E096E040
S113567020E1FC01218380E096E020E2FC0121830B
S113568080E096E020E4FC01218380E096E020E8BD
S1135690FC01218380E696E021E0FC01218380E681
S11356A096E022E0FC01218380E696E024E0FC0100
S11356B0218380E096E020E036E0F90124812F7018
S11356C0FC01248380E696E020E636E0F90124819B
S11356D0287FFC01248340E066E188E00E94A90D54
S11356E08093FF2C9093002D0E949D048093012DA4
S11356F09093022DE12CF12C01E020E030E04EE506
S113570051E069E470E28DE29CE20E942A120000FA
S1135710DF91CF910F91FF90EF900895CF93DF9396
S113572000D01F92CDB7DEB789839A836B837C83C5
S113573089819A818130910589F0823091051CF428
S1135740892B39F01AC08230910569F0039781F0F2
S113575014C08B8180580E94F32A0FC08B8180541F
S11357600E94F32A0AC08B818C560E94F32A05C03A
S11357708B818C520E94F32A000067E270E080E083
S113578090E00E94E42900002496CDBFDEBFDF91A3
S1135790CF910895CF93DF931F92CDB7DEB789835E
S11357A089810E94112B6BE270E080E090E00E94FE
S11357B0E42900000F90DF91CF910895CF93DF93F8
S11357C000D01F92CDB7DEB78B839C8319821A82D7
S11357D019C089819A812B813C81820F931FFC011E
S11357E080818823A1F089819A812B813C81820F59
S11357F0931FFC0180810E94CA2B89819A810196A2
S113580089839A8389819A8144971CF301C000009B
S113581000002496CDBFDEBFDF91CF910895CF93D2
S1135820DF9300D000D0CDB7DEB789839A836B8332
S11358307C834D835E832B813C8189819A81B9016C
S11358400E948E2B8D819E810E94DE2B0000269665
S1135850CDBFDEBFDF91CF910895CF93DF93CDB756
S1135860DEB7C057D109CDBFDEBF9E0121593F4FDE
S1135870F9018083918319821A821B821C821D8202
S11358801E8226C01F8218861AC02D813E8144E1E3
S1135890429FC001439F900D11249E012F5F3F4FF3
S11358A0280F391F8F819885820F931F089620E255
S11358B0FC0120838F81988501968F8398878F813F
S11358C09885449714F38D819E8101968D839E83E0
S11358D08D819E810497B4F260E47CE980E090E0DD
S11358E00E94E42983E00E946D2A68E873E180E065
S11358F090E00E94E4290E94DF2A60EA70E080E0E0
S113590090E00E94E4290E94DF2A60EA70E080E0CF
S113591090E00E94E4290E94DF2A60EA70E080E0BF
S113592090E00E94E42982E00E946D2A0E94DF2A0E
S113593088E20E94F32A80E10E94F32A8CE00E940C
S1135940F32A86E00E94F32A68EC70E080E090E09D
S11359500E94FD138091012D9091022D40E050E0B2
S1135960BA010E94F805DC01CB01892B8A2B8B2B11
S113597009F496C08091012D9091022D42E050E0EF
S113598060E070E00E94F80519821A8226C01B822A
S11359901C821AC029813A8144E1429FC001439F7D
S11359A0900D11249E012F5F3F4F280F391F8B81CB
S11359B09C81820F931F089620E2FC0120838B8137
S11359C09C8101968B839C838B819C81449714F3E7
S11359D089819A81019689839A8389819A8104971E
S11359E0B4F25EC08091FF2C9091002DBE01675AE5
S11359F07F4F2FEF3FEFA9010E94500F882309F436
S1135A004FC019821A8232C0CE01875A9F4FFC01BF
S1135A108081482F50E0CE01875A9F4FFC0181813D
S1135A20282F30E089819A81820F931FBE01675A23
S1135A307F4F29813A81260F371F2E5F3F4FF9018F
S1135A40608174E1749F9001759F300D1124AE0143
S1135A504F5F5F4F240F351F820F931F0896FC0181
S1135A60608389819A81019689839A83CE01875ABA
S1135A709F4FFC018181282F30E089819A81820F18
S1135A80931F44976CF49E01275A3F4F89819A8152
S1135A90820F931F0296FC018081882309F0B4CF02
S1135AA08091FF2C9091002D0E941010882309F002
S1135AB099CF19821A8219C09E01275F3F4F4981ED
S1135AC05A8164E1649FC001659F900D1124280FE1
S1135AD0391F89819A81A90160E070E00E940F2C2E
S1135AE089819A81019689839A8389819A8104970D
S1135AF01CF32ACFCF93DF93CDB7DEB78091012D6E
S1135B009091022D42E050E060E070E00E94430674
S1135B100000DF91CF910895CF93DF931F921F92DE
S1135B20CDB7DEB7CE010E9689839A8329813A8157
S1135B304C855D856A857B85888599850E94A62D1F
S1135B4000000F900F90DF91CF9108950F93CF93A2
S1135B50DF93CDB7DEB7EC97CDBFDEBF8DAB9EAB89
S1135B606FAB78AF49AF5AAF2BAF3CAF19821A82F3
S1135B701B821C820BC08B819C818C53934DFC0136
S1135B8010828B819C8101968B839C838B819C8169
S1135B9044978CF31D821E820BC08D819E81885296
S1135BA0934DFC0110828D819E8101968D839E838D
S1135BB08D819E8144978CF3BEC18D89853209F015
S1135BC0A0C189AD9AAD9C012F5F3F4F29AF3AAF79
S1135BD0FC0180818D8B8D89882F90E0853691051D
S1135BE009F446C18636910554F48336910501F1D2
S1135BF0843691050CF070C0859769F09CC1833799
S1135C00910571F18837910509F4A8C0863691058C
S1135C1009F4E6C090C189819A818852934D25E2A6
S1135C20FC01208389819A81019689839A8383C1A7
S1135C308BAD9CAD9C012E5F3F4F2BAF3CAFFC0165
S1135C40808191818E8B89819A818852934D2E898E
S1135C50FC01208389819A81019689839A836BC18F
S1135C608BAD9CAD9C012E5F3F4F2BAF3CAFFC0135
S1135C70808191818F8B988F1F82188617C029810C
S1135C803A818F819885820F931F2F8138854F89A0
S1135C90588D240F351FF90120818852934DFC0142
S1135CA020838F81988501968F8398878F89988D1B
S1135CB00E94433B9C018F81988582179307F8F2D9
S1135CC08F89988D0E94433B9C0189819A81820F20
S1135CD0931F89839A832FC18BAD9CAD9C012E5F4A
S1135CE03F4F2BAF3CAFFC0180819181898F9A8F0C
