S016000043616C63756C6174696E675F50692E737265638F
S11300000C94E4010C940D020C940D020C940D025A
S11300100C940D020C940D020C940D020C940D0220
S11300200C940D020C940D020C940D020C940D0210
S11300300C940D020C940D020C94DC060C940D022D
S11300400C940D020C940D020C940D020C940D02F0
S11300500C94A41B0C940D020C940D020C940D0230
S11300600C940D020C940D020C940D020C940D02D0
S11300700C940D020C940D020C940D020C940D02C0
S11300800C940D020C940D020C940D020C940D02B0
S11300900C940D020C940D020C940D020C940D02A0
S11300A00C940D020C940D020C940D020C940D0290
S11300B00C940D020C940D020C940D020C940D0280
S11300C00C940D020C940D020C940D020C940D0270
S11300D00C940D020C940D020C940D020C940D0260
S11300E00C940D020C940D020C940D020C940D0250
S11300F00C940D020C940D020C940D020C940D0240
S11301000C940D020C940D020C940D020C940D022F
S11301100C940D020C940D020C940D020C940D021F
S11301200C940D020C940D020C940D020C940D020F
S11301300C940D020C940D020C940D020C940D02FF
S11301400C940D020C940D020C940D020C940D02EF
S11301500C940D020C940D020C940D020C940D02DF
S11301600C940D020C940D020C940D020C940D02CF
S11301700C940D020C940D020C940D020C940D02BF
S11301800C940D020C940D020C940D020C940D02AF
S11301900C940D020C940D020C940D020C940D029F
S11301A00C940D020C940D020C940D020C940D028F
S11301B00C94EF1B0C940D020C940D020C940D0284
S11301C00C940D020C940D020C940D020C940D026F
S11301D00C940D020C940D020C940D020C940D025F
S11301E00C940D020C940D020C940D020C940D024F
S11301F00C940D020C940D020C940D022714271478
S1130200271474145C1471142714271474145C14C4
S113021007634236B79BD8A71A39685618AEBAABEB
S1130220558C1D3CB7CC5763BD6DEDFD753EF6177F
S11302307231BF000000803F08000000BE922449D4
S1130240123EABAAAA2ABECDCCCC4C3E0000008004
S1130250BEABAAAAAA3E00000000BF000000803F77
S11302600000000000084178D3BB4387D1133D1937
S11302700E3CC3BD4282AD2B3E68EC8276BED98F64
S1130280E1A93E4C80EFFFBE01C4FF7F3F000000A8
S113029000000C94E2160C948E1D0C9474140C94AF
S11302A0C7040C9427140C946B130C94861A0C94A6
S11302B071140C94C2190C94F8140C94E1150C9458
S11302C05C140C94F10A6E616E00696E6600004065
S11302D07A10F35A00A0724E18090010A5D4E80051
S11302E000E87648170000E40B54020000CA9A3B69
S11302F0000000E1F50500008096980000004042EF
S11303000F000000A086010000001027000000007C
S1130310E803000000006400000000000A00000080
S113032000000100000000002C76D888DC674F082C
S113033023DFC1DFAE59E1B1B796E5E3E453C63A32
S1130340E651997696E8E6C28426EB898C9B62EDA9
S1130350407C6FFCEFBC9C9F40F2BAA56FA5F49063
S1130360055A2AF75C936B6CF9676DC11BFCE0E4DA
S11303700D47FEF520E6B500D0ED902E0300943530
S113038077050080841E080000204E0A000000C883
S11303900C333333330F986E12831141EF8D2114D4
S11303A0893BE65516CFFEE6DB18D1844B381BF7A4
S11303B07C1D901DA4BBE424203284725E22810043
S11303C0C9F124ECA1E53D2711241FBECFEFCDBF19
S11303D0DFE3DEBF00E00CBFE9E1FDE28AEA90E47E
S11303E08193E030F907E0F310E2A0E0B0E2EAEF35
S11303F0F6E500E00BBF02C007900D92AA36B107E4
S1130400D9F72DE2AAE6B0E201C01D92A931B207E4
S1130410E1F70E94221B0C947B2B0C940000E0EA71
S1130420F6E080E1828380E2828380E4828380E854
S1130430828308958091A80684FD0EC08091702067
S11304409091712080362AEE9207E8F40196809309
S113045070209093712017C080917020909171202A
S11304608B30910548F0C39718F01092022D07C005
S113047081E08093022D03C082E08093022D1092CC
S11304807020109271208091A80685FD0EC0809185
S11304906E2090916F2080362AEE9207E8F4019640
S11304A080936E2090936F2017C080916E2090915E
S11304B06F208B30910548F0C39718F01092032DEC
S11304C007C081E08093032D03C082E08093032D55
S11304D010926E2010926F208091A80686FD0EC0A7
S11304E080916C2090916D2080362AEE9207E8F47A
S11304F0019680936C2090936D2017C080916C209E
S113050090916D208B30910548F0C39718F01092AC
S1130510042D07C081E08093042D03C082E0809302
S1130520042D10926C2010926D208091A8068823CF
S113053074F080916A2090916B2080362AEE9207A5
S1130540E8F4019680936A2090936B20089580913B
S11305506A2090916B208B30910548F0C39718F076
S11305601092052D07C081E08093052D03C082E021
S11305708093052D10926A2010926B20089581308B
S113058049F028F0823049F0833051F00CC080915A
S1130590022D08958091032D08958091042D0895CE
S11305A08091052D089582E008950F93CF93DF93F2
S11305B01F92CDB7DEB72FB72983F8941BBEFC0179
S11305C008ED04BF608389818FBF0F90DF91CF91C5
S11305D00F910895611102C090E001C090E2842B54
S11305E0892B8093520008956F71862B8093550058
S11305F00895E0E5F0E09081282F209592239083E0
S1130600908189230895682B81E490E00E94D502AB
S113061008950F931F93CF93C82F00E410E0F801BF
S11306206081687F682B80E490E00E94D502F80125
S113063080818C23CF911F910F910895FC019081AB
S1130640907F692B60830895FC019181987F692BC9
S113065061830895FC0196819C7F692B66830895CC
S1130660000088ED84BF81E08093790008950E94A2
S113067030030895CF93DF9380E190E00E94D70484
S1130680EC01009741F0FC01119211921192119228
S1130690CF010E94FE04CE01DF91CF9108952F92E5
S11306A03F924F925F926F927F928F929F92AF92FE
S11306B0BF92CF92DF92EF92FF920F931F93CF934B
S11306C0DF93EC014A015B01622E702E0E94840CC0
S11306D0288039804A805B8001110DC081E0B2011D
S11306E0A101482159216A217B21452B462B472B07
S11306F079F480E00DC081E0B201A10148215921C3
S11307006A217B21481559056A057B0509F080E0BB
S1130710882381F0662009F470C080949094A0949A
S1130720B09482209320A420B52088829982AA8242
S1130730BB8263C0C114D104E104F10409F45DC0B7
S1130740662029F040E050E060E071E003C040E042
S113075050E0BA0171107460482959296A297B292B
S113076097018601CE0104960E94B30E0E946F0D7C
S1130770811102C00E945C060E94F00F91FD39C0F5
S1130780F091A200FF93F87FF093A2006881798131
S11307908A819B8171100DC021E075016401C6221C
S11307A0D722E822F922CD28CE28CF2879F420E0D8
S11307B00DC021E075016401C622D722E822F92286
S11307C0C814D904EA04FB0409F020E0222371F0E0
S11307D0662061F080949094A094B094862297222D
S11307E0A822B92288829982AA82BB82FF91F093BF
S11307F0A2001B012C01552402C00E946F0DC201EE
S1130800B101DF91CF911F910F91FF90EF90DF9095
S1130810CF90BF90AF909F908F907F906F905F909C
S11308204F903F902F9008950F931F93F091A20043
S1130830FF93F87FF093A200FC01008111812281D3
S113084033814095509560957095402351236223E0
S113085073234083518362837383FF91F093A200D7
S1130860C901B8011F910F9108954F925F926F9241
S11308707F92AF92BF92CF92DF92EF92FF920F934B
S11308801F93CF93DF93EC016A017B018C01095F15
S11308901F4F0E94840CEB85FC8588819981AA8175
S11308A0BB81C82AD92AEA2AFB2AC882D982EA82C9
S11308B0FB820E171F0709F442C0C12CD12C76010C
S11308C0A480B58080819181A281B381AC01BD01F6
S11308D07727B2FD0FC0488059806A807B8044220C
S11308E055226622772221E045284628472889F4A4
S11308F020E00FC0488059806A807B8044225522C2
S11309006622772221E0441655066606770609F02A
S113091020E0222371F0B0FF04C0C42AD52AE62ABD
S1130920F72A488159816A817B817260CF010E94D4
S11309303B0FEA2DFB2D0E171F0711F603C0C12C28
S1130940D12C7601C094D094E094F094888199815C
S1130950AA81BB81C822D922EA22FB22C882D98279
S1130960EA82FB820E946F0D688179818A819B8172
S1130970DF91CF911F910F91FF90EF90DF90CF9077
S1130980BF90AF907F906F905F904F9008950E94BA
S1130990350408950F931F9389019A01AB01BC019B
S11309A087EC94E00E949A141F910F910895CF93BD
S11309B0DF93EC010E94840C20917220309173200B
S11309C0C9018C0F9D1F883B4BE0940758F42817EE
S11309D0390758F4E901CC58DF4D80937220909385
S11309E0732005C0C0E0D0E002C0C0E0D0E00E94A7
S11309F06F0DCE01DF91CF9108950895FC01039608
S1130A00818392834FEF5FEFBA01438354836583FD
S1130A107683878390878187928710820895FC016B
S1130A20128613860895CF93DF939C01FB01DC01AA
S1130A301196CD91DC911297C483D5838E819F81C9
S1130A40868397838E819F81DC0114966D937C93BA
S1130A5015976E837F8322873387F90180818F5FA7
S1130A608083DF91CF9108950F931F93CF93DF93EA
S1130A70EB01088119812A813B810F3F4FEF140755
S1130A802407340721F4FC01A185B28511C0DC01DF
S1130A90139601C0DF011496ED91FC9115974081E6
S1130AA0518162817381041715072607370790F770
S1130AB01496ED91FC911597EC83FD83C683D7833F
S1130AC0AE83BF831496CD93DC9315978A879B8757
S1130AD0FC0120812F5F2083DF91CF911F910F9123
S1130AE00895CF93DF93FC01A285B385C481D5819A
S1130AF0868197818E839F83C681D78184819581E6
S1130B008C839D8311968D919C911297E817F90718
S1130B1031F48681978111968D939C931297128656
S1130B2013868C9181508C938C91DF91CF91089591
S1130B30E0EAF0E082819281987F92830895CF92D7
S1130B40DF92EF92FF9231E1FC013083319722E290
S1130B5020833197A3E3A0836B01E12CF12C31971F
S1130B6060833197D0823197E082319761E360836B
S1130B70319760E86083319767E86083319710822A
S1130B8031971082319762E06083319763E060832C
S1130B90319764E06083319765E06083319766E064
S1130BA06083319767E06083319768E060833197B1
S1130BB069E06083319760E16083319730833197D6
S1130BC032E13083319733E13083319734E130833C
S1130BD0319735E13083319736E13083319737E10E
S1130BE03083319738E13083319739E1308331975D
S1130BF030E23083319731E230833197208331976B
S1130C0023E220836A01319740833197D082319760
S1130C1026E22083319727E22083319728E220833C
S1130C20319729E22083319720E320838897FF902E
S1130C30EF90DF90CF90089583EF91E080932608A2
S1130C409093270865E080E098E00E941E0361E02D
S1130C5080E098E00E942A03A091A62CB091A72CD2
S1130C600D900DBE0D900EBEEF91DF91CF91BF910F
S1130C70AF919F918F917F916F915F914F913F9130
S1130C802F911F910F91FF90EF90DF90CF90BF9025
S1130C90AF909F908F907F906F905F904F903F9018
S1130CA02F901F900F90FF91F093A200FF91FFBF30
S1130CB0FF91089581E00895FF93FFB7FF93F091AA
S1130CC0A200FF93F87FF093A2000F921F921124C9
S1130CD02F923F924F925F926F927F928F929F9248
S1130CE0AF92BF92CF92DF92EF92FF920F931F9336
S1130CF02F933F934F935F936F937F938F939F9320
S1130D00AF93BF93CF93DF93EF93A091A62CB091B1
S1130D10A72C0DB60D920EB60D920E940D0EA09149
S1130D20A62CB091A72C0D900DBE0D900EBEEF9188
S1130D30DF91CF91BF91AF919F918F917F916F91EF
S1130D405F914F913F912F911F910F91FF90EF90E1
S1130D50DF90CF90BF90AF909F908F907F906F90D7
S1130D605F904F903F902F901F900F90FF91F093C2
S1130D70A200FF91FFBFFF910895CF939091062D9C
S1130D80892B8093062D9091A000913041F0909191
S1130D90A000923021F09091A000943059F488235F
S1130DA049F00E949805C82F1092062D0E940D0E3E
S1130DB0C093A200CF910895FF93FFB7FF93F091E2
S1130DC0A200FF93F87FF093A2000F921F921124C8
S1130DD02F923F924F925F926F927F928F929F9247
S1130DE0AF92BF92CF92DF92EF92FF920F931F9335
S1130DF02F933F934F935F936F937F938F939F931F
S1130E00AF93BF93CF93DF93EF93A091A62CB091B0
S1130E10A72C0DB60D920EB60D920E949805C82F00
S1130E200E949C0CC093A20081E00E94BD06A09188
S1130E30A62CB091A72C0D900DBE0D900EBEEF9177
S1130E40DF91CF91BF91AF919F918F917F916F91DE
S1130E505F914F913F912F911F910F91FF90EF90D0
S1130E60DF90CF90BF90AF909F908F907F906F90C6
S1130E705F904F903F902F901F900F90FF91F093B1
S1130E80A200FF91FFBFFF911895F091A200FF937C
S1130E90F87FF093A200FC01968DFF91F093A200DD
S1130EA081E0911180E00895DC01F091A200FF93AC
S1130EB0F87FF093A2005E969C915E97FF91F09369
S1130EC0A20081E05F962C91291380E008950F938E
S1130ED01F93CF93DF93EC01042F1E8D48A144236D
S1130EE0B9F1011116C050E08C819D810E94682ADD
S1130EF028A18C819D81820F911D8C839D832A81E1
S1130F003B818217930720F1888199818C839D838B
S1130F101FC050E08E819F810E94682A88A190E0C2
S1130F209195819591092E813F81280F391F2E8338
S1130F303F83488159812417350730F42A813B8146
S1130F40820F931F8E839F83023011F4111111506D
S1130F501F5F1E8F80E0DF91CF911F910F91089545
S1130F60FC0140A14423A9F050E026813781240FDD
S1130F70351F26833783828193812817390720F010
S1130F808081918186839783CB01668177810E94DA
S1130F90682A0895EF92FF920F931F93CF938C01C9
S1130FA0F091A200FF93F87FF093A200FC01C2A18C
S1130FB01C16ACF48389811106C011C0F801838921
S1130FC0811105C00CC07801F3E1EF0EF11CC701DB
S1130FD00E94F90E81110E94DE0FC15079F78FEF44
S1130FE0F80182A3FF91F093A200F091A200FF9375
S1130FF0F87FF093A200F801C1A11C16ACF480851F
S1131000811106C011C0F8018085811105C00CC092
S11310107801F8E0EF0EF11CC7010E94F90E81116E
S11310200E94DE0FC15079F78FEFF80181A3FF9181
S1131030F093A200CF911F910F91FF90EF9008952C
S1131040CF93DF93EC01F091A200FF93F87FF0932C
S1131050A2004881598128A130E07F8D729FC00190
S1131060739F900D1124FA01E80FF91FEA83FB83A3
S11310701E8E4C835D83821B930B840F951F8E837E
S11310809F838FEF89A38AA361110CC0888588236D
S113109089F0CE0108960E94F90E882359F00E9427
S11310A05C0608C0CE0108960E94FE04CE01439659
S11310B00E94FE04FF91F093A20081E0DF91CF91A2
S11310C00895FF920F931F93CF93DF93082F162F4A
S11310D0F42E6623C9F0869FC001112485960E94D0
S11310E0D704EC01009749F416C00F8F18A361E0F0
S11310F0CE010E942008FCA20EC0859688839983A5
S1131100F4CFC883D983F1CF85E290E00E94D7045D
S1131110EC01892BB1F7CE01DF91CF911F910F9193
S1131120FF900895AF92BF92CF92DF92EF92FF9219
S11311300F931F93CF93DF93CDB7DEB72997CDBF1E
S1131140DEBF7C015B012E833F834887598710E013
S11311506C0188E0C80ED11CF091A200FF93F87FC7
S1131160F093A200F701968D878D981710F0023046
S1131170D1F4402FB501C7010E946707F701938995
S1131180992349F0C70143960E94F90E882331F050
S11311900E945C0603C081110E945C06FF91F093DB
S11311A0A20081E057C08E819F81A885B985892BD3
S11311B08A2B8B2B29F4FF91F093A20080E04AC084
S11311C0111105C0CE0101960E946F0F11E0FF912D
S11311D0F093A2000E94840CF091A200FF93F87F88
S11311E0F093A200F70181A18F3F09F411A2F70146
S11311F082A18F3F09F412A2FF91F093A200BE01D5
S11312006A5F7F4FCE0101960E94800F81111CC03E
S1131210C7010E945407882389F04E815F81688545
S11312207985C6010E949B0EC7010E94CA070E94CD
S11312306F0D811191CF0E945C068ECFC7010E9471
S1131240CA070E946F0D88CFC7010E94CA070E9477
S11312506F0D80E02996CDBFDEBFDF91CF911F9146
S11312600F91FF90EF90DF90CF90BF90AF900895D3
S1131270AF92BF92CF92DF92FF920F931F93CF93BF
S1131280DF93EC016B015A01022F0E949805F82E9E
S11312909E8D8F8D981710F00230E1F41AA1402F23
S11312A0B601CE010E9467071F3F81F48B89882312
S11312B099F0CE0143960E94F90E882379F0A11487
S11312C0B10471F081E0F50180830BC01F5F1AA3A4
S11312D081E007C080E005C081E003C081E001C077
S11312E081E0F092A200DF91CF911F910F91FF90C6
S11312F0DF90CF90BF90AF900895AF92BF92CF92FE
S1131300DF92EF92FF920F931F93CF93DF93CDB7AA
S1131310DEB72997CDBFDEBF8C015B012E833F83EF
S113132048875987E12C6C0183E1C80ED11CF091E8
S1131330A200FF93F87FF093A200F801F68CFF203F
S1131340B1F0B501C8010E94B007FA94F801F68E15
S11313508085882339F0C80108960E94F90E81110E
S11313600E945C06FF91F093A20081E05EC08E8132
S11313709F81A885B985892B8A2B8B2B29F4FF9112
S1131380F093A20080E051C0E11006C0CE010196A6
S11313900E946F0FEE24E394FF91F093A2000E9449
S11313A0840CF091A200FF93F87FF093A200F8015F
S11313B081A18F3F09F411A2F80182A18F3F09F4A2
S11313C012A2FF91F093A200BE016A5F7F4FCE018B
S11313D001960E94800F81111CC0C8010E9445071C
S11313E0882389F04E815F8168857985C6010E94D2
S11313F09B0EC8010E94CA070E946F0D811197CFEE
S11314000E945C0694CFC8010E94CA070E946F0D17
S11314108ECFC8010E94CA070E946F0DC8010E94A6
S11314204507882309F483CF80E02996CDBFDEBF2A
S1131430DF91CF911F910F91FF90EF90DF90CF90AC
S1131440BF90AF900895F091A200FF93F87FF093BE
S1131450A200FC01868DFF91F093A2000895CF9322
S1131460DF93EC01F091A200FF93F87FF093A200C8
S113147089A18F3F09F419A28AA18F3F09F41AA206
S1131480FF91F093A2008E8D811104C0CE0143968A
S11314900E94D80ECE010E94CA07DF91CF91089511
S11314A0E091622CF091632C808181110CC08FEF4C
S11314B09FEFDC0180932F2C9093302CA093312C40
S11314C0B093322C0895E091622CF091632C078044
S11314D0F085E02D0084F185E02D82819381A48143
S11314E0B58180932F2C9093302CA093312CB09302
S11314F0322C08958F929F92AF92BF92CF92DF9237
S1131500EF92FF92CF936B017C01C42F8090392C12
S113151090903A2CA0903B2CB0903C2C8091A62C1F
S11315209091A72C02960E9471058FEFC816D806D9
S1131530E806F80669F4CC2359F06091A62C709162
S1131540A72C6E5F7F4F8EE39CE20E9413053FC081
S1131550C80CD91CEA1CFB1CE091A62CF091A72C0A
S1131560C282D382E482F582C814D904EA04FB045B
S113157068F46091A62C7091A72C8091602C9091B6
S1131580612C6E5F7F4F0E94340521C06091A62CB0
S11315907091A72C8091622C9091632C6E5F7F4F89
S11315A00E94340580912F2C9091302CA091312CE5
S11315B0B091322CC816D906EA06FB0640F4C09254
S11315C02F2CD092302CE092312CF092322CCF91EF
S11315D0FF90EF90DF90CF90BF90AF909F908F904F
S11315E008950AE41CE20F2EFAE7EF2EFCE2FF2E28
S11315F0F02D8091492C882349F1F091A200FF93AA
S1131600F87FF093A200D8011796ED91FC911897FA
S1131610C085D185CE0102960E94710580913D2C32
S1131620815080933D2C8091492C81508093492C8A
S1131630FF91F093A2008B8D9C8D0E94FD04CE013E
S11316400E94FD048091492C8111D7CFF70180813C
S1131650823010F00E945C060E94211BCACF4F9278
S11316605F926F927F928F929F92AF92BF92CF922E
S1131670DF92EF92FF920F93CF93DF934C016B01B4
S11316805A012901CA010E94D7043C01892B09F49B
S1131690EFC08CE290E00E94D704EC01892BB1F0FA
S11316A06B8E7C8EA50165EA70E0C3010E94712AED
S11316B021E0A21AB1088B8D9C8DA80EB91ED6010B
S11316C08C918D8F8C91811105C018C0C3010E942B
S11316D0FD04CEC0AE01425E5F4FF6013196B8E024
S11316E0CB0ED11CCF012191DA012D93AD01DC0188
S11316F08C91882319F0EC15FD05A1F71CA2043088
S113170008F003E00A8F6E01B2E0CB0ED11CC601D3
S11317100E940F05CE010E960E940F05CA87DB8733
S113172084E090E0A0E0B0E0801B9109A109B10938
S11317308E879F87A88BB98BCE8BDF8B1FA218A6B1
S113174019A61AA61BA6A201B401C5010E949F05F1
S113175088839983E114F10419F0F701C083D183DC
S1131760F091A200FF93F87FF093A20080913D2CAA
S11317708F5F80933D2C8091A62C9091A72C892B70
S1131780D1F5C093A62CD093A72C80913D2C813009
S113179009F041C08AE79CE20E94FE0485E89CE2CD
S11317A00E94FE0480E99CE20E94FE048BE99CE214
S11317B00E94FE048FE69CE20E94FE0484E69CE202
S11317C00E94FE0485E59CE20E94FE048AE49CE2F9
S11317D00E94FE048EE39CE20E94FE048FE69CE2DB
S11317E08093622C9093632C84E69CE28093602C1B
S11317F09093612C10C08091372C81110CC0E09122
S1131800A62CF091A72C928D8A8D891720F0C09375
S1131810A62CD093A72C8091332C8F5F8093332CEC
S11318208DA38A8D9091382C981710F48093382CBE
S1131830FBE08F9FC0011124B6018658934D0E948E
S11318401305FF91F093A2008091372C882361F057
S1131850E091A62CF091A72C928D8A8D981730F4E4
S11318600E945C0681E005C081E003C081E001C004
S11318708FEFDF91CF910F91FF90EF90DF90CF909A
S1131880BF90AF909F908F907F906F905F904F909C
S11318900895EF92FF920F930F2EFDE2EF2EFCE2DC
S11318A0FF2EF02D00E020E030E048EC50E060E056
S11318B070E281EF9AE00E942F0B813009F50E94BB
S11318C058128130E9F4E0EAF0E08281887F828373
S11318D08FEF9FEFDC0180932F2C9093302CA093FB
S11318E0312CB093322C81E08093372C1092392C18
S11318F010923A2C10923B2C10923C2C0E941C0605
S11319000F91FF90EF90089580912C2C8F5F80931E
S11319102C2C0895F091A200FF93F87FF093A2007D
S11319206091392C70913A2C80913B2C90913C2CF5
S1131930FF91F093A2000895AF92BF92CF92DF92ED
S1131940EF92FF920F931F93CF93DF9380912C2CF0
S11319508111ADC0C090392CD0903A2CE0903B2C32
S1131960F0903C2C8FEFC81AD80AE80AF80AC09203
S1131970392CD0923A2CE0923B2CF0923C2CC1149E
S1131980D104E104F104B9F48091622C9091632CA8
S11319902091602C3091612C2093622C3093632C25
S11319A08093602C9093612C8091342C8F5F809372
S11319B0342C0E94500A80912F2C9091302CA091AD
S11319C0312CB091322CC816D906EA06FB0610F465
S11319D0B12C5CC0B12C0F2EFBE0AF2EF02DE091AA
S11319E0622CF091632C808181110CC08FEF9FEFEA
S11319F0DC0180932F2C9093302CA093312CB09346
S1131A00322C44C0E091622CF091632C0780F08565
S1131A10E02DC085D1858A819B81AC81BD81C816AA
S1131A20D906EA06FB0648F480932F2C9093302CB9
S1131A30A093312CB093322C29C08E010E5F1F4F1E
S1131A40C8010E947105888D998D892B21F0CE01E2
S1131A500E960E9471058A8D9091382C981710F477
S1131A608093382CA89EC0011124B8018658934D48
S1131A700E941305E091A62CF091A72C9A8D828DDB
S1131A80981708F4ACCFBB24B394A9CFE091A62C4B
S1131A90F091A72CE28D8BE0E89FF0011124E65829
S1131AA0F34D8081823048F0BB24B39406C080910A
S1131AB0362C8F5F8093362CB12C8091352C882363
S1131AC011F0BB24B3948B2DDF91CF911F910F9113
S1131AD0FF90EF90DF90CF90BF90AF900895CF929A
S1131AE0DF92EF92FF920F931F93CF93DF93F091C6
S1131AF0A200FF93F87FF093A20080912C2C8150D8
S1131B0080932C2C80912C2C81115CC080913D2CD5
S1131B1081112CC05AC0D7011796ED91FC911897EA
S1131B20C085D185CE010E960E9471058E010E5F8F
S1131B301F4FC8010E9471058A8D9091382C981707
S1131B4010F48093382CD89EC0011124B801865813
S1131B50934D0E941305E091A62CF091A72C9A8D29
S1131B60828D981788F0C092352C0EC0C0E0D0E06A
S1131B700F2EF5E5EF2EFCE2FF2EF02D0F2EFBE0ED
S1131B80DF2EF02DCC24C394F70180818111C3CFC3
S1131B90CD2B11F00E94500AC091362CCC2351F069
S1131BA0D1E00E949C0C8111D093352CC150C9F70F
S1131BB01092362C8091352C882331F00E945C06DB
S1131BC081E003C080E001C080E0FF91F093A200B7
S1131BD0DF91CF911F910F91FF90EF90DF90CF9005
S1131BE00895CF92DF92EF92FF926B017C01672BF5
S1131BF0682B692B59F00E94840C40E0C701B601A0
S1131C000E947A0A0E946F0D811102C00E945C0634
S1131C10FF90EF90DF90CF90089580912C2C882333
S1131C2021F081E08093352C08951092352CE091B9
S1131C30A62CF091A72C038CF48DE02D808191814A
S1131C40A281B381853A954AA54AB54AD9F48481DB
S1131C509581A681B781853A954AA54AB54A91F4FA
S1131C6080859185A285B385853A954AA54AB54A6A
S1131C7049F484859585A685B785853A954AA54A0C
S1131C80B54A61F06091A62C7091A72C8091A62C86
S1131C909091A72C635E7F4F0E9437038091382C6C
S1131CA0282F30E09BE0899FF0011124E658F34D82
S1131CB0908191110EC04BE08150282F30E0429F5B
S1131CC0F001439FF00D1124E658F34D90819923C0
S1131CD099F39BE0929FA001939F500D1124DA0188
S1131CE0A658B34D1196ED91FC9112970480F5819D
S1131CF0E02D1196ED93FC9312974358534DE4173E
S1131D00F50729F444815581FD01418352839BE009
S1131D10929FF001939FF00D1124E658F34D01803A
S1131D20F281E02D208531852093A62C3093A72CB9
S1131D308093382C0895CF92DF92EF92FF926A013C
S1131D407B016091A62C7091A72C625F7F4F0E944B
S1131D50340541E0C701B6010E947A0AFF90EF9072
S1131D60DF90CF900895CF92DF92EF92FF920F937E
S1131D701F9368017901E091A62CF091A72C70685B
S1131D8046875787608B718B6091A62C7091A72C26
S1131D90625F7F4F0E94130541E0C701B6010E94B4
S1131DA07A0A1F910F91FF90EF90DF90CF900895E2
S1131DB0CF92DF92EF92FF92CF936A017B01C22F01
S1131DC06091A62C7091A72C625F7F4F0E9413052F
S1131DD0CC2321F0CC24CA94DC2C76014C2FC701EF
S1131DE0B6010E947A0ACF91FF90EF90DF90CF90D6
S1131DF008950F931F93CF93DF93DC011796ED9112
S1131E00FC911897C085D1858E01025F1F4FC801D0
S1131E100E94710580912C2C811116C00C5011095F
S1131E20C8010E9471058A8D9091382C981710F47E
S1131E308093382CBBE08B9FC0011124B8018658D5
S1131E40934D0E94130505C0B80185E59CE20E94EC
S1131E501305E091A62CF091A72C9A8D828D8917F9
S1131E6020F481E08093352C01C080E0DF91CF9194
S1131E701F910F9108950F931F93CF93DF93706871
S1131E80FC014083518362837383C085D1850E94A2
S1131E9071058E010E5F1F4FC8010E9471058A8D66
S1131EA09091382C981710F48093382CFBE08F9F76
S1131EB0C0011124B8018658934D0E941305E09186
S1131EC0A62CF091A72C9A8D828D891718F481E0A5
S1131ED08093352CDF91CF911F910F91089520911C
S1131EE0342CFC0120834091392C50913A2C609180
S1131EF03B2C70913C2C41835283638374830895FB
S1131F00CF92DF92EF92FF920F931F93CF93DF93C1
S1131F10DB01F091A200FF93F87FF093A2004091BF
S1131F20392C50913A2C60913B2C70913C2C0D91A2
S1131F301D912D913C9113970F3FCFEF1C072C0758
S1131F403C0769F1FC01C180D280E380F480E09118
S1131F50342CEC01F881FE1729F04C155D056E0553
S1131F607F05F8F44C195D096E097F094017510784
S1131F706207730768F4FD01041B150B260B370B6E
S1131F8000831183228333830E946F0F80E00AC091
S1131F901D921D921D921C92139781E003C080E054
S1131FA001C081E0FF91F093A200DF91CF911F91D6
S1131FB00F91FF90EF90DF90CF90089581E0809390
S1131FC0352C08958091372C882331F080912C2C66
S1131FD0882321F080E0089581E0089582E0089547
S1131FE0CF92DF92EF92FF92E091A62CF091A72C72
S1131FF06685778580899189E091A62CF091A72C3C
S1132000A091A62CB091A72C5A962C91C12CD12C1E
S113201076016894C2F8C21AD108E108F108C686AC
S1132020D786E08AF18AFF90EF90DF90CF900895F1
S11320304F925F926F927F928F929F92AF92BF92D4
S1132040CF92DF92EF92FF920F931F9349015A01AF
S1132050F091A200FF93F87FF093A200E091A62CE8
S1132060F091A72C23A5223041F1E091A62CF09108
S1132070A72C47A050A461A472A4DC01CB018095D5
S11320809095A095B09584219521A621B72187A389
S113209090A7A1A7B2A7E091A62CF091A72C81E06C
S11320A083A7C114D104E104F10439F041E0C7016C
S11320B0B6010E947A0A0E945C06FF91F093A20086
S11320C0F091A200FF93F87FF093A200011511058F
S11320D069F0E091A62CF091A72C87A190A5A1A569
S11320E0B2A5F80180839183A283B383E091A62CE7
S11320F0F091A72C83A58230B1F4E091A62CF09145
S1132100A72C87A190A5A1A5B2A580949094A09492
S1132110B09488229922AA22BB2287A290A6A1A6C3
S1132120B2A681E001C080E0E091A62CF091A72C3A
S113213013A6FF91F093A2001F910F91FF90EF90CF
S1132140DF90CF90BF90AF909F908F907F906F90D3
S11321505F904F900895CF92DF92EF92FF920F938A
S11321601F93CF93DF93DC01F091A200FF93F87FDC
S1132170F093A2000115110559F09796CD90DD90CA
S1132180ED90FC909A97F801C082D182E282F382AA
S11321909B968C919B9792E09B969C939B97223065
S11321A0D1F018F4213031F036C0233029F1243035
S11321B051F131C097960D911D912D913C919A97B3
S11321C0402B512B622B732B97964D935D936D93FC
S11321D07C939A9720C097964D915D916D917C91D7
S11321E09A974F5F5F4F6F4F7F4F97964D935D93D5
S11321F06D937C939A970FC097964D935D936D93CF
S11322007C939A9708C0823059F197964D935D93C9
S11322106D937C939A97813029F5ED018D010E5FC2
S11322201F4FC8010E9471058A8D9091382C981710
S113223010F48093382CFBE08F9FC0011124B80167
S11322408658934D0E941305E091A62CF091A72C7B
S11322509A8D828D891740F40E945C0681E005C046
S113226080E003C081E001C081E0FF91F093A2000F
S1132270DF91CF911F910F91FF90EF90DF90CF905E
S113228008958F929F92AF92BF92CF92DF92EF9276
S1132290FF920F931F93CF93DF93EC014A015B01ED
S11322A0D22E0E949805C82E0115110549F08FA160
S11322B098A5A9A5BAA5F80180839183A283B383C5
S11322C08BA592E09BA7D916D1F09D1520F0F1E0E3
S11322D0DF1641F02CC023E0D216F1F094E0D916B9
S11322E001F125C04FA158A569A57AA5842A952A8C
S11322F0A62AB72A8FA298A6A9A6BAA618C04FA143
S113230058A569A57AA54F5F5F4F6F4F7F4F4FA3C5
S113231058A769A77AA70BC08FA298A6A9A6BAA6A0
S113232006C08230D9F18FA298A6A9A6BAA6813098
S1132330B9F580912C2C811117C08E010E5F1F4FAF
S1132340C8010E9471058A8D9091382C981710F459
S11323508093382CEBE08E9FC0011124B80186587D
S1132360934D0E94130507C0BE01625F7F4F85E550
S11323709CE20E941305E091A62CF091A72C9A8D63
S1132380828D891778F4E114F10421F081E0F701DA
S1132390808309C081E08093352C05C080E003C0B0
S11323A081E001C081E0C092A200DF91CF911F9132
S11323B00F91FF90EF90DF90CF90BF90AF909F90E0
S11323C08F900895CF92DF92EF92FF920F931F9315
S11323D0FC01428353836483758382879387041744
S11323E0150726073707C0F00C191D092E093F09E8
S11323F086859785A089B189081719072A073B079D
S113240000F5BF016E5F7F4F8091B02C9091B12C8D
S11324100E94340580E018C00C151D052E053F05EB
S113242028F44C155D056E057F0568F4BF016E5FE9
S11324307F4F8091B22C9091B32C0E94340580E0A0
S113244003C081E001C081E01F910F91FF90EF90E4
S1132450DF90CF900895F091A200FF93F87FF0935E
S1132460A2008091AE2C9091AF2C892BE9F48FEBD4
S11324709CE20E94FE0484EB9CE20E94FE048FEB2B
S11324809CE28093B22C9093B32C84EB9CE28093D7
S1132490B02C9093B12C40E069E085E00E94610883
S11324A08093AE2C9093AF2CFF91F093A2000895EB
S11324B0EF92FF920F930E942B128091AE2C909179
S11324C0AF2C892B91F00F2EFCEAEF2EFCE2FF2EAD
S11324D0F02D03E020E030E048EC50E065E070E2ED
S11324E08BE693E10E942F0B01C080E00F91FF90D7
S11324F0EF9008958F929F92AF92BF92CF92DF9206
S1132500EF92FF920F931F93CF93DF93CDB7DEB774
S11325102997CDBFDEBFE091AE2CF091AF2C309760
S113252089F169832A833B834C835D838E839F83F4
S11325306630FCF40E94E20F823069F400E0A701E7
S11325409601BE016F5F7F4F8091AE2C9091AF2CAE
S11325500E94920818C000E020E030E0A901BE010A
S11325606F5F7F4F8091AE2C9091AF2C0E949208A8
S11325700AC020E0A801BE016F5F7F4FCF010E9417
S1132580380901C080E02996CDBFDEBFDF91CF912D
S11325901F910F91FF90EF90DF90CF90BF90AF907D
S11325A09F908F9008952F923F924F925F926F92D7
S11325B07F928F929F92AF92BF92CF92DF92EF92CF
S11325C0FF920F931F93CF93DF931C010E948A0CF9
S11325D02B013C018091A82C9091A92CA091AA2CAC
S11325E0B091AB2C481659066A067B0608F054C015
S11325F03CC00780F085E02D80809180A280B3806C
S1132600C085D1858E010E5F1F4FC8010E947105E0
S1132610ED89FE89CE0119958A89813031F58E853F
S11326209F85A889B989880D991DAA1DBB1D881687
S11326309906AA06BB0670F48A839B83AC83BD8388
S1132640CA87DB87B8018091B22C9091B32C0E9489
S113265034050BC0C12CD12C760100E010E0A5019B
S1132660940160E0CE010E947A12E091B22CF091C4
S1132670B32C80818111BDCF8091B02C9091B12C6D
S11326808093B22C9093B32CE093B02CF093B12CA4
S113269081E0F101808302C0F10110824092A82CF4
S11326A05092A92C6092AA2C7092AB2CC301B20157
S11326B0DF91CF911F910F91FF90EF90DF90CF901A
S11326C0BF90AF909F908F907F906F905F904F904E
S11326D03F902F900895CF93DF93CDB7DEB72E9719
S11326E0CDBFDEBFCE0101961C01A82EB32CE09114
S11326F0B22CF091B32C8081882309F403C10780A4
S1132700F085E02D40805180628073800E94840CAB
S1132710C1010E94D3126B877C878D879E87898134
S113272081115EC08B859C85AD85BE85841595051C
S1132730A605B705E8F10E946F0DE091B22CF09167
S1132740B32C0780F085E02D80849184C401029627
S11327500E947105D40152968C915297813001F5F3
S11327601E964D915D916D917C915197440D551D2F
S1132770661D771D730162010B851C852D853E85C1
S1132780C4010E94E211882359F0C12CD12C760196
S113279000E010E0A301920160E0C4010E947A12FB
S11327A0D4015596ED91FC915697C40119959CC09E
S11327B020E0B301A2018B859C85AD85BE85481BB5
S11327C0590B6A0B7B0B8091AE2C9091AF2C0E941D
S11327D02F0A0E946F0D811187C00E945C0684C07D
S11327E00E946F0D81C0898188236CF44E815F81C2
S11327F068857985EA81FB818C819D811995898120
S113280088230CF471C08E809F80D4011C968D9116
S11328109C911D97892B21F0C40102960E94710599
S1132820CE010A960E94D3128B019C018981082E45
S1132830000C990BAA0BBB0B8A30910508F054C00D
S1132840FC018827E250FF4F8F4F0C947D29CA80EA
S1132850DB80EC80FD80F4014685578560897189B1
S11328604C0D5D1D6E1D7F1DC4010E94E211882365
S1132870D9F1D4015596ED91FC915697C40119955F
S1132880F4018289813081F54A815B816C817D818B
S113289086859785A089B1899A01AB01280F391FD4
S11328A04A1F5B1FC12CD12C760100E010E060E0D0
S11328B0C4010E947A1218C04A815B816C817D81B7
S11328C0D4011E964D935D936D937C935197400F65
S11328D0511F621F731F68017901C4010E94E21134
S11328E003C0C4010E94FD0420E030E0A9016A2D68
S11328F07B2D8091AE2C9091AF2C0E947D0981118B
S113290072CFF5CE0E94840CC1010E94D3126B8752
S11329107C878D879E878981811162CFE091B02C5D
S1132920F091B12C808121E0811120E0412C512CC7
S113293032013FCF0F931F93CF93DF93CDB7DEB711
S11329402997CDBFDEBFEEEFE9838A839B836C8337
S11329507D832E833F834887598720E0A801BE01E9
S11329606F5F7F4F8091AE2C9091AF2C0E943809FD
S11329702996CDBFDEBFDF91CF911F910F910895AE
S1132980E0E5F0E0808181608083818180FFFDCF7C
S113299080E00E9409038EE10E94F90260E080E079
S11329A00E94030343E060E080E40E94EA02E0E561
S11329B0F0E0808188608083818183FFFDCF64E0C3
S11329C080EC0E94F402E0E5F0E080818061808385
S11329D060E080E00E940303E0E5F0E0818184FF91
S11329E0FDCF84E00E94090387E00E94F902089564
S11329F0912C812C6894BB24B6F86894AA24A6F878
S1132A0010E0712CD0E8CFE3212C412C312C6894B8
S1132A10662467F80F2EFFE35F2EF02D40E050E0B0
S1132A20BA018091092D90910A2D0E94140471FF1E
S1132A3051C0292D382D4B2D5A2D642D732D862DE3
S1132A40952D0E948C229B01AC01612F772D8D2F37
S1132A509C2F0E941A226B017C0120E030E040E0B0
S1132A6050E4692D782D8B2D9A2D0E941B224B0149
S1132A705C019B01AC01642D732D862D952D0E9464
S1132A808C22A70196010E941B22162F772ED82F85
S1132A90C92F20E030E040E050E4C501B4010E94B9
S1132AA01B22962E872EB82EA92E20E030E543EC6B
S1132AB057E4612F772D8D2F9C2F0E94EB230E94CA
S1132AC005236B3C724381409105B1F5E0E4F8E0E5
S1132AD0108232C040E050E0BA018091092D9091FB
S1132AE00A2D0E94140470FF27C040E050E0BA0190
S1132AF08091092D90910A2D0E94140472FF16C032
S1132B0040E054E060E070E08091092D90910A2D3E
S1132B100E941404912C822C6894BB24B6F8689407
S1132B20AA24A6F8142D732CD62DC52D64E170E0CB
S1132B3080E090E00E94F10D40E050E0BA01809105
S1132B40092D90910A2D0E94140460FF67CF20E0A4
S1132B5030E040E850E4612F772D8D2F9C2F0E94A8
S1132B60EB236093D62C7093D72C8093D82C90931E
S1132B70D92C42E050E060E070E08091092D909102
S1132B800A2D0E9435040F2EF5E0CF2ED12CE12C16
S1132B90F12CF02D01E021E044E050E060E070E031
S1132BA08091092D90910A2D0E944F0342E050E03C
S1132BB060E070E08091092D90910A2D0E94140428
S1132BC02DCFCF93DF9300D000D0CDB7DEB710E088
S1132BD0B12C20E42E8380E48D83812C712C6894A5
S1132BE0AA24A6F86894992496F8512C612C689428
S1132BF0332436F86894222426F840E050E0BA01E1
S1132C008091092D90910A2D0E94140474FF6DC0C7
S1132C10252D362D432D522D612F7B2D8E819D81A7
S1132C200E945824212F3B2D4E815D810E941A223F
S1132C309B01AC0160E070E080E890E40E948C228B
S1132C40282D372D4A2D592D0E941B2269837A8302
S1132C508B839C8320E030E040E050E4612F7B2DA7
S1132C608E819D810E941B226B017C01252D362DB6
S1132C70432D522D0E945824A70196010E941A2226
S1132C809B01AC0160E070E080E890E40E948C223B
S1132C909B01AC0169817A818B819C810E941A22FB
S1132CA0862E772EA82E992E20E030E040E050E4C6
S1132CB0C701B6010E941B22162FB72E8E839D8357
S1132CC020E030E543EC57E4682D772D8A2D992DCB
S1132CD00E94EB230E9405236F327B4C84409105B4
S1132CE091F5E0E4F8E010822EC040E050E0BA0133
S1132CF08091092D90910A2D0E94140473FF23C022
S1132D0040E050E0BA018091092D90910A2D0E9473
S1132D10140475FF12C040E050E260E070E080915E
S1132D20092D90910A2D0E941404152DB62C3E8273
S1132D302D82852C762CA32C922C64E170E080E00B
S1132D4090E00E94F10D40E050E0BA018091092D1D
S1132D5090910A2D0E94140463FF4FCF882D972D64
S1132D60AA2DB92D8093D22C9093D32CA093D42C3C
S1132D70B093D52C40E150E060E070E08091092DE3
S1132D8090910A2D0E9435040F2EF5E0CF2ED12C00
S1132D90E12CF12CF02D01E021E040E250E060E074
S1132DA070E08091092D90910A2D0E944F0340E11B
S1132DB050E060E070E08091092D90910A2D0E940E
S1132DC014041BCFCF93DF93CDB7DEB7A597CDBF48
S1132DD0DEBF212C21E02DA3CE010F968BA39CA353
S1132DE05E0195E0A90EB11C0F2EFEE14F2EF0E21C
S1132DF05F2EF02D4E01E9E18E0E911C0F2EF2E2B2
S1132E006F2EF0E27F2EF02D6894332431F80E9467
S1132E106C1EFDA1F13009F054C041E050E060E0C7
S1132E2070E08091092D90910A2D0E9435040F2E97
S1132E30F5E0CF2ED12CE12CF12CF02D01E021E096
S1132E4042E050E060E070E08091092D90910A2DFD
S1132E500E944F031091D62C0091D72CF090D82CBF
S1132E60E090D92C41E050E060E070E08091092DC1
S1132E7090910A2D0E94140444E050E060E070E058
S1132E808091092D90910A2D0E943504EF92FF92B2
S1132E900F931F938DE090E29F938F93BF92AF9215
S1132EA00E94E42ABF92AF9280E190E29F938F93B5
S1132EB01F921F921F921F920E94771ECDBFDEBFEA
S1132EC05CC09DA1923009F058C048E050E060E039
S1132ED070E08091092D90910A2D0E9435040F2EE7
S1132EE0F5E0CF2ED12CE12CF12CF02D01E021E0E6
S1132EF040E150E060E070E08091092D90910A2D4E
S1132F000E944F031091D22C0091D32CF090D42C1A
S1132F10E090D52C48E050E060E070E08091092D0D
S1132F2090910A2D0E94140440E250E060E070E0A9
S1132F308091092D90910A2D0E943504EF92FF9201
S1132F400F931F93EDE0F0E2FF93EF938CA18F9327
S1132F509BA19F930E94E42AECA1EF93FBA1FF9312
S1132F6086E190E29F938F931F921F921F9281E0BC
S1132F708F930E94771ECDBFDEBF41E050E060E03A
S1132F8070E080910B2D90910C2D0E9435040F2E32
S1132F90F5E0CF2ED12CE12CF12CF02D01E021E035
S1132FA042E050E060E070E080910B2D90910C2D98
S1132FB00E944F031091CE2C0091CF2CF090D02C76
S1132FC0E090D12C41E050E060E070E080910B2D66
S1132FD090910C2D0E94140444E050E060E070E0F5
S1132FE080910B2D90910C2D0E943504EF92FF924D
S1132FF00F931F935F924F929F928F920E94E42AA5
S11330009F928F927F926F921F921F921F923F9274
S11330100E94771EC12CD12C76018E010F5F1F4FA9
S11330202FEF3FEF4FEF5FE060E070E0CB010E94D5
S11330301810CDBFDEBFF1E02F1609F45FC02F16C4
S113304048F022E0221609F48FC083E0281609F420
S113305023C188C189819A81AB81BC8182FD0AC068
S1133060AC01BD017695679557954795E42FE170BE
S11330702E2E01C0232C83FF04C00F2EF3E02F2E2D
S1133080F02D80FF78C1FDA1F130D1F440E052E091
S113309060E070E08091092D90910A2D0E94350422
S11330A040E051E060E070E08091092D90910A2D9C
S11330B00E941404E0E4F8E08081846080835BC1B2
S11330C0FDA1F23009F057C140E050E160E070E04A
S11330D08091092D90910A2D0E94350440E058E01A
S11330E060E070E08091092D90910A2D0E941404F3
S11330F0E0E4F8E08081846080833DC1E0E4F8E0AE
S11331001082FDA1F130B1F440E051E060E070E0E4
S11331108091092D90910A2D0E94350440E052E0DF
S113312060E070E08091092D90910A2D0E941404B2
S1133130212C21C12DA1223009F016C140E058E014
S113314060E070E08091092D90910A2D0E94350471
S113315040E050E160E070E08091092D90910A2DEB
S11331600E941404212C07C18DA1813009F048C0AC
S113317040E050E0BA018091092D90910A2D0E94FF
S1133180140470FFF3C040E054E060E070E080910C
S1133190092D90910A2D0E94350448E050E060E02A
S11331A070E080910B2D90910C2D0E9435040F2E10
S11331B0F5E0CF2ED12CE12CF12CF02D01E021E013
S11331C042E050E060E070E080910B2D90910C2D76
S11331D00E944F0348E050E060E070E080910B2DC6
S11331E090910C2D0E94140444E050E060E070E0E3
S11331F080910B2D90910C2D0E943504212CBBC085
S11332009DA1923009F0B4C040E050E0BA01809131
S1133210092D90910A2D0E94140473FFABC040E065
S113322050E260E070E08091092D90910A2D0E9497
S1133230350448E050E060E070E080910B2D9091FF
S11332400C2D0E9435040F2EF5E0CF2ED12CE12C4D
S1133250F12CF02D01E021E042E050E060E070E06C
S113326080910B2D90910C2D0E944F0348E050E06B
S113327060E070E080910B2D90910C2D0E9414045D
S113328044E050E060E070E080910B2D90910C2DB3
S11332900E943504212C6FC0E0E4F8E0108248E07D
S11332A050E060E070E080910B2D90910C2D0E9415
S11332B035040F2EF5E0CF2ED12CE12CF12CF02D7E
S11332C001E021E042E050E060E070E080910B2DED
S11332D090910C2D0E944F0348E050E060E070E0B4
S11332E080910B2D90910C2D0E94140444E050E029
S11332F060E070E080910B2D90910C2D0E943504BC
S1133300FDA1F130B9F440E051E060E070E080915B
S1133310092D90910A2D0E94350440E052E060E0AE
S113332070E08091092D90910A2D0E941404212CA3
S11333303DA221C040E058E060E070E08091092D9A
S113334090910A2D0E94350440E050E160E070E065
S11333508091092D90910A2D0E941404212C21E0C2
S11333602DA309C0212C07C0212C05C0212C03C08A
S1133370212C01C0212C64EF71E080E090E00E94D8
S1133380F10D45CDCF93DF9300D01F92CDB7DEB7BB
S1133390E0E4F8E08681836086838FE99FE086A37A
S11333A097A3E0EAF0E0828184608283812C912CEF
S11333B05401C12CD12C76018E010F5F1F4F2FEFCA
S11333C03FEFA90160E070E0CB010E9418108981F1
S11333D09A81AB81BC810097A105B10541F0880EAB
S11333E0991EAA1EBB1E19821A821B821C820F2ED2
S11333F0F4E6CF2ED12CE12CF12CF02D00E020E0CE
S113340049E050E060E070E080910B2D90910C2D2C
S11334100E944F03672B682B692B59F240E050E060
S1133420BA0180910B2D90910C2D0E94140463FF1E
S113343032C01092CA2C1092CB2C1092CC2C109229
S1133440CD2C42E050E060E070E080910B2D909133
S11334500C2D0E9435040F2EF5E0CF2ED12CE12C3B
S1133460F12CF02D01E021E044E050E060E070E058
S113347080910B2D90910C2D0E944F0342E050E05F
S113348060E070E080910B2D90910C2D0E9414044B
S1133490812C912C540140E050E0BA0180910B2D15
S11334A090910C2D0E94140460FF83CF8092CE2C47
S11334B09092CF2CA092D02CB092D12C42E050E02C
S11334C060E070E080910B2D90910C2D0E943504EA
S11334D00F2EF5E0CF2ED12CE12CF12CF02D01E0B4
S11334E021E044E050E060E070E080910B2D909189
S11334F00C2D0E944F0342E050E060E070E08091A8
S11335000B2D90910C2D0E94140453CF0E940F0296
S11335100E941A0280E00E94BF02813069F400E038
S113352010E023E041E050E060E070E08091072D7E
S11335309091082D0E94AB1081E00E94BF0281305F
S113354069F400E010E023E042E050E060E070E065
S11335508091072D9091082D0E94AB1082E00E946B
S1133560BF02813069F400E010E023E044E050E061
S113357060E070E08091072D9091082D0E94AB10BF
S113358083E00E94BF02813069F400E010E023E090
S113359048E050E060E070E08091072D9091082DA4
S11335A00E94AB1080E00E94BF0281110DC000E0B8
S11335B010E023E040E150E060E070E08091072DEE
S11335C09091082D0E94AB1081E00E94BF028111EE
S11335D00DC000E010E023E040E250E060E070E065
S11335E08091072D9091082D0E94AB1082E00E94DB
S11335F0BF0281110DC000E010E023E040E450E080
S113360060E070E08091072D9091082D0E94AB102E
S113361083E00E94BF0281110DC000E010E023E0AE
S113362040E850E060E070E08091072D9091082D13
S11336300E94AB106AE070E080E090E00E94F10D1F
S113364067CF0895EF92FF920F930E94C0140E94D7
S1133650F01C0E943A038093092D90930A2D0E9436
S11336603A0380930B2D90930C2D40E051E060E0E1
S113367070E08091092D90910A2D0E94350440E05C
S113368058E060E070E08091092D90910A2D0E942D
S113369035040F2EFDE0EF2EFDE2FF2EF02D02E0AB
S11336A020E030E048EC50E06BE270E286E89AE11A
S11336B00E942F0B0F2EF7E0EF2EFDE2FF2EF02DD0
S11336C020E030E042ED50E066E370E282EE96E105
S11336D00E942F0B0F2EF1E1EF2EFDE2FF2EF02DB5
S11336E001E020E030E042ED50E061E470E288EF78
S11336F094E10E942F0B0F2EFFE0EF2EFDE2FF2E30
S1133700F02D20E030E048EC50E069E470E281EE16
S113371095E10E942F0B0F2EF3E1EF2EFDE2FF2E19
S1133720F02D02E020E030E042ED50E066E570E28A
S113373082EC99E10E942F0B0E94490C80E090E0FA
S11337400F91FF90EF9008951F920F920FB60F9272
S113375011240BB60F92EF92FF920F931F932F93A6
S11337603F934F935F936F937F938F939F93AF9305
S1133770BF93EF93FF93CF93DF931F92CDB7DEB741
S113378019824091CA2C5091CB2C6091CC2C709111
S1133790CD2CCE0101967C0100E010E022E0809166
S11337A0132D9091142D0E9441110F90DF91CF9110
S11337B0FF91EF91BF91AF919F918F917F916F9105
S11337C05F914F913F912F911F910F91FF90EF9037
S11337D00F900BBE0F900FBE0F901F9018951F9265
S11337E00F920FB60F9211240BB60F922F933F93A3
S11337F04F935F936F937F938F939F93AF93BF93F5
S1133800EF93FF93CF93DF931F92CDB7DEB7198267
S11338109E012F5F3F4F41E050E060E070E08091F7
S1133820172D9091182D0E94CA0460E080E09BE05F
S11338300E941E031092060B0F90DF91CF91FF910F
S1133840EF91BF91AF919F918F917F916F915F9114
S11338504F913F912F910F900BBE0F900FBE0F9081
S11338601F901895CF92DF92EF92FF920F936B0106
S11338707C0182E0C816D104E104F10408F44EC0CE
S1133880E0E0FBE081E0868310A211A260E080E02A
S11338909BE00E9424038EEFC8168FEFD806E10444
S11338A0F10470F4F694E794D794C794C092260B6D
S11338B0D092270B65E080E09BE00E941E0319C0B4
S11338C080E4C81682E4D8068FE0E806F10488F4A0
S11338D0689414F8F694E794D794C7941694D1F79F
S11338E0C092260BD092270B67E080E09BE00E94F9
S11338F01E030F2EF4EFCF2EDD24D394E12CF12CF4
S1133900F02D00E021E041E050E060E070E08091C3
S1133910172D9091182D0E944F0311C0E0E0FBE099
S113392081E0868310A211A260E080E09BE00E9407
S11339302403C12CD12C76016894C1F8B3CF0F9124
S1133940FF90EF90DF90CF9008958295807FE0E024
S1133950F6E09481282F2F60922394839481892BFD
S1133960848308951F93CF93DF93C0E6D6E014E0D9
S11339701D8361E070E080E090E00E94321C1E83B1
S1133980DF91CF911F910895CF93C82F82958F70A7
S11339900E94A51CE0E6F6E081E0868382E086834F
S11339A00E94B21C8C2F8F700E94A51C0E94B21C16
S11339B0CF910895CF93C82F82958F700E94A51C34
S11339C0E0E6F6E081E0858382E086830E94B21C13
S11339D08C2F8F700E94A51C0E94B21CCF91089559
S11339E0EF92FF920F93E0E0F6E080E1818380E2C2
S11339F0818380E4818380E88183A0E6B6E081E06E
S1133A0011968C93119782E011968C93119784E010
S1133A1011968C93119784818F70848314968C9162
S1133A201497887F14968C9340E066E188E00E94A6
S1133A3061088093152D9093162D0E943A0380936C
S1133A40172D9093182DE12CF12C01E020E030E0AB
S1133A504EE551E06EE570E28EE89DE10E942F0B89
S1133A600F91FF90EF9008958130910579F01CF447
S1133A70892B39F019C08230910569F0039781F0E0
S1133A8013C080E8860F0E94C41C0EC080EC860F11
S1133A900E94C41C09C084E9860F0E94C41C04C08F
S1133AA084ED860F0E94C41C67E270E080E090E021
S1133AB00E94321C08950E94DA1C6BE270E080E0E0
S1133AC090E00E94321C08950F931F93CF93DF93CD
S1133AD0FC01808181110AC011C08991882371F091
S1133AE00E945B1D0C171D07C1F708C08F010E94BF
S1133AF05B1DE80121960C5E1F4FEFCFDF91CF9144
S1133B001F910F910895CF93DF93EA010E94341D12
S1133B10CE010E94641DDF91CF910895CF93DF936E
S1133B20CDB7DEB7C656D109CDBFDEBF5E0141E5D4
S1133B30A40EB11CFE01319620E208C02193E817BF
S1133B40F907E1F7FC01A816B90619F0CF0144966C
S1133B50F5CF60E47CE980E090E00E94321C83E0D1
S1133B600E94A51C68E873E180E090E00E94321C8A
S1133B700E94B21C60EA70E080E090E00E94321C77
S1133B800E94B21C60EA70E080E090E00E94321C67
S1133B900E94B21C60EA70E080E090E00E94321C57
S1133BA082E00E94A51C0E94B21C88E20E94C41CF0
S1133BB080E10E94C41C8CE00E94C41C86E00E9428
S1133BC0C41C10E26E0151E5C50ED11C0F2EF4E1A8
S1133BD04F2EF02D0F2EF6E18F2E912CF02D5C2C14
S1133BE00D2D68EC70E080E090E00E94F10D40E063
S1133BF050E0BA018091172D9091182D0E94140461
S1133C00672B682B692B09F449C042E050E060E05F
S1133C1070E08091172D9091182D0E941404FE01DC
S1133C20319608C01193E817F907E1F7FC018A15EA
S1133C309B05A1F1CF014496F5CF2FEF3FEFA901EA
S1133C40652D702F8091152D9091162D0E947D0960
S1133C50882321F1F6012181822F90E04497F4F426
S1133C6082818823D9F0908130E0D901499EA00D4A
S1133C70B11D112441E050E04C0F5D1FA40FB51F8E
S1133C803396A401421B530B9A012C0D3D1D8D93B9
S1133C90E217F30719F081918111F9CF8091152D65
S1133CA09091162D0E94230A8111C7CFCE0101964F
S1133CB07C01612C712CA70160E070E0C3010E94BB
S1133CC0831D9FEF691A790AE4E1EE0EF11CF4E01A
S1133CD06F16710481F785CF42E050E060E070E038
S1133CE08091172D9091182D0E94350408952F92DC
S1133CF03F924F925F926F927F928F929F92AF9278
S1133D00BF92CF92DF92EF92FF920F931F93CF93C4
S1133D10DF93CDB7DEB76D97CDBFDEBF2BA92B8F59
S1133D20AFA9B8AD7E0139E3E30EF11C22E03DE218
S1133D30EEEEFCE21192E217F307E1F70F2EFAED33
S1133D40AF2EFCE2BF2EF02D2EEE3CE2F5011192D7
S1133D50E217F307E1F7812C912C0F2EFEEECF2E04
S1133D60FCE2DF2EF02DFCC2853209F0E8C22D0101
S1133D7082E0480E511C11968C91853609F4DBC102
S1133D8038F48336C1F008F048C0853251F0E7C2F8
S1133D908337F9F0883709F468C0863609F0DFC242
S1133DA08CC0F401E652F34D95E29083AFEF8A1A8A
S1133DB09A0AD201D5C2F401E652F34DD7018C918F
S1133DC08083BFEF8B1A9B0AF70132967F01D201E1
S1133DD0C7C2A7014E5F5F4FD7018D919C919C0193
S1133DE0B401F401E652F34D00E010E006C0D9013D
S1133DF0FD909D01F1920F5F1F4FDC010D9000209B
S1133E00E9F71197A81BB90B0A171B0780F34D019B
S1133E10860E971E7A01D201A3C287010E5F1F4F3F
S1133E204AE0B601F701808191810E94832A9401BE
S1133E30D401A652B34D4EEE5CE280E090E005C0A2
S1133E40FA016191AF016D930196F6010190002092
S1133E50E9F73197EE5EFC428E179F0788F34F0116
S1133E60820E931E7801D2017BC287010E5F1F4F21
S1133E7040E1B601D7018D919C910E94832A94015F
S1133E80F401E652F34D4EEE5CE280E090E005C0B2
S1133E90DA016D91AD0161930196D6010D90002078
S1133EA0E9F71197AE5EBC428A179B0788F34D0170
S1133EB0820E931E7801D20153C21701B4E02B0E77
S1133EC0311CD7018D919D910D90BC91A02D8F8BAC
S1133ED0988FA98FBA8F20E030E0A901BC01CD01F1
S1133EE00E948722811105C020E3F60120831182FC
S1133EF004C120E030E0A9016F89788D898D9A8D05
S1133F000E94872288239CF4EDE2D601EC938F89EA
S1133F10988DA98DBA8DB0588F8B988FA98FBA8F31
S1133F200F2EFFEE6F2EFCE27F2EF02D01C0360126
S1133F3020E030E040E85FE36F89788D898D9A8DC9
S1133F400E94E62388230CF444C200E010E020E041
S1133F5030E040E251E46F89788D898D9A8D0E941A
S1133F608C226F8B788F898F9A8F0F5F1F4F20E081
S1133F7030E040E85FE30E94E623882344F72DEC19
S1133F803CEC4CEC5DE36F89788D898D9A8D0E94B1
S1133F90872288231CF01AC000E010E020E030E003
S1133FA040E251E46F89788D898D9A8D0E94EB23CC
S1133FB06F8B788F898F9A8F015011092DEC3CEC0F
S1133FC04CEC5DE30E948722882344F3101611060B
S1133FD0ACF57301D301A00FB11FAC8FBD8F3D01B0
S1133FE06F89788D898D9A8D20E030E040E251E42C
S1133FF00E94EB236F8B788F898F9A8F0E94FE2209
S113400020E3260FF70121937F01072E000C880B74
S1134010990B0E9436239B01AC016F89788D898DA1
S11340209A8D0E941A22E614F704F1F66F8B788FAA
S1134030898F9A8F0115110589F4DBC1C801E0E36A
S1134040D301EC937301F2E0EF0EF11C2EE2119612
S11340502C9399236CF000E010E01FC0EC8CFD8CD5
S11340603FEFE31AF30AEEE2AC8DBD8DEC9312C080
S113407000E010E0FFEFEF1AFF0AF701319720E3A9
S1134080208301970F5F1F4F992324F404301105F7
S11340908CF331C00430110574F5370184E090E0ED
S11340A0801B910BE80EF91E87016F89788D898D2D
S11340B09A8D20E030E040E251E40E94EB236F8BC4
S11340C0788F898F9A8F0E94FE2220E3260FD301D6
S11340D02D933D01072E000C880B990B0E9436236B
S11340E09B01AC016F89788D898D9A8D0E941A226B
S11340F060167106F1F6F70110829401F401E6529C
S1134100F34D4EEE5CE280E090E005C0DA016D9183
S1134110AD0161930196D6010D900020E9F7119746
S1134120AE5EBC428A179B0788F34D01820E931E34
S11341307101D20115C11701B4E02B0E311CD70156
S11341408D919D910D90BC91A02D8F8B988FA98FEF
S1134150BA8F20E030E0A901BC01CD010E94872282
S1134160811105C020E3F60120831182CAC020E03A
S113417030E0A9016F89788D898D9A8D0E948722FC
S113418088239CF4EDE2D601EC938F89988DA98D58
S1134190BA8DB0588F8B988FA98FBA8F0F2EFFEEE0
S11341A06F2EFCE27F2EF02D01C0360120E030E0BE
S11341B040E85FE36F89788D898D9A8D0E94E623AC
S11341C08823DCF000E010E020E030E040E251E43D
S11341D06F89788D898D9A8D0E948C226F8B788F50
S11341E0898F9A8F0F5F1F4F20E030E040E85FE334
S11341F00E94E623882344F702C000E010E02DEC7F
S11342003CEC4CEC5DE36F89788D898D9A8D0E942E
S113421087228823C4F420E030E040E251E46F892F
S1134220788D898D9A8D0E94EB236F8B788F898F7F
S11342309A8F015011092DEC3CEC4CEC5DE30E948B
S11342408722882344F320E030E040E251E46F8980
S1134250788D898D9A8D0E94EB236F8B788F898F4F
S11342609A8F0E94FE2220E3260FD3012C93072E5F
S1134270000C880B990B0E9436239B01AC016F89BB
S1134280788D898D9A8D0E941A22F8013197EC8FCE
S1134290FD8FEEE2D3011196EC9383010E5F1F4F65
S11342A07301F6E0EF0EF11C20E030E040E251E44F
S11342B00E94EB236F8B788F898F9A8F0E94FE2246
S11342C020E3260FD8012D938D01072E000C880BB7
S11342D0990B0E9436239B01AC016F89788D898DDF
S11342E09A8D0E941A220E151F05F1F625E6F30198
S11342F02683B301695F7F4F4AE08C8D9D8D0E94B8
S1134300832A9401F401E652F34D4EEE5CE280E020
S113431090E005C0DA016D91AD0161930196D6017B
S11343200D900020E9F71197AE5EBC428A179B07F7
S113433088F34D01820E931E7101D20111C08A309F
S113434029F0F401E652F34D808304C0F401E652EF
S1134350F34D10821196EFEF8E1A9E0A01C0D2011E
S11343608C91811101CD8DA99EA9880D991D449729
S11343703CF084E190E04C012DA93EA9821A930AF5
S1134380FE013396CE014796DF011D92A817B907A7
S1134390E1F73B8D39838DA98A83181419045CF4E1
S11343A0CE01880D991D0396D5012D915D012193B0
S11343B08E179F07C9F700E02FEF3FEFA901BE0159
S11343C06F5F7F4F8091152D9091162D0E9492085A
S11343D01BC02DEC3CEC4CEC5DE36F89788D898D32
S11343E09A8D0E94872288230CF4D6CD80E090E039
S11343F026CE20E3EC8DFD8D20837F0132E0E30E99
S1134400F11C8EE2818346CE6D96CDBFDEBFDF9177
S1134410CF911F910F91FF90EF90DF90CF90BF90BD
S1134420AF909F908F907F906F905F904F903F9050
S11344302F9008955058BB27AA270E9432220C942B
S1134440AC230E949E2338F00E94A52320F039F467
S11344509F3F19F426F40C949B230EF4E095E7FB9C
S11344600C949523E92F0E94BD2358F3BA176207D1
S113447073078407950720F079F4A6F50C94DF23DD
S11344800EF4E0950B2EBA2FA02D0B01B90190016B
S11344900C01CA01A0011124FF27591B99F0593FAF
S11344A050F4503E68F11A16F040A22F232F342FF7
S11344B04427585FF3CF469537952795A795F04045
S11344C05395C9F77EF41F16BA0B620B730B840B5A
S11344D0BAF09150A1F0FF0FBB1F661F771F881F12
S11344E0C2F70EC0BA0F621F731F841F48F487956A
S11344F077956795B795F7959E3F08F0B0CF93955C
S1134500880F08F09927EE0F9795879508950E94D4
S1134510712308F481E008950E94A0220C94AC2336
S11345200E94A52358F00E949E2340F029F45F3F87
S113453029F00C94952351110C94E0230C949B23A3
S11345400E94BD2368F39923B1F3552391F3951B7E
S1134550550BBB27AA2762177307840738F09F5FA0
S11345605F4F220F331F441FAA1FA9F335D00E2E0D
S11345703AF0E0E832D091505040E695001CCAF77A
S11345802BD0FE2F29D0660F771F881FBB1F26173D
S113459037074807AB07B0E809F0BB0B802DBF0114
S11345A0FF2793585F4F3AF09E3F510578F00C94E3
S11345B095230C94E0235F3FE4F3983ED4F386956F
S11345C077956795B795F7959F5FC9F7880F911D04
S11345D09695879597F90895E1E0660F771F881FF0
S11345E0BB1F621773078407BA0720F0621B730BA3
S11345F0840BBA0BEE1F88F7E09508950E940523FB
S11346006894B1110C94E02308950E94C52388F0A6
S11346109F5798F0B92F9927B751B0F0E1F0660F82
S1134620771F881F991F1AF0BA95C9F714C0B130C3
S113463091F00E94DF23B1E008950C94DF23672FEB
S1134640782F8827B85F39F0B93FCCF386957795F2
S11346506795B395D9F73EF49095809570956195DB
S11346607F4F8F4F9F4F0895E89409C097FB3EF406
S113467090958095709561957F4F8F4F9F4F9923AB
S1134680A9F0F92F96E9BB279395F6958795779529
S11346906795B795F111F8CFFAF4BB0F11F460FFE9
S11346A01BC06F5F7F4F8F4F9F4F16C0882311F041
S11346B096E911C0772321F09EE8872F762F05C055
S11346C0662371F096E8862F70E060E02AF09A95F0
S11346D0660F771F881FDAF7880F9695879597F9E5
S11346E00895990F0008550FAA0BE0E8FEEF16167F
S11346F01706E807F907C0F012161306E407F507D2
S113470098F0621B730B840B950B39F40A2661F045
S1134710232B242B252B21F408950A2609F4A140E8
S1134720A6958FEF811D811D089597F99F6780E8F5
S113473070E060E008959FEF80EC089500240A94EF
S11347401616170618060906089500240A94121668
S11347501306140605060895092E0394000C11F49B
S1134760882352F0BB0F40F4BF2B11F460FF04C048
S11347706F5F7F4F8F4F9F4F089557FD9058440FA1
S1134780551F59F05F3F71F04795880F97FB991FAC
S113479061F09F3F79F08795089512161306140669
S11347A0551FF2CF4695F1DF08C0161617061806F6
S11347B0991FF1CF86957105610508940895E894D1
S11347C0BB2766277727CB0197F908950E947123A9
S11347D008F48FEF08950E94FE230C94AC230E94EA
S11347E09E2338F00E94A52320F0952311F00C9409
S11347F095230C949B2311240C94E0230E94BD2345
S113480070F3959FC1F3950F50E0551F629FF0011F
S1134810729FBB27F00DB11D639FAA27F00DB11D38
S1134820AA1F649F6627B00DA11D661F829F2227C1
S1134830B00DA11D621F739FB00DA11D621F839F48
S1134840A00D611D221F749F3327A00D611D231F1E
S1134850849F600D211D822F762F6A2F11249F576C
S113486050409AF0F1F088234AF0EE0FFF1FBB1F6F
S1134870661F771F881F91505040A9F79E3F51052E
S113488080F00C9495230C94E0235F3FE4F3983E6E
S1134890D4F3869577956795B795F795E7959F5FD8
S11348A0C1F7FE2B880F911D9695879597F908956A
S11348B0FA01EE0FFF1F309621053105A1F16115B4
S11348C0710561F48038BFE39B0749F1689490381F
S11348D0810561F08038BFEF9B0741F099234AF5C9
S11348E0FF3FE1053105210519F1E8940894E795A6
S11348F0D901AA2329F4AB2FBE2FF85FD0F310C03F
S1134900FF5F70F4A695E0F7F73950F019F0FF3A1D
S113491038F49F779F930DD00F9007FC905808951B
S113492046F00C949B2360E070E080E89FE30895D8
S11349304FE79F775F934F933F932F930E945325A5
S11349402F913F914F915F910E94EB230C94B024DF
S113495029F416F00C9495230C94DF230C949B23D8
S11349600E94C523A8F39638A0F707F80F92E8949D
S11349702BE33AEA48EB5FE70E9401240F920F927F
S11349800F924DB75EB70F920E949B25E0E1F2E0D3
S11349900E94E2244F915F91EF91FF91E595EE1F04
S11349A0FF1F49F0FE57E0684427EE0F441FFA95B5
S11349B0E1F74195550B0E9415250F9007FE0C94C5
S11349C009250895DF93CF931F930F93FF92EF92DE
S11349D0DF927B018C01689406C0DA2EEF010E94FD
S11349E0FE23FE01E894A5912591359145915591B9
S11349F0A6F3EF010E943222FE019701A801DA9486
S1134A0069F7DF90EF90FF900F911F91CF91DF91A5
S1134A1008959B01AC0160E070E080E89FE30C9492
S1134A208C220C9495230C94CF250E94C523D8F393
S1134A309923C9F3940F511DA3F39150504094F05E
S1134A4059F0882332F0660F771F881F9150504029
S1134A50C1F79E3F51052CF7880F911D96958795B8
S1134A6097F908955F3FACF0983E9CF0BB2786957C
S1134A7077956795B79508F4B1609395C1F7BB0F27
S1134A8058F711F460FFE8CF6F5F7F4F8F4F9F4F50
S1134A90E3CF0C94E02316F00C94CF250C949B23C5
S1134AA068940C9495230E94C523A8F39923C1F319
S1134AB0AEF3DF93CF931F930F93FF92C92FDD279C
S1134AC088232AF02197660F771F881FDAF720E0E2
S1134AD030E040E85FEB9FE3883920F0803E38F017
S1134AE021968F770E941B22E8E3F2E004C00E9423
S1134AF01B22E5E6F2E00E94E2248B01BE01EC01F8
S1134B00FB2E6F5771097595771F880B990B0E94BF
S1134B10362328E132E741E35FE30E94FE23AF2D11
S1134B209801AE01FF900F911F91CF91DF910E94E8
S1134B3032220C94AC23FA01DC01AA0FBB1F9B01A7
S1134B40AC01BF5728F4222733274427507820C0CC
S1134B50B75190F4AB2F0024469537952795011C47
S1134B60A395D2F3002071F0220F331F441FB39595
S1134B70DAF30ED00C941A2261307105A0E88A078A
S1134B80B94630F49B01AC016627772788279078D3
S1134B90309621F0208331834283538308959F3FCD
S1134BA031F0915020F4879577956795B795880FE4
S1134BB0911D9695879597F908952F923F924F925C
S1134BC05F926F927F928F929F92AF92BF92CF9299
S1134BD0DF92EF92FF920F931F93CF93DF93CDB7A2
S1134BE0DEB76097CDBFDEBF7C011B016A01FC010B
S1134BF016821782838181FF44C39E012F5F3F4F3A
S1134C003901F7019381F10193FD859193FF81911E
S1134C101F01882309F431C3853239F493FD85914A
S1134C2093FF81911F01853239F4B70190E00E940E
S1134C30A82A56016501E5CF10E0512C912CFFE123
S1134C40F915D8F08B3279F038F4803279F0833268
S1134C50A1F4F92DF0612EC08D3261F0803369F436
S1134C60292D21602DC0392D3260932E892D846029
S1134C70982E2AC0E92DE86015C097FC2DC020EDC0
S1134C80280F2A3088F496FE06C03AE0139F200DC0
S1134C901124122F19C08AE0589E200D1124522E7F
S1134CA0E92DE0629E2E10C08E3231F496FCE5C2EE
S1134CB0F92DF0649F2E08C08C3621F4292D20682C
S1134CC0922E02C0883641F4F10193FD859193FF41
S1134CD081911F018111B3CF9BEB980F933020F486
S1134CE0992D9061805E07C09BE9980F933008F07E
S1134CF066C1992D9F7E96FF16E09F73992E853687
S1134D0019F49064992E08C0863621F4392F30683E
S1134D10932E02C01111115097FE07C01C3350F49A
S1134D2044244394410E27E00BC0183038F027E0A8
S1134D3017E005C027E09CE3492E02C0212F412C37
S1134D40560184E0A80EB11CF60160817181828154
S1134D509381042DA3010E9485296C01F981FC87AC
S1134D60F0FF02C0F3FF06C091FC06C092FE06C02D
S1134D7000E205C00DE203C00BE201C000E08C8537
S1134D808C7019F001115AC29BC297FE10C04C0CD2
S1134D90FC85F4FF04C08A81813309F44A94141415
S1134DA074F528E0241578F588E0482E2CC096FC8C
S1134DB02AC0812F90E08C159D059CF03CEFC31612
S1134DC03FEFD30674F0892D8068982E0AC0E2E084
S1134DD0F0E0EC0FFD1FE10FF11D8081803319F429
S1134DE011501111F4CF97FE0EC044244394410E88
S1134DF0812F90E0C816D9062CF41C1904C0442451
S1134E00439401C010E097FE06C01C141D0434F442
S1134E10C601019605C085E090E002C081E090E003
S1134E2001110196112331F0212F30E02F5F3F4F04
S1134E30820F931F252D30E08217930714F4581A1C
S1134E4001C0512C892D897049F4552039F0B701DE
S1134E5080E290E00E94A82A5A94F7CF002329F018
S1134E60B701802F90E00E94A82A93FC09C0552026
S1134E7039F0B70180E390E00E94A82A5A94F7CF52
S1134E8097FE4CC04601D7FE02C0812C912CC6016E
S1134E9088199909F301E80FF91FED87FE87960138
S1134EA0241931092F87388B012F10E011950195B2
S1134EB011093FEF8316930629F4B7018EE290E0BF
S1134EC00E94A82AC814D9044CF08F8598898815A3
S1134ED0990524F4ED85FE85818101C080E3F1E02C
S1134EE08F1A91082D853E852F5F3F4F2D873E8772
S1134EF0801691062CF0B70190E00E94A82AD9CF21
S1134F00C814D90441F49A81963320F4953319F4E2
S1134F103C8534FF81E3B70190E04EC08A81813340
S1134F2019F09C859F7E9C87B70190E00E94A82A77
S1134F30111105C094FC18C085E690E017C0B701B4
S1134F408EE290E00E94A82A1E5F82E001E0080F32
S1134F50F301E80FF11D8081B70190E00E94A82AB7
S1134F60802F0113F3CFE6CF85E490E0B7010E94D0
S1134F70A82AD7FC06C0C114D10441F4EC85E4FF8F
S1134F8005C0D194C194D1088DE201C08BE2B70170
S1134F9090E00E94A82A80E32AE0C216D1042CF0F3
S1134FA08F5FFAE0CF1AD108F7CFB70190E00E94E3
S1134FB0A82AB701C601C0960E94A82A54C1833604
S1134FC031F0833779F0833509F056C020C056019B
S1134FD032E0A30EB11CF6018081898301E010E068
S1134FE0630112C05601F2E0AF0EB11CF601C0809D
S1134FF0D18096FE03C0612F70E002C06FEF7FEF97
S1135000C6010E94782A8C01F92DFF7714C056013D
S113501022E0A20EB11CF601C080D18096FE03C02E
S1135020612F70E002C06FEF7FEFC6010E945D2A1E
S11350308C01F92DF0689F2EF3FD1AC0852D90E0A8
S113504008171907A8F4B70180E290E00E94A82A83
S11350505A94F4CFF60197FC859197FE81916F01E4
S1135060B70190E00E94A82A51105A9401501109E6
S11350700115110579F7F7C0843611F0893661F509
S1135080560197FE09C024E0A20EB11CF60160810E
S11350907181828193810AC0F2E0AF0EB11CF601E6
S11350A060817181072E000C880B990BF92DFF7616
S11350B09F2E97FF09C090958095709561957F4FBD
S11350C08F4F9F4FF0689F2E2AE030E0A3010E948B
S11350D00D2BC82EC6183FC0092D853721F40F7E2D
S11350E02AE030E01DC0097F8F3691F018F488352E
S11350F059F0C3C0803719F0883711F0BEC0006181
S113510004FF09C0046007C094FE08C0066006C01E
S113511028E030E005C020E130E002C020E132E0C8
S1135120560107FF09C084E0A80EB11CF601608196
S113513071818281938108C0F2E0AF0EB11CF60147
S11351406081718180E090E0A3010E940D2BC82E44
S1135150C6180F77902E96FE0BC0092D0E7FC11630
S113516050F494FE0AC092FC08C0092D0E7E05C0BE
S1135170DC2C092D03C0DC2C01C0D12E04FF0DC092
S1135180FE01EC0DF11D8081803311F4097E09C00C
S113519002FF06C0D394D39404C0802F867809F00C
S11351A0D39403FD11C000FF06C01C2DD51480F458
S11351B0150D1D190DC0D51458F4B70180E290E007
S11351C00E94A82AD394F7CFD51410F45D1801C017
S11351D0512C04FF10C0B70180E390E00E94A82A7C
S11351E002FF17C001FD03C088E790E002C088E514
S11351F090E0B7010CC0802F867859F001FF02C0FF
S11352008BE201C080E207FD8DE2B70190E00E94CD
S1135210A82AC11638F4B70180E390E00E94A82AB6
S11352201150F7CFCA94F301EC0DF11D8081B70141
S113523090E00E94A82AC110F5CF15C0F4E0F5153E
S113524060F584E0581A93FE1FC0011127C02C8515
S113525023FF2AC006EC12E0392D3071932EF80199
S11352608491811124C0552009F4E4CCB70180E273
S113527090E00E94A82A5A94F6CFF701868197817C
S113528026C08FEF9FEF23C0B70180E290E00E9419
S1135290A82A5A945110F8CFD8CF512CB701802F97
S11352A090E00E94A82AD3CF0AEC12E0D5CF911047
S11352B08052B70190E00E94A82A0F5F1F4FCFCF02
S11352C023E0251510F483E0BDCF512CC0CF6096A8
S11352D0CDBFDEBFDF91CF911F910F91FF90EF9073
S11352E0DF90CF90BF90AF909F908F907F906F9002
S11352F05F904F903F902F900895EE0FFF1F881FEF
S11353008BBF0790F691E02D1994283008F027E020
S11353103327DA01990F311D87FD916000966105ED
S1135320710539F432602E5F3D9330E32A95E1F73D
S113533008959F3F30F080387105610509F03C5FA6
S11353403C5F3D93913008F08068911DDF93CF93CB
S11353501F930F93FF92EF92192F987F9695E92F41
S113536096959695E90FFF27E85DFC4F992733271B
S1135370EE24FF24A701E70105900894079428F47C
S1135380360FE71EF81E491F511D660F771F881F31
S1135390991F0694A1F70590079428F4E70EF81EC8
S11353A0491F561FC11D770F881F991F661F06943A
S11353B0A1F70590079428F4F80E491F561FC71F3C
S11353C0D11D880F991F661F771F0694A1F70590BA
S11353D0079420F4490F561FC71FD81F990F661F43
S11353E0771F881F0694A9F784911095177041F0D0
S11353F0D695C79557954795F794E7941A95C1F7AD
S1135400EEECF2E0689415901591359165919591C3
S113541005907FE27395E118F10A430B560BC90B13
S1135420D009C0F7E10CF11E431F561FC91FD01D40
S11354307EF4703311F48A95E6CFE894015030F08D
S1135440080F0AF40027021708F4202F2395022FCF
S11354507A3328F079E37D932A95E9F710C07D9398
S11354602A9589F606949795679537951795179415
S1135470E118F10A430B560BC90BD00998F0239598
S11354807E9173957A3308F070E37C932013B8F718
S11354907E9170617D9330F0839571E37D9370E329
S11354A02A95E1F71124EF90FF900F911F91CF916E
S11354B0DF91992787FD90950895FC01059061502F
S11354C070400110D8F7809590958E0F9F1F089516
S11354D0FB01DC0102C001900D9241505040D8F70D
S11354E00895DC0101C06D9341505040E0F70895E8
S11354F0FC016150704001900110D8F7809590959F
S11355008E0F9F1F0895BB274A3031F4992322F44C
S1135510BDE2909581959F4F0C948F2ABB27FB0188
S11355205527AA27880F991FAA1FA41710F0A41B98
S113553083955051B9F7A05DAA3308F0A95DA193F2
S1135540009779F7B111B1931192CB010C946B2BA5
S11355500F931F93CF93DF93FB01238121FD03C09E
S11355608FEF9FEF2CC022FF16C046815781248104
S113557035814217530744F4A081B1819D012F5F07
S11355803F4F208331838C93268137812F5F3F4F98
S11355902683378314C08B01EC01FB010084F18561
S11355A0E02D1995892BE1F6D80116968D919C91E1
S11355B01797019616968D939C931797CE01DF91BA
S11355C0CF911F910F9108950F931F93CF93DF9362
S11355D0CDB7DEB72E97CDBFDEBF0E891F8986E01B
S11355E08C8309831A838FEF9FE78D839E83AE019B
S11355F0465E5F4F688D798DCE0101960E94DD2550
S1135600EF81F885E00FF11F10822E96CDBFDEBF2B
S1135610DF91CF911F910F910895FA01AA272830A5
S113562051F1203181F1E8946F936E7F6E5F7F4F6B
S11356308F4F9F4FAF4FB1E03ED0B4E03CD0670FE7
S1135640781F891F9A1FA11D680F791F8A1F911D3A
S1135650A11D6A0F711D811D911DA11D20D009F48A
S113566068943F912AE0269F11243019305D3193CC
S1135670DEF6CF010895462F4770405D4193B3E0B5
S11356800FD0C9F7F6CF462F4F70405D4A3318F05C
S1135690495D31FD4052419302D0A9F7EACFB4E00D
S11356A0A6959795879577956795BA95C9F70097C5
S11356B06105710508959B01AC010A2E0694579566
S11356C0479537952795BA95C9F7620F731F841FBD
S11356D0951FA01D0895DC01FC01672F71917723AC
S11356E0E1F7329704C07C916D9370836291AE1799
S10D56F0BF07C8F30895F894FFCF34
S11356FA49444C4500546D72205376630025660074
S113570A50693D25730050695F323D257300256C4D
S113571A750054696D657220257300427574746F3F
S113572A6E5461736B005374657565725461736B5F
S113573A004C6569626E697A004B656C6C616C75C4
S113574A725461736B0047657454696D65006469CA
S10D575A73705570646174650000FB
S9030000FC
