S016000043616C63756C6174696E675F50692E737265638F
S11300000C94E4010C940E020C940E020C940E0257
S11300100C940E020C940E020C940E020C940E021C
S11300200C940E020C940E020C940E020C940E020C
S11300300C940E020C940E020C946F0C0C940E0291
S11300400C940E020C940E020C940E020C940E02EC
S11300500C94AB290C940E020C940E020C940E0218
S11300600C940E020C940E020C940E020C940E02CC
S11300700C940E020C940E020C940E020C940E02BC
S11300800C940E020C940E020C940E020C940E02AC
S11300900C940E020C940E020C940E020C940E029C
S11300A00C940E020C940E020C940E020C940E028C
S11300B00C940E020C940E020C940E020C940E027C
S11300C00C940E020C940E020C940E020C940E026C
S11300D00C940E020C940E020C940E020C940E025C
S11300E00C940E020C940E020C940E020C940E024C
S11300F00C940E020C940E020C940E020C940E023C
S11301000C940E020C940E020C940E020C940E022B
S11301100C940E020C940E020C940E020C940E021B
S11301200C940E020C940E020C940E020C940E020B
S11301300C940E020C940E020C940E020C940E02FB
S11301400C940E020C940E020C940E020C940E02EB
S11301500C940E020C940E020C940E020C940E02DB
S11301600C940E020C940E020C940E020C940E02CB
S11301700C940E020C940E020C940E020C940E02BB
S11301800C940E020C940E020C940E020C940E02AB
S11301900C940E020C940E020C940E020C940E029B
S11301A00C940E020C940E020C940E020C940E028B
S11301B00C945E2B0C940E020C940E020C940E0202
S11301C00C940E020C940E020C940E020C940E026B
S11301D00C940E020C940E020C940E020C940E025B
S11301E00C940E020C940E020C940E020C940E024B
S11301F00C940E020C940E020C940E02FC20FC20B3
S1130200FC2083214F217D21FC20FC2083214F21D0
S113021007634236B79BD8A71A39685618AEBAABEB
S1130220558C1D3CB7CC5763BD6DEDFD753EF6177F
S11302307231BF000000803F08000000BE922449D4
S1130240123EABAAAA2ABECDCCCC4C3E0000008004
S1130250BEABAAAAAA3E00000000BF000000803F77
S11302600000000000084178D3BB4387D1133D1937
S11302700E3CC3BD4282AD2B3E68EC8276BED98F64
S1130280E1A93E4C80EFFFBE01C4FF7F3F000000A8
S113029000000C94F12D0C944E260C9483210C94A4
S11302A0DE1E0C94B8230C94FC200C94F1240C94C2
S11302B060190C94012B0C947D210C94FF290C944F
S11302C04F210C944D076E616E00696E660000400C
S11302D07A10F35A00A0724E18090010A5D4E80051
S11302E000E87648170000E40B54020000CA9A3B69
S11302F0000000E1F50500008096980000004042EF
S11303000F000000A086010000001027000000007C
S1130310E803000000006400000000000A00000080
S113032000000100000000002C76D888DC674F082C
S113033023DFC1DFAE59E1B1B796E5E3E453C63A32
S1130340E651997696E8E6C28426EB898C9B62EDA9
S1130350407C6FFCEFBC9C9F40F2BAA56FA5F49063
S1130360055A2AF75C936B6CF9676DC11BFCE0E4DA
S11303700D47FEF520E6B500D0ED902E0300943530
S113038077050080841E080000204E0A000000C883
S11303900C333333330F986E12831141EF8D2114D4
S11303A0893BE65516CFFEE6DB18D1844B381BF7A4
S11303B07C1D901DA4BBE424203284725E22810043
S11303C0C9F124ECA1E53D2711241FBECFEFCDBF19
S11303D0DFE3DEBF00E00CBFEDE1FDE28AEA90E47A
S11303E08193E030F907E0F3000010E2A0E0B0E20E
S11303F0E0E4FCE700E00BBF02C007900D92AE36CC
S1130400B107D9F72DE2AEE6B0E201C01D92AD31DD
S1130410B207E1F70E942E230C941E3E0C940000B8
S1130420CF93DF93CDB7DEB780EA96E020E1FC01FD
S1130430228380EA96E020E2FC01228380EA96E0AF
S113044020E4FC01228380EA96E020E8FC01228378
S11304500000DF91CF910895CF93DF93CDB7DEB73E
S113046080EA96E0FC018085882F90E080719927CE
S11304709595879595958795959587959595879560
S1130480892B89F480916E2090916F2080369A4E4A
S113049020F580916E2090916F20019680936E20BC
S11304A090936F201AC080916E2090916F200B97CB
S11304B068F080916E2090916F20C39718F010928D
S11304C0062D07C081E08093062D03C082E080934F
S11304D0062D10926E2010926F2080EA96E0FC01A7
S11304E08085882F90E080729927959587959595BA
S11304F08795959587959595879595958795892B56
S113050089F4809170209091712080369A4E20F564
S11305108091702090917120019680937020909327
S113052071201AC080917020909171200B9768F00F
S11305308091702090917120C39718F01092072D2C
S113054007C081E08093072D03C082E08093072DCC
S1130550109270201092712080EA96E0FC01808550
S1130560882F90E080749927082E892F000C881F0B
S1130570990B000C881F991F892B89F48091722094
S11305809091732080369A4E20F58091722090913C
S11305907320019680937220909373201AC08091E7
S11305A07220909173200B9768F080917220909143
S11305B07320C39718F01092082D07C081E0809330
S11305C0082D03C082E08093082D109272201092AF
S11305D0732080EA96E0FC01808588238CF080916A
S11305E074209091752080369A4E20F58091742065
S11305F090917520019680937420909375201AC071
S113060080917420909175200B9768F080917420EC
S113061090917520C39718F01092092D07C081E0BE
S11306208093092D03C082E08093092D10927420D9
S1130630109275200000DF91CF910895CF93DF933E
S11306401F92CDB7DEB789838981882F90E08130EE
S1130650910579F0823091051CF4892B39F012C090
S11306608230910549F0039751F00CC08091062D1A
S11306700AC08091072D07C08091082D04C0809185
S1130680092D01C082E00F90DF91CF9108950F935F
S1130690CF93DF9300D000D0CDB7DEB78C839D839A
S11306A06E838FE390E0FC0180818B83F8948C81CE
S11306B09D8189839A838BE390E0FC011082898178
S11306C09A812E81FC0108ED04BF20838FE390E022
S11306D02B81FC01208300002696CDBFDEBFDF9175
S11306E0CF910F910895CF93DF9300D0CDB7DEB7AC
S11306F089836A834B8380E590E02A81222311F069
S113070020E201C020E03981322B2B81232BFC0114
S1130710228300002396CDBFDEBFDF91CF910895E1
S1130720CF93DF931F921F92CDB7DEB789836A837D
S11307308A818F718A8380E590E039812A81232B15
S1130740FC01258300000F900F90DF91CF91089555
S1130750CF93DF931F921F92CDB7DEB78A8380E5D4
S113076090E020E530E0F9012081322F2A812095A4
S11307702323FC01208380E590E0FC0190818A81A1
S11307808923898389810F900F90DF91CF910895F8
S1130790CF93DF9300D0CDB7DEB78A836B839A8182
S11307A08B81892B8983698181E490E00E944703CE
S11307B000002396CDBFDEBFDF91CF910895CF9384
S11307C0DF931F921F92CDB7DEB78A8380E490E057
S11307D0FC018081982F987F8A81892B8983698184
S11307E080E490E00E94470380E490E0FC01908163
S11307F08A818923898389810F900F90DF91CF911A
S11308000895CF93DF9300D0CDB7DEB789839A8361
S11308106B8389819A81FC018081982F907F8B81E1
S1130820892B282F89819A81FC012083000023963B
S1130830CDBFDEBFDF91CF910895CF93DF9300D07A
S1130840CDB7DEB789839A836B8389819A81FC0152
S11308508181982F987F8B81892B282F89819A8178
S1130860FC01218300002396CDBFDEBFDF91CF9131
S11308700895CF93DF9300D0CDB7DEB789839A83F1
S11308806B8389819A81FC018681982F9C7F8B815F
S1130890892B282F89819A81FC01268300002396C5
S11308A0CDBFDEBFDF91CF910895CF93DF9300D00A
S11308B01F92CDB7DEB789839A836B837C838BE2E7
S11308C00E94690400002496CDBFDEBFDF91CF9162
S11308D00895CF93DF931F921F92CDB7DEB78A831B
S11308E08A818B3219F481E089830EC08A818C322B
S11308F019F482E0898308C08A818F3219F483E075
S1130900898302C084E089830E948C0400000F90D4
S11309100F90DF91CF910895CF93DF93CDB7DEB7DA
S1130920000084E390E028EDFC01208388E790E058
S113093021E0FC0121830000DF91CF910895CF9342
S1130940DF931F921F92CDB7DEB780E190E00E9443
S1130950DC0789839A8389819A81892B61F0898153
S11309609A81FC01108211821282138289819A81F8
S113097004960E942E0889819A810F900F90DF912E
S1130980CF910895CF92DF92EF92FF920F931F932E
S1130990CF93DF93CDB7DEB76D97CDBFDEBF8A8B24
S11309A09B8B4C8B5D8B6E8B7F8B288F098FCA8EB4
S11309B0DB8EEC8EFD8E8A899B8989879A871D82BE
S11309C01E821F8218861B860E94791489859A8547
S11309D0FC0180819181A281B3818C879D87AE8740
S11309E0BF872C893D894E895F898C859D85AE851D
S11309F0BF85098DBC01CD010E946B07888B888956
S1130A00882359F18C859D85AE85BF8589839A831A
S1130A10AB83BC831A8E1B8E1C8E1D8E888D8823FF
S1130A2009F465C089859A85FC0120813181428160
S1130A3053818C899D89AE89BF8980959095A095B5
S1130A40B09582239323A423B52329853A85F901FC
S1130A5080839183A283B3834AC08A8D9B8DAC8D9E
S1130A60BD8D892B8A2B8B2B59F48C859D85AE8566
S1130A70BF8589839A83AB83BC8381E08B8737C02E
S1130A80888D882349F08D819E81AF81B885B160BE
S1130A908D839E83AF83B887898D882349F08D81A8
S1130AA09E81AF81B885B4608D839E83AF83B88700
S1130AB02C893D894E895F898D819E81AF81B8855E
S1130AC0822B932BA42BB52B29853A85F9013496D7
S1130AD02A8D3B8D4C8D5D8D89019A01AC01BD0140
S1130AE0CF010E944C1719821A821B821C820E9419
S1130AF08614898B8A8D9B8DAC8DBD8D892B8A2B19
S1130B008B2B09F465C08989882311F40E94C50BD5
S1130B100E94551ADC01CB0189839A83AB83BC8381
S1130B2089819A81AB81BC8188279927AA27B270D1
S1130B30892B8A2B8B2B09F042C0F091A200FF93E2
S1130B40F87FF093A20089859A85FC0180819181C8
S1130B50A281B38189839A83AB83BC832C893D8929
S1130B604E895F8989819A81AB81BC81098DBC01E1
S1130B70CD010E946B078823E9F0888D8823D1F08A
S1130B8089859A85FC0120813181428153818C8938
S1130B909D89AE89BF8980959095A095B095822353
S1130BA09323A423B52329853A85F901808391836E
S1130BB0A283B38381E08B87FF91F093A2008981A4
S1130BC09A81AB81BC81BB2789839A83AB83BC8325
S1130BD089819A81AB81BC81BC01CD016D96CDBF69
S1130BE0DEBFDF91CF911F910F91FF90EF90DF90C7
S1130BF0CF900895CF93DF93CDB7DEB72C97CDBFB9
S1130C00DEBF8F83988749875A876B877C878F815C
S1130C10988589839A83F091A200FF93F87FF093DB
S1130C20A20089819A81FC0180819181A281B38192
S1130C308B839C83AD83BE8389819A81FC0120814F
S1130C4031814281538189859A85AB85BC858095A4
S1130C509095A095B09582239323A423B52329814D
S1130C603A81F90180839183A283B383FF91F09346
S1130C70A2008B819C81AD81BE81BC01CD012C96EB
S1130C80CDBFDEBFDF91CF910895CF93DF93CDB772
S1130C90DEB76D97CDBFDEBF888F998F4A8F5B8F8C
S1130CA06C8F7D8F1B821C821D821E82888D998D84
S1130CB0888799871F828885998504968A879B8768
S1130CC08A859B8503968C879D870E9479148A85E3
S1130CD09B85FC018781908589839A838885998582
S1130CE0FC0120813181428153818A8D9B8DAC8DA1
S1130CF0BD8D822B932BA42BB52B28853985F90127
S1130D0080839183A283B38395C089819A81FC01F6
S1130D10848195818E879F8789819A81FC01808156
S1130D209181A281B381888B998BAA8BBB8B1F8203
S1130D3088899989AA89BB8988279927AA278C8BAE
S1130D409D8BAE8BBF8B88899989AA89BB89BB2768
S1130D50888B998BAA8BBB8B8C899D89AE89BF8923
S1130D6088279927AA27B470892B8A2B8B2BB1F457
S1130D7088859985FC01208131814281538188894C
S1130D809989AA89BB8982239323A423B523892B18
S1130D908A2B8B2BE9F081E08F831AC08885998593
S1130DA0FC01208131814281538188899989AA89F2
S1130DB0BB89282339234A235B2388899989AA89F3
S1130DC0BB89281739074A075B0711F481E08F8331
S1130DD08F81882359F18C899D89AE89BF898827A1
S1130DE09927AA27B170892B8A2B8B2B81F02B8111
S1130DF03C814D815E8188899989AA89BB89822B2E
S1130E00932BA42BB52B8B839C83AD83BE838885C6
S1130E109985FC0180819181A281B381B26029818D
S1130E203A81AC01BD01C9010E9427188E859F85B6
S1130E3089839A8329813A818C859D85281739076E
S1130E4009F063CF88859985FC0120813181428135
S1130E5053818B819C81AD81BE8180959095A095B5
S1130E60B09582239323A423B52328853985F901DA
S1130E7080839183A283B3830E9486148885998595
S1130E80FC0180819181A281B381BC01CD016D9669
S1130E90CDBFDEBFDF91CF910895CF93DF9300D014
S1130EA000D0CDB7DEB789839A834B835C836D838F
S1130EB07E838B819C81AD81BE8129813A81AC0185
S1130EC0BD01C9010E94450600002696CDBFDEBFC4
S1130ED0DF91CF9108950F93CF93DF93CDB7DEB712
S1130EE02A97CDBFDEBF6A837B838C839D832E8349
S1130EF03F83488759870A8719828A85882399F40A
S1130F002A813B814C815D818E819F81A885B98531
S1130F1082239323A423B523892B8A2B8B2BD1F0F3
S1130F2081E0898317C02A813B814C815D818E8158
S1130F309F81A885B985282339234A235B238E8181
S1130F409F81A885B985281739074A075B0711F4DB
S1130F5081E0898389812A96CDBFDEBFDF91CF915D
S1130F600F9108950F931F93CF93DF93CDB7DEB7FF
S1130F702997CDBFDEBF8A839B834C835D836E83B9
S1130F807F8328873987288539858C819D81AE8127
S1130F90BF816A817B8189019C01AD018DE497E069
S1130FA00E948D22898389812996CDBFDEBFDF917E
S1130FB0CF911F910F910895CF93DF9300D01F928B
S1130FC0CDB7DEB78B839C8319821A820E94791471
S1130FD020912E2C30912F2C8B819C81820F931F7A
S1130FE0883B9B4018F520912E2C30912F2C8B811F
S1130FF09C81280F391F80912E2C90912F2C8217C1
S11310009307A0F480912E2C90912F2C8A589F4DF9
S113101089839A8320912E2C30912F2C8B819C8153
S1131020820F931F80932E2C90932F2C0E94861452
S113103089819A812496CDBFDEBFDF91CF91089537
S1131040CF93DF931F921F92CDB7DEB789839A8324
S113105000000F900F90DF91CF910895CF93DF930D
S11310601F921F92CDB7DEB789839A8389819A81B3
S11310709C012D5F3F4F89819A81FC01218332833A
S113108029813A818FEF9FEFDC01F90183839483F7
S1131090A583B68389819A819C012D5F3F4F898105
S11310A09A81FC012783308789819A819C012D5F75
S11310B03F4F89819A81FC012187328789819A81F6
S11310C0FC01108200000F900F90DF91CF910895E2
S11310D0CF93DF931F921F92CDB7DEB789839A8394
S11310E089819A81FC011286138600000F900F906B
S11310F0DF91CF910895CF93DF9300D000D0CDB787
S1131100DEB78B839C836D837E838B819C81FC0102
S11311108181928189839A838D819E8129813A81FB
S1131120FC012483358389819A81FC0126813781DE
S11311308D819E81FC012683378389819A81FC01FC
S1131140868197812D813E81FC01248335838981A9
S11311509A812D813E81FC01268337838D819E8176
S11311602B813C81FC01228733878B819C81FC018C
S1131170808121E0280F8B819C81FC012083000069
S11311802696CDBFDEBFDF91CF910895CF93DF9335
S1131190CDB7DEB72A97CDBFDEBF8F839887698727
S11311A07A8789859A85FC0180819181A281B381A6
S11311B08B839C83AD83BE838B819C81AD81BE81F7
S11311C08F3F9F4FAF4FBF4F41F48F819885FC01F4
S11311D08185928589839A8320C08F81988503961F
S11311E089839A8307C089819A81FC0184819581CE
S11311F089839A8389819A81FC0184819581FC0188
S113120020813181428153818B819C81AD81BE815A
S113121082179307A407B50730F789819A81FC01E7
S11312202481358189859A85FC01248335838985C8
S11312309A85FC018481958129853A85FC01268360
S1131240378389859A8529813A81FC0126833783EE
S113125089819A8129853A85FC012483358389858E
S11312609A852F813885FC01228733878F81988561
S1131270FC01808121E0280F8F819885FC01208367
S113128000002A96CDBFDEBFDF91CF910895CF93A2
S1131290DF9300D01F92CDB7DEB78B839C838B8105
S11312A09C81FC018285938589839A838B819C81AF
S11312B0FC01848195812B813C81F9012681378150
S11312C0FC01268337838B819C81FC018681978175
S11312D02B813C81F90124813581FC0124833583F0
S11312E089819A81FC01218132818B819C8128171B
S11312F0390751F48B819C81FC01268137818981D6
S11313009A81FC01218332838B819C81FC011286AA
S1131310138689819A81FC0180812FEF280F8981AE
S11313209A81FC01208389819A81FC018081249621
S1131330CDBFDEBFDF91CF9108951F93CF93DF938D
S1131340CDB7DEB780EA90E0FC01128180EA90E03C
S113135020EA30E0F9012281287FFC012283812FD9
S1131360DF91CF911F910895CF93DF93CDB7DEB76F
S11313702A97CDBFDEBF8D839E836F83788749878D
S11313805A878D819E8121E1FC0120838D819E817C
S113139001978D839E838D819E8122E2FC012083AF
S11313A08D819E8101978D839E838D819E8123E310
S11313B0FC0120838D819E8101978D839E838F8183
S11313C09885CC01A0E0B0E089839A83AB83BC8389
S11313D029818D819E81FC0120838D819E810197CD
S11313E08D839E8389819A81AB81BC81892F9A2FB9
S11313F0AB2FBB2789839A83AB83BC8329818D81DF
S11314009E81FC0120838D819E8101978D839E8323
S113141089819A81AB81BC81892F9A2FAB2FBB27FD
S113142089839A83AB83BC8329818D819E81FC014E
S113143020838D819E8101978D839E838D819E81E2
S113144021E3FC0120838D819E8101978D839E83FE
S11314508D819E8120E8FC0120838D819E810197EE
S11314608D839E838D819E8127E8FC0120838D815D
S11314709E8101978D839E838D819E81FC011082C4
S11314808D819E8101978D839E838D819E81FC0138
S113149010828D819E8101978D839E838D819E8193
S11314A022E0FC0120838D819E8101978D839E83A0
S11314B08D819E8123E0FC0120838D819E81019793
S11314C08D839E838D819E8124E0FC0120838D8108
S11314D09E8101978D839E838D819E8125E0FC01F1
S11314E020838D819E8101978D839E838D819E8132
S11314F026E0FC0120838D819E8101978D839E834C
S11315008D819E8127E0FC0120838D819E8101973E
S11315108D839E838D819E8128E0FC0120838D81B3
S11315209E8101978D839E838D819E8129E0FC019C
S113153020838D819E8101978D839E838D819E81E1
S113154020E1FC0120838D819E8101978D839E8300
S11315508D819E8121E1FC0120838D819E810197F3
S11315608D839E838D819E8122E1FC0120838D8168
S11315709E8101978D839E838D819E8123E1FC0151
S113158020838D819E8101978D839E838D819E8191
S113159024E1FC0120838D819E8101978D839E83AC
S11315A08D819E8125E1FC0120838D819E8101979F
S11315B08D839E838D819E8126E1FC0120838D8114
S11315C09E8101978D839E838D819E8127E1FC01FD
S11315D020838D819E8101978D839E838D819E8141
S11315E028E1FC0120838D819E8101978D839E8358
S11315F08D819E8129E1FC0120838D819E8101974B
S11316008D839E838D819E8120E2FC0120838D81C8
S11316109E8101978D839E838D819E8121E2FC01B1
S113162020838D819E8101978D839E838D819E81F0
S113163022E2FC0120838D819E8101978D839E830C
S11316408D819E8123E2FC0120838D819E810197FF
S11316508D839E8389859A85CC01A0E0B0E089833F
S11316609A83AB83BC8329818D819E81FC01208375
S11316708D819E8101978D839E8389819A81AB811F
S1131680BC81892F9A2FAB2FBB2789839A83AB8385
S1131690BC8329818D819E81FC0120838D819E8163
S11316A001978D839E838D819E8126E2FC01208398
S11316B08D819E8101978D839E838D819E8127E2FA
S11316C0FC0120838D819E8101978D839E838D8172
S11316D09E8128E2FC0120838D819E8101978D8368
S11316E09E838D819E8129E2FC0120838D819E81D0
S11316F001978D839E838D819E8120E3FC0120834D
S11317008D819E8101978D839E838D819E812A96F2
S1131710CDBFDEBFDF91CF910895CF93DF93CDB7D7
S1131720DEB70E94D40CA091302CB091312C0D90D6
S11317300DBE0D900EBEEF91DF91CF91BF91AF9191
S11317409F918F917F916F915F914F913F912F91D5
S11317501F910F91FF90EF90DF90CF90BF90AF90CB
S11317609F908F907F906F905F904F903F902F90BD
S11317701F900F90FF91F093A200FF91FFBFFF9184
S1131780089581E0DF91CF910895FF93FFB7FF9310
S1131790F091A200FF93F87FF093A2000F921F92A2
S11317A011242F923F924F925F926F927F928F9269
S11317B09F92AF92BF92CF92DF92EF92FF920F93DC
S11317C01F932F933F934F935F936F937F938F93C5
S11317D09F93AF93BF93CF93DF93EF93A091302C5C
S11317E0B091312C0DB60D920EB60D920E94541686
S11317F0A091302CB091312C0D900DBE0D900EBEE9
S1131800EF91DF91CF91BF91AF919F918F917F9194
S11318106F915F914F913F912F911F910F91FF9085
S1131820EF90DF90CF90BF90AF909F908F907F907C
S11318306F905F904F903F902F901F900F90FF916B
S1131840F093A200FF91FFBFFF91089500001F9342
S1131850CF93DF931F92CDB7DEB7898380910A2D92
S1131860982F8981892B80930A2D80EA90E0FC01CE
S11318708081813061F080EA90E0FC0180818230D7
S113188031F080EA90E0FC018081843079F4809129
S11318900A2D882359F00E949D09182F10920A2DB1
S11318A00E94541680EA90E0FC01128300000F901D
S11318B0DF91CF911F9108951F93CF93DF93CDB7FD
S11318C0DEB70E949D09182F0E94441580EA90E01B
S11318D0FC0112830000DF91CF911F910895FF93C3
S11318E0FFB7FF93F091A200FF93F87FF093A2005B
S11318F00F921F9211242F923F924F925F926F92F8
S11319007F928F929F92AF92BF92CF92DF92EF928B
S1131910FF920F931F932F933F934F935F936F9374
S11319207F938F939F93AF93BF93CF93DF93EF9363
S1131930A091302CB091312C0DB60D920EB60D92B3
S11319400E945C0C81E00E94270CA091302CB09185
S1131950312C0D900DBE0D900EBEEF91DF91CF9105
S1131960BF91AF919F918F917F916F915F914F91B3
S11319703F912F911F910F91FF90EF90DF90CF90A7
S1131980BF90AF909F908F907F906F905F904F909B
S11319903F902F901F900F90FF91F093A200FF9122
S11319A0FFBFFF9118950000CF93DF9300D01F92E3
S11319B0CDB7DEB780E09DE7A0E0B0E089839A83ED
S11319C0AB83BC8389819A81AB81BC81689415F80F
S11319D0B695A795979587951694D1F789839A8399
S11319E0AB83BC8389819A81AB81BC810197A109B6
S11319F0B10989839A83AB83BC8380E098E0298111
S1131A003A81FC0126A337A365E080E098E00E94B8
S1131A10010461E080E098E00E943904000024960B
S1131A20CDBFDEBFDF91CF910895CF93DF93CDB7C4
S1131A30DEB72597CDBFDEBF8B839C836D838B81FF
S1131A409C8189839A83F091A200FF93F87FF0939D
S1131A50A20089819A81FC018081918129813A8146
S1131A60F901278D422F50E029813A81F90120A103
S1131A70222F30E0429FB001439F700D529F700DA2
S1131A8011249B01280F391F89819A81FC0122832B
S1131A90338389819A81FC01168E89819A81FC01A4
S1131AA02081318189819A81FC0124833583898154
S1131AB09A81FC018081918129813A81F901278DE4
S1131AC0222F30E0A9014150510929813A81F901BD
S1131AD020A1222F30E0429FB001439F700D529FFE
S1131AE0700D11249B01280F391F89819A81FC01F3
S1131AF02683378389819A812FEFFC0121A3898171
S1131B009A812FEFFC0122A38D81882381F489819E
S1131B109A81FC0180858823A1F089819A810896A5
S1131B200E94BF17882369F00E94C50B0AC08981EF
S1131B309A8108960E942E0889819A8143960E9470
S1131B402E08FF91F093A20081E02596CDBFDEBF61
S1131B50DF91CF9108950F931F93CF93DF93CDB768
S1131B60DEB72997CDBFDEBF8F8368874987888515
S1131B70882319F419821A820FC08F81482F50E0EC
S1131B808885282F30E0429FC001439F900D529FCB
S1131B90900D112489839A8389819A8185960E9464
S1131BA0DC078B839C838B819C81892B81F08B81C7
S1131BB09C8185968D839E832B813C818D819E8122
S1131BC089012985AC0168858F810E94F10D8B8183
S1131BD09C812996CDBFDEBFDF91CF911F910F91DC
S1131BE008950F931F93CF93DF93CDB7DEB7279755
S1131BF0CDBFDEBF89836A834B835C832D830E83D1
S1131C001F838A81882341F48E819F812E813F81A5
S1131C10FC012083318307C08E819F812B813C810D
S1131C20FC01208331838E819F812981FC01278FD0
S1131C308E819F812A81FC0120A38E819F8161E096
S1131C400E94150D8E819F812D81FC0124A300002B
S1131C502796CDBFDEBFDF91CF911F910F910895DD
S1131C600F93CF93DF93CDB7DEB76297CDBFDEBFBF
S1131C708A879B876C877D872E873F87488B598B04
S1131C800A8B19828A859B858A839B83F091A200A3
S1131C90FF93F87FF093A2008A819B81FC01268D3B
S1131CA08A819B81FC01878D281718F08A898230EC
S1131CB019F52C853D858A819B814A89B9010E9449
S1131CC02E108C838A819B81FC018389882351F0A7
S1131CD08A819B8143960E94BF17882341F00E940A
S1131CE0C50B05C08C81882311F00E94C50BFF91A0
S1131CF0F093A20081E06FC08E859F85A889B98981
S1131D00892B8A2B8B2B29F4FF91F093A20080E07E
S1131D1062C08981882331F4CE0105960E948A1815
S1131D2081E08983FF91F093A2000E947914F091DD
S1131D30A200FF93F87FF093A2008A819B81FC01AB
S1131D4081A18F3F21F48A819B81FC0111A28A81A8
S1131D509B81FC0182A18F3F21F48A819B81FC013C
S1131D6012A2FF91F093A2009E01225F3F4FCE0189
S1131D700596B9010E94AD18882331F58A819B81AB
S1131D800E94B9118823C9F08E859F85A889B989D5
S1131D902A813B81285F3F4FAC01BD01C9010E94EC
S1131DA024178A819B810E9433110E948614882300
S1131DB009F06CCF0E94C50B69CF8A819B810E9478
S1131DC033110E94861462CF8A819B810E94331151
S1131DD00E94861480E06296CDBFDEBFDF91CF9172
S1131DE00F910895CF93DF93CDB7DEB72C97CDBF76
S1131DF0DEBF8E839F83688779874A875B872C87BA
S1131E008E819F818A839B830E949D098C838A8112
S1131E109B81FC01268D8A819B81FC01878D28177B
S1131E2018F08C85823089F58A819B81FC0182A11E
S1131E308D83288539858A819B814C85B9010E94CF
S1131E402E108D818F3FB9F48A819B81FC01838997
S1131E508823C1F08A819B8143960E94BF178823FF
S1131E6089F08A859B85892B69F08A859B8521E089
S1131E70FC01208307C08D818F5F282F8A819B817D
S1131E80FC0122A381E0898301C0198280EA90E0E9
S1131E902C81FC01228389812C96CDBFDEBFDF918A
S1131EA0CF910895CF93DF93CDB7DEB76197CDBFC0
S1131EB0DEBF8A879B876C877D872E873F87488B09
S1131EC0598B19828A859B858A839B83F091A20012
S1131ED0FF93F87FF093A2008A819B81FC01868D99
S1131EE08C838C81882311F12C853D858A819B818B
S1131EF0B9010E94E3108C812FEF280F8A819B8106
S1131F00FC01268F8A819B81FC018085882349F00E
S1131F108A819B8108960E94BF17882311F00E9432
S1131F20C50BFF91F093A20081E076C08E859F855A
S1131F30A889B989892B8A2B8B2B29F4FF91F093DB
S1131F40A20080E069C08981882331F4CE0105961E
S1131F500E948A1881E08983FF91F093A2000E9475
S1131F607914F091A200FF93F87FF093A2008A8184
S1131F709B81FC0181A18F3F21F48A819B81FC011B
S1131F8011A28A819B81FC0182A18F3F21F48A8165
S1131F909B81FC0112A2FF91F093A2009E01225F9B
S1131FA03F4FCE010596B9010E94AD18882331F543
S1131FB08A819B810E9498118823C9F08E859F8510
S1131FC0A889B9892A813B812D5E3F4FAC01BD01AF
S1131FD0C9010E9424178A819B810E9433110E94A7
S1131FE08614882309F072CF0E94C50B6FCF8A81B3
S1131FF09B810E9433110E94861468CF8A819B8141
S11320000E9433110E9486148A819B810E94981138
S1132010882309F45BCF80E06196CDBFDEBFDF91FA
S1132020CF910895CF93DF9300D0CDB7DEB78A83E5
S11320309B83F091A200FF93F87FF093A2008A8122
S11320409B81FC01868D8983FF91F093A200898195
S11320502396CDBFDEBFDF91CF910895CF93DF9359
S1132060CDB7DEB72797CDBFDEBF8B839C836D834F
S11320707E834F831A828B819C81FC01868D8983A8
S11320808B819C81FC0180A1882309F48EC08F81FF
S11320908823D9F58B819C81FC0180A1482F50E0D5
S11320A08B819C81FC01848195812D813E81B901C4
S11320B00E94F73C8B819C81FC01248135818B81BA
S11320C09C81FC0180A1882F90E0280F391F8B810F
S11320D09C81FC01248335838B819C81FC012481B8
S11320E035818B819C81FC0182819381281739077A
S11320F008F45BC08B819C81FC01208131818B8140
S11321009C81FC012483358350C08B819C81FC011C
S113211080A1482F50E08B819C81FC0186819781AE
S11321202D813E81B9010E94F73C8B819C81FC0189
S1132130268137818B819C81FC0180A1882F90E0CE
S1132140919581959109280F391F8B819C81FC0100
S1132150268337838B819C81FC01268137818B8187
S11321609C81FC018081918128173907A8F48B8117
S11321709C81FC01228133818B819C81FC0180A1A3
S1132180882F90E0919581959109280F391F8B81B3
S11321909C81FC01268337838F81823031F48981CD
S11321A0882319F0898181508983898121E0280F4E
S11321B08B819C81FC01268F8A812796CDBFDEBF4F
S11321C0DF91CF910895CF93DF9300D01F92CDB7C5
S11321D0DEB789839A836B837C8389819A81FC012E
S11321E080A18823C9F189819A81FC0126813781E4
S11321F089819A81FC0180A1882F90E0280F391FE2
S113220089819A81FC012683378389819A81FC0123
S11322102681378189819A81FC01828193812817E3
S1132220390750F089819A81FC01208131818981AB
S11322309A81FC012683378389819A81FC0180A1DC
S1132240482F50E089819A81FC01268137818B8156
S11322509C81B9010E94F73C00002496CDBFDEBFEB
S1132260DF91CF910895CF93DF9300D01F92CDB724
S1132270DEB78B839C83F091A200FF93F87FF093E9
S1132280A2008B819C81FC0182A1898312C08B8175
S11322909C81FC018389882381F08B819C814396F6
S11322A00E94BF17882311F00E945519898181501B
S11322B08983898118165CF301C000008B819C819D
S11322C02FEFFC0122A3FF91F093A200F091A20052
S11322D0FF93F87FF093A2008B819C81FC0181A184
S11322E08A8312C08B819C81FC018085882381F0C4
S11322F08B819C8108960E94BF17882311F00E944D
S113230055198A8181508A838A8118165CF301C029
S113231000008B819C812FEFFC0121A3FF91F0939E
S1132320A20000002496CDBFDEBFDF91CF910895B7
S1132330CF93DF9300D0CDB7DEB78A839B83F09130
S1132340A200FF93F87FF093A2008A819B81FC0195
S1132350868D882319F481E0898301C01982FF9155
S1132360F093A20089812396CDBFDEBFDF91CF9188
S11323700895CF93DF9300D0CDB7DEB78A839B83D4
S1132380F091A200FF93F87FF093A2008A819B81D1
S1132390FC01268D8A819B81FC01878D281719F405
S11323A081E0898301C01982FF91F093A2008981A1
S11323B02396CDBFDEBFDF91CF910895CF93DF93F6
S11323C0CDB7DEB72997CDBFDEBF8B839C834D830A
S11323D05E836F83788729878B819C8189839A8325
S11323E0F091A200FF93F87FF093A20089819A8173
S11323F0FC0181A18F3F21F489819A81FC0111A202
S113240089819A81FC0182A18F3F21F489819A817B
S1132410FC0112A2FF91F093A20089819A81FC0130
S1132420868D882371F489819A81FC0173968D814C
S11324309E81AF81B8852985AC01BD01CF010E9481
S11324408B1789819A810E94331100002996CDBF90
S1132450DEBFDF91CF9108958F929F92AF92BF928A
S1132460CF92DF92EF92FF920F931F93CF93DF935C
S1132470CDB7DEB76097CDBFDEBF8E839F836887FD
S113248079874A875B872C873D870E87EF86F88A92
S11324908A859B850E94DC078C839D838C819D812A
S11324A0892BB9F08CE290E00E94DC0789839A833F
S11324B089819A81892B41F089819A812C813D817E
S11324C0FC01238F348F07C08C819D810E942008DA
S11324D002C019821A8289819A81892B09F18A851D
S11324E09B85CC01A0E0B0E009811A814F85588911
S11324F02C853D8568857985EE81FF81812C912C21
S113250058016A01EE8489019C01AD01CF010E944A
S1132510A31289819A810E94791381E08B8302C07E
S11325208FEF8B838B816096CDBFDEBFDF91CF9120
S11325301F910F91FF90EF90DF90CF90BF90AF90DD
S11325409F908F9008958F929F92AF92BF92CF9257
S1132550DF92EF92FF920F931F93CF93DF93CDB748
S1132560DEB76497CDBFDEBF8C839D836E837F838C
S1132570288739874A875B870C871D87EE86CF8635
S1132580D88AA98ABA8A8B8A9C8A288539858989B6
S11325909A89FC01838D948DA90165EA70E00E94FB
S11325A0003D89899A89FC01238D348D888599851C
S11325B00197820F931F8A839B83198221C089818B
S11325C0882F90E02981222F30E04E815F81240FF3
S11325D0351FF901408129893A89820F931F4D964D
S11325E0FC0140838981882F90E02E813F81820FF6
S11325F0931FFC018081882339F089818F5F89834F
S113260089818830E0F201C0000089899A89FC013F
S113261014A28E85843010F083E08E8789899A898C
S11326202E85FC01228F89899A8902960E94680866
S113263089899A890E960E94680889899A892989C4
S11326403A89FC01228733878E85882F90E0A0E0A9
S1132650B0E024E030E040E050E079018A01E81A7B
S1132660F90A0A0B1B0BD801C70129893A89F90118
S113267086879787A08BB18B89899A8929893A891A
S1132680FC01268B378B89899A89FC0117A210A635
S113269011A612A689899A89FC0113A64C855D8529
S11326A02C813D818A819B81B9010E94B4099C01DE
S11326B089899A89FC01208331838F859889892BA4
S11326C039F08F85988929893A89FC0120833183DF
S11326D000006496CDBFDEBFDF91CF911F910F91B3
S11326E0FF90EF90DF90CF90BF90AF909F908F902E
S11326F00895CF93DF931F921F92CDB7DEB78983DE
S11327009A83F091A200FF93F87FF093A200809146
S11327109A2C8F5F80939A2C8091302C9091312C3D
S1132720892B69F489819A818093302C9093312C80
S113273080919A2C8130C9F40E94731916C080913B
S1132740A02C882391F48091302C9091312CFC01A1
S1132750228D89819A81FC01828D821730F08981D2
S11327609A818093302C9093312C8091A42C8F5F8C
S11327708093A42C2091A42C89819A81FC0125A307
S113278089819A81FC01928D80919F2C891730F464
S113279089819A81FC01828D80939F2C89819A8101
S11327A0AC014E5F5F4F89819A81FC01828D282F95
S11327B030E06BE0629FC001639F900D11248E5C3A
S11327C0934DBA010E947B08FF91F093A20080917F
S11327D0A02C882371F08091302C9091312CFC0135
S11327E0228D89819A81FC01828D281710F40E9420
S11327F0C50B00000F900F90DF91CF910895CF93F8
S1132800DF93CDB7DEB72597CDBFDEBF6A837B8369
S11328108C839D8319828A819B81AC81BD81892BA4
S11328208A2B8B2B71F00E9479148A819B81AC8155
S1132830BD8140E0BC01CD010E94271D0E94861489
S113284089838981882311F40E94C50B0000259691
S1132850CDBFDEBFDF91CF910895EF92FF920F932A
S1132860CF93DF931F92CDB7DEB70F2EF9EAEF2E89
S1132870FCE2FF2EF02D00E020E030E048EC50E0D8
S113288060E070E280E699E10E942C1289838981DC
S1132890813019F40E94C81D89838981813009F52A
S11328A080EA90E020EA30E0F9012281287FFC01EF
S11328B022838FEF9FEFDC018093A52C9093A62CAD
S11328C0A093A72CB093A82C81E08093A02C109205
S11328D09B2C10929C2C10929D2C10929E2C0E944A
S11328E08D0B00000F90DF91CF910F91FF90EF902F
S11328F00895CF93DF93CDB7DEB78091AB2C8F5F74
S11329008093AB2C0000DF91CF910895CF93DF9398
S113291000D01F92CDB7DEB719821A821B82F091C4
S1132920A200FF93F87FF093A2008091AB2C81501A
S11329308093AB2C8091AB2C882309F074C08091D8
S11329409A2C882309F46FC046C080917F2C909103
S1132950802CFC018085918589839A8389819A8161
S11329600E960E94470989819A8102960E9447091E
S113297089819A81FC01928D80919F2C891730F472
S113298089819A81FC01828D80939F2C89819A810F
S1132990AC014E5F5F4F89819A81FC01828D282FA3
S11329A030E06BE0629FC001639F900D11248E5C48
S11329B0934DBA010E947B0889819A81FC01228D82
S11329C08091302C9091312CFC01828D281718F0C5
S11329D081E08093A22C8091782C882309F0B5CFD4
S11329E089819A81892B11F00E94011A8091A12C6E
S11329F08C838C81882379F00E944415882319F0F4
S1132A0081E08093A22C8C8181508C838C818823DB
S1132A1099F71092A12C8091A22C882321F081E0B7
S1132A208B830E94C50BFF91F093A2008B812496A7
S1132A30CDBFDEBFDF91CF910895CF93DF9300D058
S1132A401F92CDB7DEB7F091A200FF93F87FF09309
S1132A50A20080919B2C90919C2CA0919D2CB091D4
S1132A609E2C89839A83AB83BC83FF91F093A2004D
S1132A7089819A81AB81BC81BC01CD012496CDBFF3
S1132A80DEBFDF91CF910895CF93DF93CDB7DEB74B
S1132A902D97CDBFDEBF19828091AB2C882309F01E
S1132AA0F1C080919B2C90919C2CA0919D2CB09175
S1132AB09E2C0196A11DB11D8A839B83AC83BD838B
S1132AC08A819B81AC81BD8180939B2C90939C2CAB
S1132AD0A0939D2CB0939E2C8A819B81AC81BD8157
S1132AE0892B8A2B8B2BD9F48091742C9091752C83
S1132AF08E839F838091762C9091772C8093742C75
S1132B009093752C8E819F818093762C9093772C53
S1132B108091A32C8F5F8093A32C0E94011A809133
S1132B20A52C9091A62CA091A72CB091A82C2A8119
S1132B303B814C815D81281739074A075B0708F4FC
S1132B408AC08091742C9091752CFC01808188231B
S1132B5061F48FEF9FEFDC018093A52C9093A62C5A
S1132B60A093A72CB093A82C76C08091742C90913C
S1132B70752CFC0187819085FC018085918588876F
S1132B80998788859985FC0182819381A481B58187
S1132B908A879B87AC87BD872A813B814C815D8175
S1132BA08A859B85AC85BD85281739074A075B074D
S1132BB068F48A859B85AC85BD858093A52C90930C
S1132BC0A62CA093A72CB093A82C45C088859985E2
S1132BD002960E94470988859985FC01808D918D14
S1132BE0892B29F0888599850E960E944709888546
S1132BF09985FC01928D80919F2C891730F48885EA
S1132C009985FC01828D80939F2C88859985AC01E0
S1132C104E5F5F4F88859985FC01828D282F30E0B7
S1132C206BE0629FC001639F900D11248E5C934DF5
S1132C30BA010E947B0888859985FC01228D8091C8
S1132C40302C9091312CFC01828D281708F479CF17
S1132C5081E0898376CF8091302C9091312CFC01D6
S1132C60828D282F30E04BE0429FC001439F900D9E
S1132C7011248E5C934DFC018081823040F081E010
S1132C80898305C08091A12C8F5F8093A12C8091B2
S1132C90A22C882311F081E0898389812D96CDBFF0
S1132CA0DEBFDF91CF910895CF93DF93CDB7DEB729
S1132CB02997CDBFDEBF8091AB2C882321F081E022
S1132CC08093A22CBAC01092A22C8091302C9091A7
S1132CD0312CFC01838D948D8A839B8385EA95EA4C
S1132CE0DC018C839D83AE83BF838A819B81FC013D
S1132CF020813181428153818C819D81AE81BF814C
S1132D00281739074A075B0799F58A819B8104963E
S1132D10FC0120813181428153818C819D81AE816E
S1132D20BF81281739074A075B0711F58A819B8100
S1132D300896FC0120813181428153818C819D81DF
S1132D40AE81BF81281739074A075B0789F48A8156
S1132D509B810C96FC0120813181428153818C81BD
S1132D609D81AE81BF81281739074A075B0771F03F
S1132D708091302C9091312C9C01235E3F4F8091A7
S1132D80302C9091312CB9010E94550480919F2CD4
S1132D90898303C08981815089838981282F30E008
S1132DA04BE0429FC001439F900D11248E5C934DD4
S1132DB0FC018081882371F38981282F30E04BE066
S1132DC0429FC001439F900D11248E5C934D8887D0
S1132DD0998788859985FC0181819281FC012481F0
S1132DE0358188859985FC0121833283888599857D
S1132DF0FC0121813281888599850396281739073A
S1132E0069F488859985FC0181819281FC01248182
S1132E10358188859985FC0121833283888599854C
S1132E20FC0181819281FC01808591858093302C05
S1132E309093312C898180939F2C00002996CDBFDB
S1132E40DEBFDF91CF910895CF93DF9300D000D000
S1132E50CDB7DEB789839A834B835C836D837E838E
S1132E608091302C9091312C9C01225F3F4F8981BD
S1132E709A81B9010E94C6088B819C81AD81BE8173
S1132E8041E0BC01CD010E94271D00002696CDBF64
S1132E90DEBFDF91CF9108950F931F93CF93DF93FC
S1132EA0CDB7DEB72A97CDBFDEBF89839A834B8324
S1132EB05C836D837E830F83188729873A872091EB
S1132EC0302C3091312C8B819C81AD81BE81B068D6
S1132ED0F90186879787A08BB18B8091302C9091D4
S1132EE0312C9C01225F3F4F89819A81B9010E9454
S1132EF07B088F819885A985BA8541E0BC01CD0105
S1132F000E94271D00002A96CDBFDEBFDF91CF911E
S1132F101F910F910895CF93DF93CDB7DEB7279715
S1132F20CDBFDEBF89839A834B835C836D837E83AD
S1132F302F838091302C9091312C9C01225F3F4F44
S1132F4089819A81B9010E947B088F81882339F095
S1132F508FEF9FEFDC018B839C83AD83BE838B81DA
S1132F609C81AD81BE814F81BC01CD010E94271D92
S1132F7000002796CDBFDEBFDF91CF910895CF9398
S1132F80DF93CDB7DEB72597CDBFDEBF8C839D839E
S1132F908C819D81FC0187819085FC0180859185D0
S1132FA08A839B838A819B810E960E944709809124
S1132FB0AB2C882351F58A819B8102960E94470994
S1132FC08A819B81FC01928D80919F2C891730F41A
S1132FD08A819B81FC01828D80939F2C8A819B81B5
S1132FE0AC014E5F5F4F8A819B81FC01828D282F4B
S1132FF030E06BE0629FC001639F900D11248E5CF2
S1133000934DBA010E947B0808C08A819B810E9669
S1133010BC0188E79CE20E947B088A819B81FC01B9
S1133020228D8091302C9091312CFC01828D82175D
S113303030F481E0898381E08093A22C01C019825D
S113304089812596CDBFDEBFDF91CF910895CF93BF
S1133050DF93CDB7DEB72897CDBFDEBF8B839C83CC
S11330604D835E836F8378878D819E81AF81B88520
S1133070B0682B813C81F90180839183A283B3835F
S11330808B819C81FC018085918589839A838B81C6
S11330909C810E94470989819A8102960E9447096E
S11330A089819A81FC01928D80919F2C891730F43B
S11330B089819A81FC01828D80939F2C89819A81D8
S11330C0AC014E5F5F4F89819A81FC01828D282F6C
S11330D030E06BE0629FC001639F900D11248E5C11
S11330E0934DBA010E947B0889819A81FC01228D4B
S11330F08091302C9091312CFC01828D821718F430
S113310081E08093A22C00002896CDBFDEBFDF9122
S1133110CF910895CF93DF931F921F92CDB7DEB75F
S113312089839A832091A32C89819A81FC0120832D
S113313080919B2C90919C2CA0919D2CB0919E2CC5
S113314029813A81F90181839283A383B4830000A6
S11331500F900F90DF91CF910895EF92FF920F930C
S11331601F93CF93DF93CDB7DEB72D97CDBFDEBFCF
S11331708A879B876C877D87F091A200FF93F87FF5
S1133180F093A20080919B2C90919C2CA0919D2C5B
S1133190B0919E2C8A839B83AC83BD838A859B8557
S11331A0FC0181819281A381B4812A813B814C817C
S11331B05D8179018A01E81AF90A0A0B1B0BD8010F
S11331C0C7018E839F83A887B9878C859D85FC0161
S11331D080819181A281B3818F3F9F4FAF4FBF4FB9
S11331E011F4198254C08A859B85FC0190818091D9
S11331F0A32C981799F08A859B85FC012181328143
S1133200438154818A819B81AC81BD81821793075C
S1133210A407B50718F081E0898339C08C859D85A2
S1133220FC0120813181428153818E819F81A88557
S1133230B98582179307A407B50700F58C859D858A
S1133240FC0120813181428153818E819F81A88537
S1133250B98579018A01E81AF90A0A0B1B0BD8010E
S1133260C7012C853D85F90180839183A283B383B3
S11332708A859B850E948A18198209C08C859D8540
S1133280FC01108211821282138281E08983FF91F2
S1133290F093A20089812D96CDBFDEBFDF91CF913F
S11332A01F910F91FF90EF900895CF93DF93CDB7C7
S11332B0DEB781E08093A22C0000DF91CF910895C6
S11332C0CF93DF931F921F92CDB7DEB789839A8382
S11332D00E94B2198091322C823010F00E94C50BEA
S11332E00E942623F5CFCF93DF931F92CDB7DEB78D
S11332F0198210C08981282F30E04BE0429FC00121
S1133300439F900D11248E5C934D0E942E08898159
S11333108F5F89838981843068F38EE59CE20E9403
S11333202E0889E69CE20E942E0888E79CE20E940F
S11333302E0883E89CE20E942E088FE89CE20E94FB
S11333402E088EE59CE28093742C9093752C89E66C
S11333509CE28093762C9093772C00000F90DF9161
S1133360CF910895CF93DF931F921F92CDB7DEB70D
S113337025C0F091A200FF93F87FF093A200809102
S11333808A2C90918B2CFC018085918589839A836A
S113339089819A8102960E94470980919A2C8150D2
S11333A080939A2C80918E2C815080938E2CFF9147
S11333B0F093A20089819A810E94E81980918E2C51
S11333C08823B9F600000F900F90DF91CF910895F4
S11333D0CF93DF931F921F92CDB7DEB789839A8371
S11333E089819A81FC01838D948D0E9420088981B2
S11333F09A810E94200800000F900F90DF91CF91D6
S11334000895CF93DF931F921F92CDB7DEB78091BB
S1133410742C9091752CFC018081882361F48FEFCA
S11334209FEFDC018093A52C9093A62CA093A72C4E
S1133430B093A82C1BC08091742C9091752CFC0126
S113344087819085FC018085918589839A83898110
S11334509A81FC0182819381A481B5818093A52CFA
S11334609093A62CA093A72CB093A82C00000F90A7
S11334700F90DF91CF910895CF93DF931F92CDB733
S1133480DEB78091A02C882319F481E0898308C0D9
S11334908091AB2C882319F482E0898301C01982BE
S11334A089810F90DF91CF910895EF92FF920F934E
S11334B01F93CF93DF9300D01F92CDB7DEB78091D7
S11334C0302C9091312CFC0186859785A089B18997
S11334D089839A83AB83BC836091302C7091312CA7
S11334E08091302C9091312CFC01828D882F90E0BA
S11334F0A0E0B0E024E030E040E050E079018A014F
S1133500E81AF90A0A0B1B0BD801C701FB018687CD
S11335109787A08BB18B89819A81AB81BC81BC01D7
S1133520CD012496CDBFDEBFDF91CF911F910F91C6
S1133530FF90EF900895CF92DF92EF92FF920F9356
S11335401F93CF93DF93CDB7DEB72F97CDBFDEBFE9
S11335506A837B838C839D832E833F83488759872B
S11335600A871B87CC86DD86EE86FF86F091A20053
S1133570FF93F87FF093A2008091302C9091312C2E
S1133580FC0183A58230A1F16091302C7091312C23
S1133590FB0127A130A541A552A58A819B81AC815D
S11335A0BD8180959095A095B09582239323A42303
S11335B0B523FB0187A390A7A1A7B2A78091302CC4
S11335C09091312C21E0FC0123A78C859D85AE854B
S11335D0BF85892B8A2B8B2B59F08C859D85AE85D5
S11335E0BF8541E0BC01CD010E94271D0E94C50B8F
S11335F0FF91F093A200F091A200FF93F87FF09363
S1133600A2008A859B85892B81F08091302C909132
S1133610312CFC0187A190A5A1A5B2A52A853B85E3
S1133620F90180839183A283B3838091302C90919C
S1133630312CFC0183A5823011F019821CC06091E9
S1133640302C7091312CFB0127A130A541A552A546
S11336508E819F81A885B98580959095A095B09518
S113366082239323A423B523FB0187A390A7A1A7B7
S1133670B2A781E089838091302C9091312CFC0198
S113368013A6FF91F093A20089812F96CDBFDEBFD0
S1133690DF91CF911F910F91FF90EF90DF90CF902A
S11336A008950F931F93CF93DF93CDB7DEB72D9774
S11336B0CDBFDEBF8D839E834F83588769877A870A
S11336C02B870C871D8781E089838D819E818A8366
S11336D09B83F091A200FF93F87FF093A2008C8566
S11336E09D85892B71F08A819B81FC0187A190A51E
S11336F0A1A5B2A52C853D85F90180839183A28380
S1133700B3838A819B81FC0183A58C838A819B81FD
S113371022E0FC0123A78B85882F90E0823091055D
S113372031F18330910534F4009709F44FC00197C7
S113373039F04DC08330910561F10497B1F147C070
S11337408A819B81FC0127A130A541A552A58F81C7
S11337509885A985BA85822B932BA42BB52B2A8116
S11337603B81F90187A390A7A1A7B2A730C08A81A2
S11337709B81FC0187A190A5A1A5B2A50196A11DDD
S1133780B11D2A813B81F90187A390A7A1A7B2A704
S11337901EC02A813B818F819885A985BA85F9014C
S11337A087A390A7A1A7B2A712C08C81823061F031
S11337B02A813B818F819885A985BA85F90187A3E0
S11337C090A7A1A7B2A703C0198201C000008C81F1
S11337D08130B9F58A819B8102960E9447098A81CA
S11337E09B81FC01928D80919F2C891730F48A81F2
S11337F09B81FC01828D80939F2C8A819B81AC01EB
S11338004E5F5F4F8A819B81FC01828D282F30E0BF
S11338106BE0629FC001639F900D11248E5C934DF9
S1133820BA010E947B088A819B81FC01228D8091D0
S1133830302C9091312CFC01828D821710F40E945F
S1133840C50BFF91F093A20089812D96CDBFDEBFF9
S1133850DF91CF911F910F910895EF92FF920F93F3
S11338601F93CF93DF93CDB7DEB76097CDBFDEBF95
S11338708E839F83488759876A877B872C870D8728
S11338801E87EF86F88A81E089838E819F818A83EF
S11338909B830E949D098C838D859E85892B71F065
S11338A08A819B81FC0187A190A5A1A5B2A52D8544
S11338B03E85F90180839183A283B3838A819B81AE
S11338C0FC0183A58D838A819B8122E0FC0123A7CF
S11338D08C85882F90E08230910531F183309105F9
S11338E034F4009709F44FC0019739F04DC0833088
S11338F0910561F10497B1F147C08A819B81FC0174
S113390027A130A541A552A588859985AA85BB859F
S1133910822B932BA42BB52B2A813B81F90187A3FE
S113392090A7A1A7B2A730C08A819B81FC0187A17F
S113393090A5A1A5B2A50196A11DB11D2A813B8127
S1133940F90187A390A7A1A7B2A71EC02A813B8132
S113395088859985AA85BB85F90187A390A7A1A726
S1133960B2A712C08D81823061F02A813B818885A3
S11339709985AA85BB85F90187A390A7A1A7B2A7BA
S113398003C0198201C000008D81813009F04FC04D
S11339908091AB2C882351F58A819B8102960E94E9
S11339A047098A819B81FC01928D80919F2C891704
S11339B030F48A819B81FC01828D80939F2C8A81C3
S11339C09B81AC014E5F5F4F8A819B81FC01828D9C
S11339D0282F30E06BE0629FC001639F900D11249B
S11339E08E5C934DBA010E947B0808C08A819B813A
S11339F00E96BC0188E79CE20E947B088A819B8129
S1133A00FC01228D8091302C9091312CFC01828D0F
S1133A10821768F48F859889892B31F08F8598896E
S1133A2021E0FC01208303C081E08093A22C80EA82
S1133A3090E02C81FC01228389816096CDBFDEBF9A
S1133A40DF91CF911F910F91FF90EF900895CF9345
S1133A50DF93CDB7DEB72D97CDBFDEBF69877A87F9
S1133A608B879C874D8780919B2C90919C2CA09157
S1133A709D2CB0919E2C89839A83AB83BC838091C7
S1133A80302C9091312C02960E94470989859A85A1
S1133A90AB85BC858F3F9F4FAF4FBF4F71F48D8572
S1133AA0882359F08091302C9091312C0296BC01DE
S1133AB08FE89CE20E947B0864C029813A814B8193
S1133AC05C8189859A85AB85BC85820F931FA41F71
S1133AD0B51F8D839E83AF83B8872091302C30919E
S1133AE0312C8D819E81AF81B885F90182839383C6
S1133AF0A483B5832D813E814F81588589819A8124
S1133B00AB81BC81281739074A075B0778F4809199
S1133B10302C9091312C9C012E5F3F4F8091762C5C
S1133B209091772CB9010E94C6082BC08091302C4B
S1133B309091312C9C012E5F3F4F8091742C909179
S1133B40752CB9010E94C6088091A52C9091A62CD1
S1133B50A091A72CB091A82C2D813E814F8158852E
S1133B60281739074A075B0760F48D819E81AF816E
S1133B70B8858093A52C9093A62CA093A72CB093E2
S1133B80A82C00002D96CDBFDEBFDF91CF91089504
S1133B90EF92FF920F93CF93DF931F92CDB7DEB7CF
S1133BA019820E9459228091C62C9091C72C892B8E
S1133BB091F00F2EF8ECEF2EFCE2FF2EF02D03E037
S1133BC020E030E048EC50E065E070E28EED9EE1EC
S1133BD00E942C12898389810F90DF91CF910F91DC
S1133BE0FF90EF900895CF92DF92EF92FF920F93A0
S1133BF01F93CF93DF93CDB7DEB76797CDBFDEBFFB
S1133C008B879C876D872E873F87488B598B0A8BC0
S1133C101B8BCC8ADD8AEE8AFF8A19828091C62C9E
S1133C209091C72C892B09F444C08D858A838E8595
S1133C309F85A889B9898B839C83AD83BE838B853B
S1133C409C858F8398878D85863034F50E943C1A35
S1133C50823099F4E091C62CF091C72C8C899D890F
S1133C60AE89BF89BE016E5F7F4F00E09C01AD014C
S1133C70CF010E94300E89831CC08091C62C909184
S1133C80C72CBE016E5F7F4F00E020E030E0A90149
S1133C900E94300E89830DC08091C62C9091C72C50
S1133CA04A895B89BE016E5F7F4F20E00E94F20E5D
S1133CB0898389816796CDBFDEBFDF91CF911F9144
S1133CC00F91FF90EF90DF90CF900895CF92DF9205
S1133CD0EF92FF920F931F93CF93DF93CDB7DEB78D
S1133CE02B97CDBFDEBF6C837D838E839F83288714
S1133CF039874A875B878091C22C9091C32CFC0141
S1133D0087819085FC018085918589839A83898147
S1133D109A8102960E94470989819A81FC018289CD
S1133D208130B1F589819A81FC01268537854089E6
S1133D3051898C819D81AE81BF81820F931FA41F05
S1133D40B51FEC80FD800E811F81288539854A8549
S1133D505B85E981FA816701780189019A01AC01E7
S1133D60BD01CF010E94FC1F882391F08C819D81AD
S1133D70AE81BF81E981FA81C12CD12C760100E0AA
S1133D8010E09C01AD0160E0CF010E94F31D8B8324
S1133D9089819A81FC012589368989819A81F90171
S1133DA0199500002B96CDBFDEBFDF91CF911F91F7
S1133DB00F91FF90EF90DF90CF900895CF93DF9312
S1133DC0CDB7DEB72797CDBFDEBF8E839F83CE01ED
S1133DD005960E94791FDC01CB0189839A83AB830A
S1133DE0BC832D8189819A81AB81BC81422FBC0126
S1133DF0CD010E94FE1E0E949520E9CFEF92FF9212
S1133E000F931F93CF93DF93CDB7DEB72A97CDBF20
S1133E10DEBF6E837F83888799874A870E947914DF
S1133E20CE0105960E94B71FDC01CB0189839A83DA
S1133E30AB83BC838D81882309F04EC08A85882397
S1133E40E1F42E813F814885598589819A81AB812E
S1133E50BC8182179307A407B50778F00E948614E3
S1133E6029813A814B815C818E819F81A885B985A6
S1133E70BC01CD010E94661E31C08A85882359F099
S1133E808091C42C9091C52CFC01908181E09923F0
S1133E9009F080E08A872E813F8148855985898190
S1133EA09A81AB81BC8179018A01E81AF90A0A0B6B
S1133EB01B0BD801C701E091C62CF091C72C2A85B1
S1133EC0AC01BD01CF010E94DE110E94861488233B
S1133ED029F40E94C50B02C00E94861400002A9691
S1133EE0CDBFDEBFDF91CF911F910F91FF90EF9077
S1133EF00895CF93DF9300D000D0CDB7DEB78D8384
S1133F009E838091C22C9091C32CFC01908181E00E
S1133F10992309F080E0282F8D819E81FC01208364
S1133F208D819E81FC018081882389F48091C22C3B
S1133F309091C32CFC0187819085FC018081918143
S1133F40A281B38189839A83AB83BC8304C0198221
S1133F501A821B821C8289819A81AB81BC81BC013B
S1133F60CD012696CDBFDEBFDF91CF910895CF93CB
S1133F70DF9300D000D0CDB7DEB78D839E830E943F
S1133F801D15DC01CB0189839A83AB83BC838091AB
S1133F90CA2C9091CB2CA091CC2CB091CD2C298102
S1133FA03A814B815C81281739074A075B0740F443
S1133FB00E949F218D819E8121E0FC01208304C009
S1133FC08D819E81FC01108289819A81AB81BC81A3
S1133FD08093CA2C9093CB2CA093CC2CB093CD2C53
S1133FE089819A81AB81BC81BC01CD012696CDBF6C
S1133FF0DEBFDF91CF910895CF92DF92EF92FF92CF
S11340000F931F93CF93DF93CDB7DEB72F97CDBF19
S1134010DEBF8A839B834C835D836E837F830887A3
S113402019872A873B87CC86DD86EE86FF86198230
S11340302A813B818C819D81AE81BF81F90182837C
S11340409383A483B5838A819B812A813B81FC016C
S1134050228733872C813D814E815F8188859985B4
S1134060AA85BB8582179307A407B50740F1288565
S113407039854A855B858C859D85AE85BF85281BE2
S1134080390B4A0B5B0B8A819B81FC0186859785E2
S1134090A089B189281739074A075B0718F081E01E
S11340A0898336C08A819B819C012E5F3F4F80911A
S11340B0C42C9091C52CB9010E94C60829C028853A
S11340C039854A855B858C859D85AE85BF85281796
S11340D039074A075B0780F42C813D814E815F815B
S11340E08C859D85AE85BF85281739074A075B07F0
S11340F018F081E089830CC08A819B819C012E5F2A
S11341003F4F8091C22C9091C32CB9010E94C608E4
S113411089812F96CDBFDEBFDF91CF911F910F9183
S1134120FF90EF90DF90CF900895CF92DF92EF92BF
S1134130FF920F931F93CF93DF93CDB7DEB76597AD
S1134140CDBFDEBFE0C08A858823FCF4CE010A9689
S1134150019689839A8389819A81FC012081318126
S113416089819A81FC0184819581A681B7814981E5
S11341705A81FA010280F381E02DEC8BFD8BAC01B6
S1134180BD018C899D89F90119958A8588230CF4D0
S1134190BAC08F8598898B839C838B819C81FC0119
S11341A084859585892B29F08B819C8102960E94B8
S11341B04709CE0143960E94B71FDC01CB018D83D2
S11341C09E83AF83B8878A85082E000C990B092E2D
S11341D0000CAA0BBB0B40E050E029E030E0841B4C
S11341E0950B2817390708F48DC0FC018827E25085
S11341F0FF4F8F4F0C940C3CEB84FC840D851E8583
S11342002B853C854D855E858B819C81FC01868553
S11342109785A089B189820F931FA41FB51F2D8193
S11342203E814F815885EB81FC81670178018901CA
S11342309A01AC01BD01CF010E94FC1F882309F43F
S113424062C08B819C81FC01258936898B819C818C
S1134250F90119958B819C81FC018289813009F0D7
S113426052C02B853C854D855E858B819C81FC01EC
S113427086859785A089B189820F931FA41FB51FD6
S1134280EB81FC81C12CD12C760100E010E09C0173
S1134290AD0160E0CF010E94F31D898734C08B8596
S11342A09C85AD85BE852B813C81F90186879787E6
S11342B0A08BB18B8B819C81FC012685378540893D
S11342C051898D819E81AF81B885820F931FA41F70
S11342D0B51FED80FE800F8118852D813E814F81B1
S11342E05885EB81FC816701780189019A01AC0151
S11342F0BD01CF010E94FC1F06C08B819C810E94DE
S1134300200801C000008091C62C9091C72CBE01EA
S1134310665F7F4F20E030E0A9010E94520F88239E
S113432009F011CF00006596CDBFDEBFDF91CF91BC
S11343301F910F91FF90EF90DF90CF900895CF924F
S1134340DF92EF92FF920F931F93CF93DF93CDB73A
S1134350DEB72D97CDBFDEBF82C08091C22C909175
S1134360C32CFC0187819085FC0180819181A2810D
S1134370B38189839A83AB83BC838091C22C90914F
S1134380C32CFC0187819085FC01808591858D83F8
S11343909E838D819E8102960E9447098D819E8114
S11343A0FC01258936898D819E81F90119958D81BC
S11343B09E81FC018289813009F051C08D819E81EA
S11343C0FC01268537854089518989819A81AB8191
S11343D0BC81820F931FA41FB51F8F839887A98761
S11343E0BA872F81388549855A8589819A81AB811D
S11343F0BC8182179307A407B507F8F42D813E8189
S11344008F819885A985BA85F90182839383A483D2
S1134410B5838D819E812D813E81FC012287338766
S11344208D819E819C012E5F3F4F8091C22C909183
S1134430C32CB9010E94C60812C089819A81AB813C
S1134440BC81ED81FE81C12CD12C760100E010E00D
S11344509C01AD0160E0CF010E94F31D8B87809128
S1134460C22C9091C32CFC018081882309F075CF64
S11344708091C22C9091C32C8C879D878091C42CF1
S11344809091C52C8093C22C9093C32C8C859D85D0
S11344908093C42C9093C52C00002D96CDBFDEBF15
S11344A0DF91CF911F910F91FF90EF90DF90CF900C
S11344B00895CF93DF93CDB7DEB7F091A200FF93B9
S11344C0F87FF093A2008091C62C9091C72C892B81
S11344D0E9F48CEA9CE20E942E0887EB9CE20E949D
S11344E02E088CEA9CE28093C22C9093C32C87EB19
S11344F09CE28093C42C9093C52C40E069E085E055
S11345000E94AB0D8093C62C9093C72CFF91F0931F
S1134510A2000000DF91CF9108950F931F93CF93D2
S1134520DF93CDB7DEB76497CDBFDEBF8B879C87A3
S11345306D877E872F87388B498B5A8B0B8B1C8B0F
S11345408EEF8A838B859C858B839C838D859E854A
S11345508D839E838F859889A989BA898F8398874B
S1134560A987BA878091C62C9091C72C4B895C8906
S1134570BE016E5F7F4F20E00E94F20E8983898125
S11345806496CDBFDEBFDF91CF911F910F91089547
S1134590CF93DF93CDB7DEB780E590E020E530E040
S11345A0F90120812160FC01208380E590E0FC0179
S11345B08181882F90E081709927892BB1F380E065
S11345C00E94DF038EE10E94A80360E080E00E9465
S11345D0C80343E060E080E40E94730380E590E058
S11345E020E530E0F90120812860FC01208380E58A
S11345F090E0FC018181882F90E088709927892BB5
S1134600B1F364E080EC0E94900380E590E020E543
S113461030E0F90120812061FC01208360E080E02A
S11346200E94C80380E590E0FC018181882F90E01E
S113463080719927892BB1F384E00E94DF0387E01E
S11346400E94A8030000DF91CF910895CF93DF93D8
S1134650CDB7DEB70000DF91CF910895EF92FF92BE
S11346600F93CF93DF93CDB7DEB70E94C8220E9489
S1134670F32C0E949F0480930D2D90930E2D0E9485
S11346809F0480930F2D9093102D80910D2D909168
S11346900E2D40E051E060E070E00E9445068091FC
S11346A00D2D90910E2D40E058E060E070E00E94E6
S11346B045060F2EF1E1EF2EFDE2FF2EF02D02E074
S11346C020E030E048EC50E06DE070E281E09BE2F5
S11346D00E942C120F2EFBE0EF2EFDE2FF2EF02D98
S11346E002E020E030E044E051E068E170E28EE472
S11346F096E20E942C120F2EF5E1EF2EFDE2FF2E22
S1134700F02D01E020E030E04AEF50E063E270E297
S113471088EB93E20E942C120F2EF3E1EF2EFDE2C0
S1134720FF2EF02D01E020E030E04AEF50E06BE294
S113473070E281EF94E20E942C120F2EF7E1EF2E2B
S1134740FDE2FF2EF02D02E020E030E042ED50E0EB
S113475068E370E28FEF99E20E942C120E942D14FC
S113476080E090E0DF91CF910F91FF90EF9008955A
S1134770CF92DF92EF92FF920F93CF93DF93CDB757
S1134780DEB72A97CDBFDEBF89879A8780E090E0A5
S1134790A0E8BFE389839A83AB83BC8380E090E085
S11347A0A0E4B0E48D839E83AF83B88780910D2D00
S11347B090910E2D40E050E0BA010E94FA05DC0110
S11347C0CB0188279270AA27BB27892B8A2B8B2B96
S11347D009F471C02D813E814F81588560E070E0FD
S11347E080E89FE30E941B35DC01CB019C01AD01F5
S11347F069817A818B819C810E94A934DC01CB017F
S113480089839A83AB83BC8320E030E040E050E4AA
S11348106D817E818F8198850E94AA34DC01CB0151
S11348208D839E83AF83B8872D813E814F815885C8
S113483060E070E080E89FE30E941B35DC01CB015F
S11348409C01AD0169817A818B819C810E94AA348B
S1134850DC01CB0189839A83AB83BC8320E030E005
S113486040E050E46D817E818F8198850E94AA3456
S1134870DC01CB018D839E83AF83B88720E030E5D4
S113488043EC57E469817A818B819C810E947A365A
S1134890DC01CB01BC01CD010E949435DC01CB01CC
S11348A08B3C9243A140B10509F04BC080E498E0F1
S11348B0FC01108246C080910D2D90910E2D40E098
S11348C050E0BA010E94FA05DC01CB0188279170FF
S11348D0AA27BB27892B8A2B8B2B99F180910D2D2D
S11348E090910E2D40E050E0BA010E94FA05DC01DF
S11348F0CB0188279470AA27BB27892B8A2B8B2B63
S1134900D1F080E090E0A0E8BFE389839A83AB8391
S1134910BC8380E090E0A0E4B0E48D839E83AF8309
S1134920B88780910D2D90910E2D40E054E060E009
S113493070E00E94FA056AE070E080E090E00E9476
S1134940FF1380910D2D90910E2D40E050E0BA019F
S11349500E94FA05DC01CB0181709927AA27BB27A5
S1134960892B8A2B8B2B09F421CF20E030E040E8FF
S113497050E469817A818B819C810E947A36DC01C2
S1134980CB018093CE2C9093CF2CA093D02CB093BA
S1134990D12C80910D2D90910E2D42E050E060E0DD
S11349A070E00E94450680910D2D90910E2D0F2EE2
S11349B0F5E0CF2ED12CE12CF12CF02D01E021E0FB
S11349C044E050E060E070E00E94C20480910D2D4C
S11349D090910E2D42E050E060E070E00E94FA05F4
S11349E0E5CECF92DF92EF92FF920F93CF93DF93B6
S11349F0CDB7DEB72A97CDBFDEBF89879A8780E01F
S1134A0090E0A0E4B0E489839A83AB83BC8380E024
S1134A1090E0A0E4B0E48D839E83AF83B887809157
S1134A200D2D90910E2D40E050E0BA010E94FA0540
S1134A30DC01CB0188279071AA27BB27892B8A2BFD
S1134A408B2B09F49DC08D819E81AF81B88520E0B8
S1134A5030E040E450E4BC01CD010E94E736DC01C3
S1134A60CB012D813E814F815885BC01CD010E942F
S1134A70A934DC01CB019C01AD0160E070E080E869
S1134A8090E40E941B35DC01CB019C01AD016981DE
S1134A907A818B819C810E94AA34DC01CB018983B9
S1134AA09A83AB83BC8320E030E040E050E46D8126
S1134AB07E818F8198850E94AA34DC01CB018D838D
S1134AC09E83AF83B8878D819E81AF81B88520E0B6
S1134AD030E040E450E4BC01CD010E94E736DC0143
S1134AE0CB012D813E814F815885BC01CD010E94AF
S1134AF0A934DC01CB019C01AD0160E070E080E8E9
S1134B0090E40E941B35DC01CB019C01AD0169815D
S1134B107A818B819C810E94A934DC01CB01898339
S1134B209A83AB83BC8320E030E040E050E46D81A5
S1134B307E818F8198850E94AA34DC01CB018D830C
S1134B409E83AF83B88720E030E543EC57E4698166
S1134B507A818B819C810E947A36DC01CB01BC0175
S1134B60CD010E949435DC01CB018F329B4CA440D3
S1134B70B10509F04BC080E498E0FC01108246C006
S1134B8080910D2D90910E2D40E050E0BA010E94CD
S1134B90FA05DC01CB0188279870AA27BB27892B4B
S1134BA08A2B8B2B99F180910D2D90910E2D40E045
S1134BB050E0BA010E94FA05DC01CB01882790720B
S1134BC0AA27BB27892B8A2B8B2BD1F080E090E07E
S1134BD0A0E4B0E489839A83AB83BC8380E090E053
S1134BE0A0E4B0E48D839E83AF83B88780910D2DBC
S1134BF090910E2D40E050E260E070E00E94FA05D2
S1134C006AE070E080E090E00E94FF1380910D2D37
S1134C1090910E2D40E050E0BA010E94FA05DC01AB
S1134C20CB0188709927AA27BB27892B8A2B8B2B2A
S1134C3009F4F5CE89819A81AB81BC818093D22C11
S1134C409093D32CA093D42CB093D52C80910D2D7C
S1134C5090910E2D40E150E060E070E00E94450626
S1134C6080910D2D90910E2D0F2EF5E0CF2ED12C8D
S1134C70E12CF12CF02D01E021E040E250E060E075
S1134C8070E00E94C20480910D2D90910E2D40E1A0
S1134C9050E060E070E00E94FA05C1CECF92DF924E
S1134CA0EF92FF920F931F93CF93DF93CDB7DEB7AD
S1134CB0E297CDBFDEBF89AB9AAB81E089831B82CB
S1134CC01C821D821E821A82CE010F96C12CD12C09
S1134CD07601C3948C012FEF3FEF4FEF5FE060E06C
S1134CE070E0CB010E949B1A0E943E2F8981813083
S1134CF009F070C080910D2D90910E2D41E050E08F
S1134D0060E070E00E94450680910D2D90910E2D7B
S1134D100F2EF5E0CF2ED12CE12CF12CF02D01E05B
S1134D2021E042E050E060E070E00E94C204809123
S1134D30CE2C9091CF2CA091D02CB091D12C8F83DC
S1134D409887A987BA8780910D2D90910E2D41E007
S1134D5050E060E070E00E94FA0580910D2D909182
S1134D600E2D44E050E060E070E00E9445068A8524
S1134D708F9389858F9388858F938F818F9380E418
S1134D8090E2892F8F9380E490E28F93CE01439633
S1134D90292F2F938F930E94873D8DB79EB7089636
S1134DA0CDBFDEBFCE014396292F2F938F9383E48B
S1134DB090E2892F8F9383E490E28F931F921F9246
S1134DC01F921F920E94502FEDB7FEB73896CDBFA9
S1134DD0DEBF74C08981823009F070C080910D2DCE
S1134DE090910E2D48E050E060E070E00E9445068E
S1134DF080910D2D90910E2D0F2EF5E0CF2ED12CFC
S1134E00E12CF12CF02D01E021E040E150E060E0E4
S1134E1070E00E94C2048091D22C9091D32CA09176
S1134E20D42CB091D52C8B879C87AD87BE8780917D
S1134E300D2D90910E2D48E050E060E070E00E944E
S1134E40FA0580910D2D90910E2D40E250E060E026
S1134E5070E00E9445068E858F938D858F938C8597
S1134E608F938B858F9380E490E2892F8F9380E4D6
S1134E7090E28F93CE014D96292F2F938F930E940A
S1134E80873D8DB79EB70896CDBFDEBFCE014D9648
S1134E90292F2F938F9389E490E2892F8F9389E4AC
S1134EA090E28F931F921F921F9281E08F930E9432
S1134EB0502FEDB7FEB73896CDBFDEBF8A81882F5D
S1134EC090E08130910509F4F8C0823091051CF41A
S1134ED0892B49F036C28230910509F423C1039726
S1134EE009F4C8C12EC280910F2D9091102D41E07C
S1134EF050E060E070E00E94450680910F2D909193
S1134F00102D0F2EF5E0CF2ED12CE12CF12CF02D0D
S1134F1001E021E042E050E060E070E00E94C20461
S1134F208091D62C9091D72CA091D82CB091D92CCB
S1134F308B839C83AD83BE8380910F2D9091102D24
S1134F4041E050E060E070E00E94FA0580910F2D8E
S1134F509091102D44E050E060E070E00E9445061E
S1134F608E818F938D818F938C818F938B818F937F
S1134F7081E590E2892F8F9381E590E28F93CE01B2
S1134F808796292F2F938F930E94873D8DB79EB7C5
S1134F900896CDBFDEBFCE018796292F2F938F931E
S1134FA085E590E2892F8F9385E590E28F931F9298
S1134FB01F921F9282E08F930E94502FEDB7FEB78D
S1134FC03896CDBFDEBF8F859889A989BA8982704A
S1134FD09927AA27BB27892B8A2B8B2B11F081E0D9
S1134FE08A838F859889A989BA8984709927AA2781
S1134FF0BB27892B8A2B8B2B11F082E08A838F8528
S11350009889A989BA8988709927AA27BB27892BE7
S11350108A2B8B2B11F083E08A838F859889A98949
S1135020BA8981709927AA27BB27892B8A2B8B2BB6
S113503009F489C189818130F1F480910D2D909119
S11350400E2D40E052E060E070E00E944506809141
S11350500D2D90910E2D40E051E060E070E00E9433
S1135060FA0580E498E020E438E0F9012081246026
S1135070FC01208368C18981823009F064C1809178
S11350800D2D90910E2D40E050E160E070E00E9403
S1135090450680910D2D90910E2D40E058E060E082
S11350A070E00E94FA0580E498E020E438E0F90119
S11350B020812460FC01208346C180E498E0FC0147
S11350C0108289818130A9F480910D2D90910E2D4B
S11350D040E051E060E070E00E94450680910D2DB3
S11350E090910E2D40E052E060E070E00E94FA05DD
S11350F017C089818230A1F480910D2D90910E2DDD
S113510040E058E060E070E00E94450680910D2D7B
S113511090910E2D40E050E160E070E00E94FA05AD
S11351201A8212C18981813009F050C080910D2DFD
S113513090910E2D40E050E0BA010E94FA05DC0186
S1135140CB0188279170AA27BB27892B8A2B8B2B0D
S113515009F48EC080910D2D90910E2D40E054E005
S113516060E070E00E94450680910F2D9091102D13
S113517048E050E060E070E00E94450680910F2D09
S11351809091102D0F2EF5E0CF2ED12CE12CF12C87
S1135190F02D01E021E042E050E060E070E00E9488
S11351A0C20480910F2D9091102D48E050E060E0F2
S11351B070E00E94FA0580910F2D9091102D44E02B
S11351C050E060E070E00E94450652C08981823060
S11351D009F04EC080910D2D90910E2D40E050E0CD
S11351E0BA010E94FA05DC01CB0188279870AA272E
S11351F0BB27892B8A2B8B2BD9F180910D2D909174
S11352000E2D40E050E260E070E00E94450680917F
S11352100F2D9091102D48E050E060E070E00E9466
S1135220450680910F2D9091102D0F2EF5E0CF2E75
S1135230D12CE12CF12CF02D01E021E042E050E0F2
S113524060E070E00E94C20480910F2D9091102DB7
S113525048E050E060E070E00E94FA0580910F2D74
S11352609091102D44E050E060E070E00E9445060B
S11352701A826AC080E498E0FC01108280910F2DAC
S11352809091102D48E050E060E070E00E944506E7
S113529080910F2D9091102D0F2EF5E0CF2ED12C53
S11352A0E12CF12CF02D01E021E042E050E060E03F
S11352B070E00E94C20480910F2D9091102D48E05F
S11352C050E060E070E00E94FA0580910F2D90910B
S11352D0102D44E050E060E070E00E9445068981B2
S11352E08130B9F480910D2D90910E2D40E051E064
S11352F060E070E00E94450680910D2D90910E2D86
S113530040E052E060E070E00E94FA0582E08983A8
S113531016C080910D2D90910E2D40E058E060E074
S113532070E00E94450680910D2D90910E2D40E075
S113533050E160E070E00E94FA0581E089831A82FE
S113534003C01A8201C0000064EF71E080E090E0C5
S11353500E94FF13B9CC1F920F9200903F000F924E
S1135360112400903B000F92EF92FF920F931F9332
S11353702F933F934F935F936F937F938F939F9359
S1135380AF93BF93EF93FF93CF93DF931F92CDB768
S1135390DEB719828091DA2C9091DB2CA091DC2C61
S11353A0B091DD2CE091172DF091182D9E012F5F07
S11353B03F4F790100E010E022E0AC01BD01CF01D4
S11353C00E942D1C00000F90DF91CF91FF91EF916F
S11353D0BF91AF919F918F917F916F915F914F9109
S11353E03F912F911F910F91FF90EF900F9000929A
S11353F03B000F9000923F000F901F901895CF92A2
S1135400DF92EF92FF920F931F93CF93DF93CDB769
S1135410DEB72A97CDBFDEBF89879A8719821A82A1
S11354201B821C8280E498E020E438E0F9012681A4
S11354302360FC01268380E498E02FE93FE0FC012F
S113544026A337A380EA90E020EA30E0F901228124
S11354502460FC012283CE0105960F2EFFE0CF2E9F
S1135460D12CE12CF12CF02D8C012FEF3FEFA90171
S113547060E070E0CB010E949B1A8D819E81AF8118
S1135480B885892B8A2B8B2BA1F08D819E81AF81CE
S1135490B88529813A814B815C81820F931FA41FB7
S11354A0B51F89839A83AB83BC831D821E821F82AE
S11354B0188680910F2D9091102D0F2EF4E6CF2E8B
S11354C0D12CE12CF12CF02D00E020E049E050E05B
S11354D060E070E00E94C204DC01CB01892B8A2BBE
S11354E08B2B09F4B8CF80910F2D9091102D40E0B3
S11354F050E0BA010E94FA05DC01CB0188709927BB
S1135500AA27BB27892B8A2B8B2B99F11092DA2C93
S11355101092DB2C1092DC2C1092DD2C19821A8252
S11355201B821C8280910F2D9091102D42E050E03F
S113553060E070E00E94450680910F2D9091102D3F
S11355400F2EF5E0CF2ED12CE12CF12CF02D01E023
S113555021E044E050E060E070E00E94C2048091E9
S11355600F2D9091102D42E050E060E070E00E9419
S1135570FA0580910F2D9091102D40E050E0BA0172
S11355800E94FA05DC01CB0181709927AA27BB2769
S1135590892B8A2B8B2B09F45ECF89819A81AB816D
S11355A0BC818093D62C9093D72CA093D82CB09305
S11355B0D92C80910F2D9091102D42E050E060E0A5
S11355C070E00E94450680910F2D9091102D0F2EB2
S11355D0FFE0CF2ED12CE12CF12CF02D01E021E0C5
S11355E044E050E060E070E00E94C20480910F2D1E
S11355F09091102D42E050E060E070E00E94FA05C6
S11356002ACF0F931F93CF93DF931F921F92CDB78F
S1135610DEB789839A830E9410020E942C0280E0E4
S11356200E941E03813069F480910B2D90910C2D02
S113563000E010E023E041E050E060E070E00E9410
S1135640511B81E00E941E03813069F480910B2D6F
S113565090910C2D00E010E023E042E050E060E087
S113566070E00E94511B82E00E941E03813069F4A5
S113567080910B2D90910C2D00E010E023E044E08C
S113568050E060E070E00E94511B83E00E941E0322
S1135690813069F480910B2D90910C2D00E010E085
S11356A023E048E050E060E070E00E94511B6AE0B3
S11356B070E080E090E00E94FF13AFCF1F920F9242
S11356C000903F000F92112400903B000F922F9303
S11356D03F934F935F936F937F938F939F93AF9376
S11356E0BF93EF93FF93CF93DF931F92CDB7DEB7B2
S11356F0198280911B2D90911C2D9E012F5F3F4F8D
S113570041E050E060E070E00E94B20760E080E0B9
S11357109BE00E94010480E09BE0FC0116820000F3
S11357200F90DF91CF91FF91EF91BF91AF919F9136
S11357308F917F916F915F914F913F912F910F9036
S113574000923B000F9000923F000F901F9018951D
S1135750CF92DF92EF92FF920F93CF93DF9300D01B
S11357601F92CDB7DEB769837A838B839C8389814B
S11357709A81AB81BC810297A105B10540F482E016
S113578090E0A0E0B0E089839A83AB83BC8380E09F
S11357909BE021E0FC01268380E09BE0FC0110A259
S11357A011A260E080E09BE00E941D0489819A813F
S11357B0AB81BC818E3F9F4FA105B10598F420E0D9
S11357C03BE089819A81AB81BC81B695A795979579
S11357D08795F90186A397A365E080E09BE00E948A
S11357E001041FC089819A81AB81BC8180349244B9
S11357F0AF40B105B0F420E03BE089819A81AB81F0
S1135800BC81689414F8B695A795979587951694D6
S1135810D1F7F90186A397A367E080E09BE00E949B
S1135820010480911B2D90911C2D0F2EF4EFCF2E8F
S1135830DD24D394E12CF12CF02D00E021E041E0B3
S113584050E060E070E00E94C20400002496CDBFE6
S1135850DEBFDF91CF910F91FF90EF90DF90CF905B
S11358600895CF93DF931F92CDB7DEB789838981E3
S11358708F70898389818295807F898380E096E017
S113588020E036E0F901348129812F602323FC01D3
S1135890248380E096E020E036E0F9013481298118
S11358A0232BFC01248300000F90DF91CF910895F6
S11358B0CF93DF931F92CDB7DEB789838981882385
S11358C031F080E696E021E0FC01258305C080E606
S11358D096E021E0FC01268300000F90DF91CF9138
S11358E00895CF93DF931F92CDB7DEB78983898163
S11358F0882331F080E696E022E0FC01258305C090
S113590080E696E022E0FC01268300000F90DF9100
S1135910CF910895CF93DF931F92CDB7DEB78983DC
S11359208981882331F080E696E024E0FC01258318
S113593005C080E696E024E0FC01268300000F9079
S1135940DF91CF910895CF93DF93CDB7DEB781E098
S11359500E948A2C61E070E080E090E00E94A82B15
S113596080E00E948A2C0000DF91CF910895CF93AC
S1135970DF931F92CDB7DEB78983898182958F70BB
S11359800E94312C80E00E94582C80E00E94712CEF
S11359900E94A32C89818F700E94312C0E94A32C19
S11359A000000F90DF91CF910895CF93DF931F9262
S11359B0CDB7DEB78983898182958F700E94312C9F
S11359C081E00E94582C80E00E94712C0E94A32C3C
S11359D089818F700E94312C0E94A32C00000F90AB
S11359E0DF91CF910895EF92FF920F93CF93DF93BE
S11359F0CDB7DEB780E096E020E1FC01218380E0B2
S1135A0096E020E2FC01218380E096E020E4FC01A2
S1135A10218380E096E020E8FC01218380E696E083
S1135A2021E0FC01218380E696E022E0FC01218351
S1135A3080E696E024E0FC01218380E096E020E00B
S1135A4036E0F90124812F70FC01248380E696E07E
S1135A5020E636E0F9012481287FFC01248340E01C
S1135A6066E188E00E94AB0D8093192D90931A2D66
S1135A700E949F0480931B2D90931C2DE12CF12CEC
S1135A8001E020E030E04EE551E06EE570E281EFA8
S1135A909DE20E942C120000DF91CF910F91FF90A4
S1135AA0EF900895CF93DF9300D01F92CDB7DEB768
S1135AB089839A836B837C8389819A818130910560
S1135AC089F0823091051CF4892B39F01AC0823098
S1135AD0910569F0039781F014C08B8180580E946E
S1135AE0B72C0FC08B8180540E94B72C0AC08B81C5
S1135AF08C560E94B72C05C08B818C520E94B72C07
S1135B00000067E270E080E090E00E94A82B0000B3
S1135B102496CDBFDEBFDF91CF910895CF93DF935D
S1135B201F92CDB7DEB7898389810E94D52C6BE2A1
S1135B3070E080E090E00E94A82B00000F90DF91BD
S1135B40CF910895CF93DF9300D01F92CDB7DEB7E6
S1135B508B839C8319821A8219C089819A812B8133
S1135B603C81820F931FFC0180818823A1F08981ED
S1135B709A812B813C81820F931FFC0180810E94BA
S1135B808E2D89819A81019689839A8389819A814C
S1135B9044971CF301C0000000002496CDBFDEBF73
S1135BA0DF91CF910895CF93DF9300D000D0CDB78C
S1135BB0DEB789839A836B837C834D835E832B81D9
S1135BC03C8189819A81B9010E94522D8D819E81E7
S1135BD00E94A22D00002696CDBFDEBFDF91CF919B
S1135BE00895CF93DF93CDB7DEB7C057D109CDBFAA
S1135BF0DEBF9E0121593F4FF901808391831982B1
S1135C001A821B821C821D821E8226C01F82188655
S1135C101AC02D813E8144E1429FC001439F900DF3
S1135C2011249E012F5F3F4F280F391F8F819885C4
S1135C30820F931F089620E2FC0120838F819885B0
S1135C4001968F8398878F819885449714F38D816B
S1135C509E8101968D839E838D819E810497B4F2EB
S1135C6060E47CE980E090E00E94A82B83E00E943D
S1135C70312C68E873E180E090E00E94A82B0E9438
S1135C80A32C60EA70E080E090E00E94A82B0E94C0
S1135C90A32C60EA70E080E090E00E94A82B0E94B0
S1135CA0A32C60EA70E080E090E00E94A82B82E0E0
S1135CB00E94312C0E94A32C88E20E94B72C80E120
S1135CC00E94B72C8CE00E94B72C86E00E94B72C6F
S1135CD068EC70E080E090E00E94FF1380911B2D3F
S1135CE090911C2D40E050E0BA010E94FA05DC01BD
